:020000040800F2
:10000000A0150020C1010008E1610008615B000843
:100010000961000839100008557800080000000048
:100020000000000000000000000000007D680008E3
:10003000693100080000000081620008F9690008C9
:10004000DB010008DB010008DB010008DB01000820
:10005000DB010008DB010008DB010008DB01000810
:10006000DB010008DB010008DB010008252D00088A
:10007000352D0008DB010008452D0008DB010008D4
:10008000DB010008552D0008DB010008DB0100083A
:100090003D100008DB010008DB010008DB0100085F
:1000A000DB010008DB010008DB010008DB010008C0
:1000B000DB010008DB010008DB010008DB010008B0
:1000C000DB010008DB010008DB010008DB010008A0
:1000D000DB01000825780008DB01000835780008FE
:1000E000DB010008DB010008DB010008DB01000880
:1000F000DB010008DB010008DB010008DB01000870
:10010000DB010008DB010008DB010008DB0100085F
:10011000DB010008DB010008DB010008D16A0008F0
:10012000DB010008652D0008752D0008DB010008C3
:10013000DB010008DB010008DB010008DB0100082F
:10014000DB0100084D100008DB010008DB0100089E
:10015000DB010008852D0008DB0100084578000858
:10016000DB010008DB010008DB010008DB010008FF
:10017000DB010008DB010008DB01000800000000D3
:10018000DB010008DB010008DB010008C96B000887
:10019000DB010008DB010008DB010008DB010008CF
:1001A0000000000000000000DB010008DFF80CD0B8
:1001B00000F0C4FB0048004739910008A01500205A
:1001C0000648804706480047FEE7FEE7FEE7FEE7F1
:1001D000FEE7FEE7FEE7FEE7FEE7FEE7BD6A000892
:1001E000AD0100082DE9F05F0546002092469B46D0
:1001F00088460646814640241BE02846414647463D
:10020000224600F062FA53465A46C01A914110D372
:1002100011461846224600F049FA2D1A67EB0108EC
:100220004F4622460120002100F040FA17EB00095A
:100230004E41201EA4F10104DFDC484631462A4627
:100240004346BDE8F09F40EA01039B0703D009E065
:1002500008C9121F08C0042AFAD203E011F8013BB2
:1002600000F8013B521EF9D27047D2B201E000F80B
:10027000012B491EFBD270470022F6E710B513464A
:100280000A4604461946FFF7F0FF204610BD30B578
:1002900005462A460B4612F8010B13F8014B08B12C
:1002A000A042F8D01CB1002802D06D1CF1E728460E
:1002B00030BD421C10F8011B0029FBD1801A704789
:1002C0002DE9FE4F804681EA0300C00F0C460090E6
:1002D00021F0004123F00045B8EB0200A94105D20E
:1002E0004046214690461C460B46024623F00040FD
:1002F000104347D0270DC7F30A00C3F30A510290F9
:10030000401A019040286BDAC3F3130040F4801BBD
:100310000098924620B10023D2EB030A63EB0B0B4B
:1003200001985946C0F14002504600F0BFF9064618
:100330000D4650465946019A00F0D7F910EB0800D7
:100340006141002487EA115284EAE7731A4340D0DE
:10035000009A62B3019A012A4FEA075215DC001B8A
:1003600061EB02014FF0004202EA0752CDE9004280
:10037000001C41F5801132462B4600F05DFA03B0B7
:10038000BDE8F08F40462146F9E7001B61EB020112
:10039000001C41F5801300185B412018A2F50017DE
:1003A00047EB030140EAD570B6196D4111E06D08C5
:1003B0004FEA360645EAC0754FEA0752001B61EB6B
:1003C0000201001C41F5801149084FEA3000001974
:1003D000514132462B4603B0BDE8F04F00F01DBA44
:1003E0000098012240000023D0EB020263EBE0738F
:1003F000009821464FEAE074B8EB000061EB04017D
:10040000E9E783F000435BE781F0004158E72DE91D
:10041000FE4F81EA030404F0004421F000410094FF
:100420004FF0000B23F0004350EA01045ED052EA83
:1004300003045BD0C3F30A54C1F30A552C44A4F25D
:10044000F3340194A0FB0254C1F3130141F4801171
:10045000C3F3130343F4801301FB024400FB034E78
:10046000840A970A44EA815447EA8357A4FB076841
:1004700002958D0A05FB07854FEA932C04FB0C546B
:100480002705029D4FEA065847EA1637B5EB0805DF
:100490006EEB070C870E920E47EA811742EA831231
:1004A000A7FB0201B6EB0B0164EB00042B0D43EA42
:1004B0000C335E1844EB1C50DA465146E7FB020150
:1004C000C5F313044FEA0B3343EA14534FEA0432E3
:1004D000019C43EA0603A4F10C040294009CCDE9BC
:1004E00000B400F0A9F903B0BDE8F08F0020014688
:1004F000F9E72DE9F04D81EA030404F0004B21F007
:10050000004514464FF0000A23F0004150EA05026E
:1005100020D054EA01021DD0C5F30A570246C5F3A4
:100520001303C1F31300C1F30A5640F4801543F4DA
:100530008013A7EB0608101BD64608F2FD3873EBB4
:10054000050002D308F1010801E092185B41B8F1FF
:10055000000F03DA00200146BDE8F08D00204FF4C3
:100560008011064684460EE0171B73EB050705D382
:10057000121B63EB050306434CEA010C49084FEAE2
:10058000300092185B4150EA0107EDD152EA0300B6
:1005900012D082EA040083EA0501084305D0101B4B
:1005A000AB4106D20122002306E000224FF00043B7
:1005B00002E06FF0010253101AEB06004CEB0851F9
:1005C00010EB0A0041EB0B01BDE8F04D00F025B93E
:1005D0000EB5C10F80EAE0700844CA07002140F25E
:1005E00033438DE80E000A460B4600F025F903B0B0
:1005F00000BD00F0004230F000400AD0C10D01F50E
:100600006071C0F3160042EA0151C208400711436D
:10061000704700200146704730B5041E71F1000498
:1006200004DB4FF00044404264EB0101141E73F1FF
:10063000000405DB1C464FF00043524263EB040309
:10064000994208BF904230BD01F0004330B421F020
:10065000004150EA010206D00A0DA2F56072C1F312
:100660001301002A02DC30BC00207047440F44EA2A
:10067000C104C100E01830BC00EBC25000F096B8D5
:1006800030B50B46014600202022012409E021FA62
:1006900002F59D4205D303FA02F5491B04FA02F55F
:1006A0002844151EA2F10102F1DC30BD202A04DB32
:1006B000203A00FA02F1002070479140C2F1200375
:1006C00020FA03F3194390407047202A04DB203AB4
:1006D00021FA02F00021704721FA02F3D040C2F162
:1006E00020029140084319467047202A06DBCB17A9
:1006F000203A41FA02F043EAE07306E041FA02F3DD
:10070000D040C2F1200291400843194670470000D2
:100710000FB4002300B589B00CA900910B996FF0BC
:100720000042CB601E4B06931E4B07930423CDE97A
:1007300001321D4A089202466B46002000F0AAF9D9
:1007400009B05DF814FB70B586B006464FF0FF3077
:100750000091CDE90101002015460C460490324677
:10076000694604A8FFF7D4FF02460498211825B172
:1007700008B1084600E020462860049800280DD003
:10078000002A02DD0098884208D0081B0094CDE9B9
:1007900001043246694604A8FFF7BAFF06B070BDEF
:1007A000CD0C0008EB0C0008610900080029A8BF67
:1007B0007047401C490008BF20F00100704710B48A
:1007C000B0FA80FC00FA0CF050EA010404BF10BC3F
:1007D000704749B1CCF1200421FA04F411FA0CF16C
:1007E00018BF012121430843A3EB0C01CB1D4FEAA5
:1007F00000614FEA102042BF002010BC704700EBA0
:10080000C35010440029A4BF10BC7047401C4900CD
:1008100008BF20F0010010BC704710B5141E73F122
:10082000000408DA401C41F1000192185B411A43B0
:1008300001D120F0010010BD2DE9F04D92469B46FC
:1008400011B1B1FA81F202E0B0FA80F220329046A2
:10085000FFF72CFF04460F4640EA0A0041EA0B016D
:1008600053465A46084313D0114653EA010019D0A3
:10087000C8F140025046FFF728FF05460E46504695
:1008800059464246FFF712FF084305D0012004E015
:1008900020463946BDE8F08D0020054346EAE07663
:1008A0002C4337430A986305E40AA0EB08000022B2
:1008B000FD0A44EA47540A3002D500200146E9E720
:1008C000010510196941DDE9084500196941BDE8D4
:1008D000F04DA2E7C1F30A52C1F3130140F2FF3316
:1008E00041F480119A4202DA00200146704740F23A
:1008F00033439A42A2F2334202DC5242FFF7E5BE92
:10090000FFF7D4BE002801DBC0F10040002901DB65
:10091000C1F10041814202D24FF0004004E04FF0AB
:10092000005001D14FF0C0404FEA2062EFF3008148
:1009300062F31F6181F3008870470000064C074D89
:1009400006E0E06840F0010394E80700984710349F
:10095000AC42F6D3FFF72EFC689700088897000892
:10096000C0B24FF4F05100F0FDB900002DE9FF4F87
:10097000087883B09946FF2805D0491C2D2804D05B
:100980000024002008E000200BE00124F9E700EB40
:10099000800003EB4000491C0B78FF2BF7D104B11A
:1009A000404200230293147819461D462D2C01D095
:1009B0002B2C04D1521C2D2C13D000240294AA46B7
:1009C0001478FF2C0FD00A25A3FB057801FB0581C5
:1009D0004FF0000C03FB0C11521CE3194AEB010110
:1009E000EEE70124EAE7814453EA010002D019F559
:1009F000C87F06DA03980021C0E9001107B0BDE8FE
:100A0000F08F0025AE4E2F46DFF8B882184600F072
:100A1000BDF9CDE90001B9F1000002DAC9F1000425
:100A200000E004460023A74A1AEB030B42EB045AEA
:100A300012E0E00707D02A46334638464146FFF722
:100A4000E6FC074688462A46334610461946FFF715
:100A5000DEFC05460E466410002CEAD1DDE90001FB
:100A6000B9F1000F5A46534606DAFFF742FD3A46FF
:100A70004346FFF73EFD05E0FFF7C9FC3A46434613
:100A8000FFF7C5FC029A0AB181F00041039AC2E95E
:100A90000001B3E72DE9FF4F1F468DB0D7E90146AE
:100AA0004FF0FF382E2045464FF000090B90B969F2
:100AB0006D1C0E988847396A824688470028F6D10F
:100AC000BAF1FF3F0AD024F4D064002E11DDBAF150
:100AD0002B0F08D0BAF12D0F0BD102E0404611B018
:100AE0008DE744F48064B9696D1C0E98884782468E
:100AF000761E6946600501D52D2000E02B208DF87B
:100B0000000001F1010B0DF1200809E0B9696D1C2D
:100B10000E98884782460F9844F40074761E05604C
:100B2000002E02DDBAF1300FF0D00B998A453ED18C
:100B300044F0800406E00F99681CA9F1010944F40F
:100B400000740860B9696D1C761E0E98884782464D
:100B50003028F0D02BE00B998A4505D1200603D42C
:100B600044F08004761E18E0504607F06BFE08B390
:100B70000DF11301761E44F400748B4508D2AAF1DE
:100B800030000BF8010B200607D5A9F1010003E0A6
:100B9000200602D409F101008146A00502D50F9973
:100BA000681C0860B9696D1C0E9888478246002E43
:100BB000D1DC53E0002E51DDBAF1650F02D0BAF15D
:100BC000450F4BD1A00549D5B9696D1C24F440747B
:100BD000761E0E9888478246002E0CDD2B2804D006
:100BE000BAF12D0F07D144F48074B9696D1C0E98C9
:100BF00088478246761EE00501D52D2100E02B2195
:100C000008F8011BCDF82C8021E00DF12901761E9A
:100C100044F4007488450CD2AAF1300010F0FF00B3
:100C200088F8000002D10B99884509D908F101081C
:100C300006E0E00501D5244801E042F20F7081464C
:100C4000B9696D1C0E98884782460F980560002E82
:100C500004DD504607F0F6FD0028D6D1F9690E985C
:100C60008847FF208BF8000088F8000000200690DD
:100C700007904B466A4608A906A8FFF777FEA0052D
:100C800002D46FF001002AE714F0240F0AD0E00725
:100C900014D1DDE906123868031D3B600068C0E925
:100CA00000120BE0DDE90601FFF7CEFC0146E0078C
:100CB00004D13868021D3A600068016028460EE7DA
:100CC000000014400000F03FF1D8FFFF426842B13D
:100CD000016811F8013B23B1521EC0E90012184609
:100CE00070470121C160881E704742685AB1C368CD
:100CF000016843B983688B4205D0491E521CC0E984
:100D00000012002070474FF0FF3070470EB540F2E0
:100D1000334102910021CDE900110A460B46FFF74D
:100D20008BFD03B000BD70B5C1F30A5201F0004560
:100D30000024C1F3130140F2FF3341F480119A42C1
:100D400001DA002070BD40F233439A42A2F23342EE
:100D500003DC5242FFF7B9FC00E090402C43F1D095
:100D6000404270BD7F2801D9002208E0064A02EB0C
:100D70005002C007127800D1120902F00F020120C0
:100D80009040084070470000289700080EB540F2D8
:100D9000334202920022CDE900221346FFF74CFDB8
:100DA00003B000BD10B500224FF48071124803F06B
:100DB000BBFB00F00DF901F0EBFD00F05AF902F079
:100DC000F5F805F005FE06F093FD01F029FD00F0B1
:100DD000E3F800F0D9F805F02DFD00F013FC05F064
:100DE00069FA06F083FC05F0DDF941F2941103483D
:100DF00005F0B6FD10BD0000001802409C0B00205D
:100E000010B50A4800F02DF900B910BD0848008857
:100E1000401C0749088006F029FE05F013FD00F08C
:100E20004DFE06F079FC00BFEFE7000069000020EE
:100E30000400002070B505460C4600260DB1022CBA
:100E400000D870BDA11E06480288284602F0A6FA06
:100E50000646A01E2E54310A601E295400BFF0E73A
:100E6000B400002030B52DED068B81B00446B0EE05
:100E7000408AF0EE608A9FED430A10EE105A9FED13
:100E8000410AF0EE409A94ED000A38EE400AB0EEC6
:100E900040AA94ED000AB4EEC80AF1EE10FA12D29C
:100EA00094ED000AB5EEC00AF1EE10FA02DB94ED03
:100EB000010A01E094ED020AF0EE409AB7EE000A52
:100EC00010EE105A18E094ED000AB4EEC80AF1EEE4
:100ED00010FA11DD94ED000AB5EEC00AF1EE10FA39
:100EE00002DD94ED020A01E094ED010AF0EE409A71
:100EF000BFEE000A10EE105AB0EECA0AF0EE40AA99
:100F000029EEA80AF0EE400AB0EE6A0A06F01EFFCB
:100F10008DED000A2946009860F31E0100919DEDB9
:100F2000009A00BF94ED000A30EE090A84ED000A31
:100F300094ED000AD4ED030AF1EE600AB4EEE00A83
:100F4000F1EE10FA04D294ED030AB1EE400A0DE07E
:100F500094ED000AD4ED030AB4EEE00AF1EE10FAC3
:100F600002DD94ED030A01E094ED000A84ED000A2D
:100F700094ED000A84ED040A94ED040A01B0BDEC7E
:100F8000068B30BD0000000010B5024804F054F894
:100F900010BD00004401002010B50F220849094887
:100FA00004F096FD64220849064804F06EF90748EB
:100FB0000068006820F0080004490968086010BD56
:100FC0009200002064020020AE0B00208C04002060
:100FD00010B5074802F00BFF0221054802F00AFA9B
:100FE000044802F004FF1021024802F003FA10BD89
:100FF000F40000201C01002010B58AB00446207ABD
:1010000005900020069001200790608800902088BD
:101010000190E0880290A0880390D4F80E0004901C
:10102000607A0990D4F812000890D4F80A00694652
:1010300002F09AFA0AB010BD00BFFEE710B50248F0
:1010400002F0EFFB10BD0000F400002010B50248D4
:1010500002F0E7FB10BD00001C0100200146C8683B
:10106000704701464888002801DD012070470020B4
:10107000FCE710B500F01EF810BD00002DE9F041AE
:1010800004460D4616460027288887B2B4F90A00A0
:10109000B8420AD12A69E0683146FFF7D4F86420E3
:1010A000034948800020BDE8F0810120FBE70000F3
:1010B0006900002000B587B04FF44071BDF806000C
:1010C00061F34F10ADF806000021019861F3D400E0
:1010D00001909DF8040020F004008DF804009DF8B4
:1010E000040020F002008DF8040040F2FF71BDF80A
:1010F0000A0061F34F10ADF80A004FF6FF71029835
:1011000061F3D40002909DF8080020F00400001D57
:101110008DF808009DF8080020F00200801C8DF872
:10112000080002208DF80C000E208DF80D000748F5
:10113000CDF80E000020CDF812000120CDF81600E9
:1011400001A8FFF759FF07B000BD0000F400002020
:10115000F0B587B004460D4616460027B4F90800DE
:101160000190002003900490059660686B462A4623
:1011700001A902F054F9074607B0F0BD04484088C1
:10118000002804DD02484088401E0149488070471D
:101190006900002000487047F20A0020F8B50446B4
:1011A0000E46002000900025A078E17800EB012099
:1011B00085B204222146684607F094FF2A46A11D05
:1011C000684607F08FFF09488088BDF80010884204
:1011D00000D0F8BD522221460548FFF734F86420BC
:1011E0000349891FA1F8030000BFF2E7F20A0020BB
:1011F0004A0B002010B552220649074804F045F872
:1012000006480068006820F0080004490968086082
:1012100010BD0000F20A0020640200208C040020AF
:1012200070B504460D4629462046FFF7B7FFFFF785
:10123000E1FF70BD0C48B0F80100002806DD0A4847
:10124000B0F80100401E0849A1F801000648B0F8B6
:101250000300002806DD0448B0F80300401E0249E0
:10126000A1F8030070470000440B002070B52DED7D
:10127000028B05460E4600249FED130AB0EE408A0D
:1012800000BF17E005EB8400D0ED000AB0EE600A65
:1012900004F068FC00EE100AF8EE400A05EB84004A
:1012A00090ED001AB0EE480A01EE200AB0EE408A36
:1012B000601CC4B2B442E5DB9FED040A28EE000ACC
:1012C000BDEC028B70BD000000000000CDCC4C3F97
:1012D000F0EE400A9FED030A9FED031A01EE200A8B
:1012E000704700000AD7ED4370B122BC024880ED80
:1012F000560AC0ED5C0A70474C0500208D48D0F8B6
:101300000E00B0F9180001EE900AF8EEE11AB7EEFF
:10131000002A61EE821ADFED882A81EEA22A854832
:10132000D0F80E00B0F9380001EE900AF8EEE11A9C
:10133000F7EE002A61EEA21ADFED7F2A81EEA23AD3
:1013400032EE032A7B48D0F80E00B0F9580001EEC7
:10135000900AF8EEE11AF7EE002A61EEA21ADFED2C
:10136000762A81EEA23A32EE432A7248D0F80E0075
:10137000B0F9780001EE900AF8EEE11AF7EE002AD3
:1013800061EEA21ADFED6C2A81EEA23A72EE431AE8
:101390009FED692A61EE821A9FED682A61EE821A3A
:1013A0009FED672A61EE821AB0EE610A6148D0F8BB
:1013B0000E00B0F9180001EE900AF8EEE11AB7EE4F
:1013C000002A61EE821ADFED5C2A81EEA22A5948DA
:1013D000D0F80E00B0F9380001EE900AF8EEE11AEC
:1013E000F7EE002A61EEA21ADFED532A81EEA23A4F
:1013F00032EE432A4F48D0F80E00B0F9580001EE03
:10140000900AF8EEE11AF7EE002A61EEA21ADFED7B
:101410004A2A81EEA23A32EE432A4648D0F80E001C
:10142000B0F9780001EE900AF8EEE11AF7EE002A22
:1014300061EEA21ADFED402A81EEA23A72EE031AA3
:101440009FED3D2A61EE821A9FED3C2A61EE821AE1
:101450009FED3B2A61EE821AF0EE610A3548D0F822
:101460000E00B0F9180001EE900AF8EEE11AB7EE9E
:10147000002A61EE821ADFED302A81EEA22A2D4881
:10148000D0F80E00B0F9380001EE900AF8EEE11A3B
:10149000F7EE002A61EEA21ADFED272A81EEA23ACA
:1014A00032EE032A2348D0F80E00B0F9580001EEBE
:1014B000900AF8EEE11AF7EE002A61EEA21ADFEDCB
:1014C0001E2A81EEA23A32EE032A1A48D0F80E0004
:1014D000B0F9780001EE900AF8EEE11AF7EE002A72
:1014E00061EEA21ADFED142A81EEA23A72EE031A1F
:1014F0009FED112A21EE822ADFED122AC2EE221A76
:10150000DFED112A81EEA22ADFED0C1A62EE211A1C
:101510009FED0E2A61EE821AB0EE611A0C4880ED42
:10152000680AC0ED690ADFED0B1A61EE211AC0ED01
:101530006A1A70472C00002000A00C465077D63D58
:10154000D053FB420070604500003B43FAD3B73EE6
:101550004C0500200050C34710B52DED048B2448E6
:1015600090ED5C0A10EE101A0846FFF742F841ECC5
:10157000190BB0EE490AF0EE690A06F0DDFBB0EE99
:10158000408AF0EE608A9FED1B0B53EC102B51EC60
:10159000180BFFF741F81CD3154890ED560A10EED2
:1015A000101A0846FFF725F841EC190BB0EE490A6E
:1015B000F0EE690A06F0C0FBB0EE408AF0EE608AF9
:1015C0009FED0C0B53EC102B51EC180BFFF724F88C
:1015D00005D29FED0A0A064880ED440A04E09FED1B
:1015E000080A034880ED440ABDEC048B10BD0000DE
:1015F0004C05002000000040E17A843F6F12833ADE
:10160000CDCC4C3D10B500206849088048800120B1
:1016100081F8AD01022081F8AC019FED650A084612
:1016200080ED020A0C3004F0DDFDF7EE002A9FED9C
:10163000612ADFED611A9FED611ADFED610AB0EEFC
:10164000020A5A480C3004F0FBFD9FED590A574836
:1016500080ED120A4C3004F0C5FDF7EE002A9FED34
:10166000552ADFED551A9FED551ADFED550AB0EEFC
:10167000020A4E484C3004F0E3FD9FED4D0A4B4802
:1016800080ED220A8C3004F0ADFDF7EE002A9FEDCC
:10169000492ADFED491A9FED491ADFED490AB0EEFC
:1016A000020A42488C3004F0CBFD9FED410A3F48CE
:1016B00080ED320ACC3004F095FDF7EE002A9FED64
:1016C0003D2ADFED3D1A9FED3D1ADFED3D0AB0EEFC
:1016D000020A3648CC3004F0B3FD9FED350A33489A
:1016E00080ED420A00F5867004F07CFDDFED352ABE
:1016F0009FED352ADFED351A9FED2D1ADFED2C0A0F
:101700009FED330A334804F09BFDDFED290A9FED7E
:10171000320A3048BC3004F00AFB2E48DC3004F0BA
:1017200061FDDFED2E2A9FED2E2ADFED281A9FEDB9
:10173000201ADFED1F0ABFEE000A2648DC3004F055
:101740007FFDB7EE001AF3EE0E0AB0EE000A214854
:10175000503005F094F8B7EE001AF3EE0E0AB0EE32
:10176000000A1C48683005F08AF89FED1E1ADFED6C
:101770001D0A9FED1D0A1748803005F080F89FED87
:101780001B0A0A4880ED790AB3EE0E0A80ED760A4C
:101790009FED160A80ED8A0AB3EE040A80ED770AFF
:1017A000B7EE000A80ED710A10BD00004C05002064
:1017B000000000006F12833A3333B33ECDCCCC3EF1
:1017C0008FC2753D959EEB43CDCC4C3D8FC2F53C11
:1017D0000000B44358060020CDCCCC3D0000F042C0
:1017E0000AD7233C62141D4462149D430000484202
:1017F00010B512480088002804DD10480088401EFB
:101800000E4908800E4890F83B000E4981F82402EA
:101810000D48008878B942F2107421460B4805F053
:101820009FF8142005490880064890F824020549CD
:1018300081F8250200BF00BF10BD00001800002085
:10184000201100204C0500201A0000209C0B0020D5
:1018500010B52DED028B8048D0F80E00B0F91800BD
:1018600000EE100AB8EEC00AF7EE000A20EE200AD9
:10187000DFED7A0A80EE201A9FED790A21EE000A48
:10188000F0EE408A7448D0F80E00D0F81A0000EE4E
:10189000100AB3EE041A20EE010AF0EE400AB0EE90
:1018A000680A04F033FC6F4880ED6C0A6A48D0F88F
:1018B0000E00B0F9380000EE100AB8EEC00AF7EEDC
:1018C000000A20EE200ADFED650A80EE201A9FED67
:1018D000640A21EE000AF0EE408A5F48D0F80E005C
:1018E000D0F83A0000EE100AB3EE041A20EE010A16
:1018F000F0EE400AB0EE680A04F008FC594880EDAA
:101900006D0A5548D0F80E00B0F9580000EE100AE4
:10191000B8EEC00AF7EE000A60EE200A9FED4F1AFB
:1019200080EE810ADFED4E0A20EE200AF0EE408ABA
:101930004948D0F80E00D0F85A0000EE100AB3EE75
:10194000041A20EE010AF0EE400AB0EE680A04F034
:10195000DDFB444880ED6E0A3F48D0F80E00B0F938
:10196000780000EE100AB8EEC00AF7EE000A60EE4A
:10197000200A9FED3A1A80EE810ADFED390A20EE47
:10198000200AF0EE408A3448D0F80E00D0F87A00F1
:1019900000EE100AB3EE041A20EE010AF0EE400A3F
:1019A000B0EE680A04F0B2FB2E4880ED6F0A042105
:1019B00000F5D870FFF75AFC2A4880ED700A9FEDB9
:1019C0002A0A80ED8A0A2948B0F84F0000EE100A72
:1019D000B8EE400A234880ED780A90ED790AD0ED00
:1019E000780A30EE600A80ED7A0AD0ED7A0AB0EE1D
:1019F000600A00F5F47007F0BBFB1A4880ED830A1B
:101A000090ED8A0AD0ED830A70EE200A90F8D40196
:101A1000012803D1134890ED770A01E09FED140AE5
:101A200030EE800A0F4880ED8B0A90ED701AF0EED0
:101A3000410A90ED8B1AB0EE410A04F023FCB0EE9F
:101A4000408AB0EE480A0B4804F058F9054880ED8A
:101A5000710ABDEC028B10BD2C00002000A00C46CA
:101A6000949E6B444C0500200000C84220110020C9
:101A70000000000014070020012804D0022807D02D
:101A800003280FD109E00121084A82F8AC110AE0CD
:101A90000321064A82F8AC1105E00221034A82F8CC
:101AA000AC1100E000BF00BF704700004C050020F3
:101AB000014981F8D40170474C05002010B52DED87
:101AC000108BFE48408810B1BDEC108B10BDFB4858
:101AD000008820B1012817D002287DD138E040F2DB
:101AE000F510F6494880012008800121F34880F86C
:101AF000441080F8841080F8C41080F8041180F835
:101B0000441180F82012FDE34FF4FA70EB4948804D
:101B1000EB48D0F821004068EA490860E848D0F86E
:101B20002100406800EE100A0846D0ED000A30EEB1
:101B3000600AF9EE0C0A20EE200AF2EE0A0A80EEA4
:101B4000201ADE4880ED421A0220DC490880D9E3E1
:101B5000FFF702FDDA48D0F82100406800EE100AD5
:101B6000D848D0ED000A30EE600AF9EE0C0A20EEFB
:101B7000200AF2EE0A0A80EE201AB0EE413AB0EEE8
:101B8000430A07F003FACD4880ED420ACC48D0F86A
:101B90002100406800EE100ACA48D0ED000A30EE7D
:101BA000600AF9EE0C0A20EE200AF2EE0A0A80EE34
:101BB000201AC24890ED420A30EE410A80ED430AF5
:101BC000D0ED430AB0EE600A00F5867007F0D0FA57
:101BD000BA4880ED4C0A00E0FDE390F8AD01012821
:101BE00006D0022815D0032823D004287ED139E05E
:101BF000B24890F8AC01032804D10220AF4981F823
:101C0000AD0105E0AD4890ED4C0AAF4880ED000A0B
:101C100083E0AA4890F8AC01022804D10320A74928
:101C200081F8AD0104E09FEDA90AA74880ED000A04
:101C300073E09FEDA70AA44880ED000ADFEDA52A16
:101C40009FEDA52ADFEDA51A9FEDA11ADFEDA00AF1
:101C50009FEDA30AA34804F0F3FA0420974981F802
:101C6000AD015AE0954890ED4C0A974880ED000A86
:101C70009348D0F82100406800EE100A9148D0ED5A
:101C8000000A30EE600AF9EE0C0A60EE200AB2EEAD
:101C90000A1A80EE810A8948D0ED420A30EEC00A65
:101CA000DFED910AB4EEE00AF1EE10FA33D2844887
:101CB000D0F82100406800EE100A8248D0ED000AFA
:101CC00030EE600AF9EE0C0A20EE200AF2EE0A0A63
:101CD00080EE201A794890ED420A30EE410ADFED9D
:101CE000830AB4EEE00AF1EE10FA00E014E012DD2F
:101CF000DFED7F2A9FED782ADFED781A9FED741AC9
:101D0000DFED730A9FED760A764804F099FA012018
:101D10006A4981F8AD0100E000BF00BF674890F854
:101D2000AC01012805D16648D0F82100406865491A
:101D300008606248D0ED560AB0EE600ADFED6D0A29
:101D400000F5AE70FFF78EF85C4880ED5B0AD0EDD1
:101D50005C0AB0EE600ADFED670A00F5BA70FFF7C3
:101D600081F8564880ED610ADFED620A564890ED31
:101D7000000A5C488030FFF775F8504880ED670A2C
:101D800090ED630ADFED5C0A20EE200A9FED5B1AFE
:101D9000C0EE010A9FED5A0A20EE800A9FED591A03
:101DA000C0EE010A9FED580A20EE800ADFED570AC7
:101DB00080EE201A11EE104A2046FEF71AFC41EC84
:101DC000190B3F48D0F82100406800EE100A3D484A
:101DD000D0ED000A30EE600AF9EE0C0A60EE200A3F
:101DE000B2EE0A1A80EE810AF0EE000A60EE200AD6
:101DF0009FED471A9FED470A00EEC10A10EE104A08
:101E00002046FEF7F6FB41EC1F0BB0EE4F0AF0EE5A
:101E10006F0A05F02DFFB0EE40DAF0EE60DA2748E9
:101E200090ED5D0A10EE101A0846FEF7E2FB41EC59
:101E30001E0B53EC1D2BFEF7EAFA41EC1B0B20485E
:101E4000D0F82100406800EE100A1E48D0ED000ACC
:101E500030EE600AF9EE0C0A60EE200AB2EE0A1AC1
:101E600080EE810AF0EE000A60EE200A9FED281A4B
:101E70009FED280A00EEC10A10EE104A2046FEF738
:101E8000B8FB41EC1F0BB0EE4F0AF0EE6F0A05F005
:101E900083FFB0EE40DAF0EE60DA084890ED570AC2
:101EA00010EE101A0846FEF7A4FB41EC1E0B53EC93
:101EB0001D2BFEF7ACFA41EC1C0B2DE04C0500206D
:101EC0002C000020100000200C000020D053FB420A
:101ED0000000000068F283428FC2753C8FC2F53C5F
:101EE0000040AF43580600200AD7233D0AD723BD40
:101EF000959EEB43A69BC43B0000A0420000AF436D
:101F00000070604500003B43EBC9184100A00C463F
:101F1000DA0F4940DA0F493F53EC1B2BFEF7D0F99B
:101F200041EC1A0B53EC192BFEF7CAF941EC180BD4
:101F3000FEF78AFBFE498860084690ED630A5FED74
:101F4000120A20EE200A1FED131AC0EE010A1FED3F
:101F5000140A60EE800A1FED151A80EE810A5FED0B
:101F6000160A20EE200A5FED170A80EE201A11EE05
:101F7000104A2046FEF73DFB41EC190BED48D0F826
:101F80002100406800EE100AEB48D0ED000A30EE68
:101F9000600AF9EE0C0A60EE200AB2EE0A1A80EE30
:101FA000810AF0EE000A60EE200A1FED271A1FEDED
:101FB000270A00EEC10A10EE104A2046FEF719FB70
:101FC00041EC1F0BB0EE4F0AF0EE6F0A05F0E4FE95
:101FD000B0EE40DAF0EE60DAD54890ED5D0A10EE32
:101FE000101A0846FEF705FB41EC1E0B53EC1D2BA7
:101FF000FEF70DFA41EC1B0BCE48D0F821004068EB
:1020000000EE100ACC48D0ED000A30EE600AF9EE7E
:102010000C0A60EE200AB2EE0A1A80EE810AF0EE97
:10202000000A60EE200A1FED461A1FED460A00EE78
:10203000C10A10EE104A2046FEF7DBFA41EC1F0BF6
:10204000B0EE4F0AF0EE6F0A05F012FEB0EE40DA85
:10205000F0EE60DAB64890ED570A10EE101A084616
:10206000FEF7C7FA41EC1E0B53EC1D2BFEF7CFF920
:1020700041EC1C0B53EC1B2BFEF7C3F941EC1A0B84
:1020800053EC192BFEF71CF941EC180BFEF7DCFAA8
:10209000A7498864084690ED630A5FED690A20EE5F
:1020A000200A1FED6A1AC0EE010A1FED6B0A20EE2E
:1020B000800A1FED6C1AC0EE010A1FED6D0A20EEBA
:1020C000800A5FED6E0A80EE201A11EE104A20465B
:1020D000FEF78FFA41EC190B9648D0F821004068C2
:1020E00000EE100A9448D0ED000A30EE600AF9EED6
:1020F0000C0A60EE200AB2EE0A1A80EE810AF0EEB7
:10210000000A60EE200A1FED7E1A1FED7E0A00EE27
:10211000C10A10EE104A2046FEF76BFA41EC1F0B85
:10212000B0EE4F0AF0EE6F0A05F0A2FDB0EE40DA15
:10213000F0EE60DA7E4890ED5D0A10EE101A084667
:10214000FEF757FA41EC1E0B53EC1D2BFEF75FF91F
:1021500041EC1B0B7748D0F82100406800EE100AD4
:102160007548D0ED000A30EE600AF9EE0C0A20EE58
:10217000200AF2EE0A0A80EE201AB0EE000A61EEA2
:10218000000A1FED9D1A1FED9D0A00EEC10A10EE18
:10219000104A2046FEF72DFA41EC1F0BB0EE4F0A15
:1021A000F0EE6F0A05F0F8FDB0EE40DAF0EE60DA1E
:1021B0005F4890ED570AB1EE400A10EE101A08463B
:1021C000FEF717FA41EC1E0B53EC1D2BFEF71FF91F
:1021D00041EC1C0B53EC1B2BFEF713F941EC1A0BD3
:1021E00053EC192BFEF76CF841EC180BFEF72CFAA8
:1021F0004F49C1F88800084690ED630A5FEDC20AB6
:1022000020EE200A5FEDC30A80EE201A1FEDC40AFB
:1022100061EE000A1FEDC51A80EE810A5FEDC60A65
:1022200020EE200A5FEDC70A80EE201A11EE104A58
:102230002046FEF7DEF941EC190B3E48D0F82100AC
:10224000406800EE100A3C48D0ED000A30EE600A0B
:10225000F9EE0C0A60EE200AB2EE0A1A80EE810A4C
:10226000F0EE000A60EE200A1FEDD71A1FEDD70A24
:1022700000EEC10A10EE104A2046FEF7BAF941EC12
:102280001F0BB0EE4F0AF0EE6F0A05F085FDB0EEC1
:1022900040DAF0EE60DA264890ED5D0A10EE101A92
:1022A0000846FEF7A6F941EC1E0B53EC1D2BFEF77A
:1022B000AEF841EC1B0B1F48D0F82100406800EE3F
:1022C000100A1D48D0ED000A30EE600AF9EE0C0A43
:1022D00060EE200AB2EE0A1A80EE810AF0EE000AE1
:1022E00060EE200A1FEDF61A1FEDF60A00EEC10A95
:1022F00010EE104A2046FEF77CF941EC1F0BB0EEC1
:102300004F0A00E01AE1F0EE6F0A05F0B1FCB0EE02
:1023100040DAF0EE60DA064890ED570AB1EE400A76
:1023200010EE101A0846FEF764F941EC1E0B05E0AA
:102330004C0500202C0000201000002053EC1D2B29
:10234000FEF765F841EC1C0B53EC1B2BFDF7B8FFB7
:1023500041EC1A0B53EC192BFDF7B2FF41EC180BB3
:10236000FEF772F97749C1F8C800FFF741FAFFF7A5
:102370006FFA7548D0F80E00B0F9180000EE100A98
:10238000B8EEC00AF7EE000A60EE200A9FED6F1A61
:1023900080EE810A6B48D0ED020A90ED711A10EEC2
:1023A000810A80ED030AD0ED030AB0EE600A0C301A
:1023B00006F0DEFE634880ED0C0A6348D0F80E009C
:1023C000B0F9380000EE100AB8EEC00AF7EE000AC5
:1023D00060EE200A00E0B0E09FED5C1A80EE810A1A
:1023E0005848D0ED120A90ED711A10EE810A80ED76
:1023F000130AD0ED130AB0EE600A4C3006F0B8FEB6
:10240000504880ED1C0A5048D0F80E00B0F9580032
:1024100000EE100AB8EEC00AF7EE000A60EE200ADD
:102420009FED4A1A80EE810A4648D0ED220A90EDCF
:10243000711A10EE810A80ED230AD0ED230AB0EE66
:10244000600A8C3006F094FE3E4880ED2C0A3E482F
:10245000D0F80E00B0F9780000EE100AB8EEC00A0D
:10246000F7EE000A60EE200A9FED381A80EE810A2E
:102470003448D0ED320A90ED711A10EE810A80EDE9
:10248000330AD0ED330AB0EE600ACC3006F070FEAD
:102490002C4880ED3C0A90ED3C2AF0EE421A90ED7B
:1024A0002C2AB0EE421A90ED1C2AF0EE420A90ED72
:1024B0000C2AB0EE420A0021084600F055FB2448E1
:1024C00090ED000A1F4880ED620AFEF717FF1D48D5
:1024D000D0ED6C0AB0EE600A002005F041FB19480F
:1024E000D0ED6D0AB0EE600A012005F039FB154809
:1024F000D0ED6E0AB0EE600A022005F031FB114803
:10250000D0ED6F0AB0EE600A032005F029FB0D48FC
:10251000D0ED710AB0EE600A042005F021FB0948F5
:10252000D0ED700AB0EE600A052005F019FB05F049
:102530002FFB06200349488000E000BF00BF00BF1A
:10254000FFF7C2BA4C0500202C00002000A00C466A
:102550000C00002010B514484088002804DD124803
:102560004088401E104948800F4801790079401E7C
:102570000D4A107139B9FA201146087101228021E3
:102580000A4801F0D1FF084841794079401E064AC7
:10259000507139B9FA2011464871012220210348AF
:1025A00001F0C2FF10BD00004C05002000180240E1
:1025B00070B52DED0A8B04460D4614B9BDEC0A8B9F
:1025C00070BD122D00D0F9E72078617840EA012033
:1025D000C0F30A00874908806078C010A17840EAFB
:1025E0004110C0F30A0083494880A0788011E17847
:1025F00040EA8100217940EA8120C0F30A007D4948
:10260000888020794010617940EAC110C0F30A0047
:102610007849C880207C617C40EA012075490881A6
:1026200060790011800888726079C0F30110C87267
:102630000988A1F5B670FDF7CBFF41EC1C0B9FEDAF
:102640006E0B53EC102BFDF7E2FE41EC1B0B9FEDE4
:102650006C0B53EC102BFDF74CFF41EC1A0B9FED6C
:102660006A0B53EC102BFDF7CCFE41EC190B9FEDE0
:10267000680B53EC102BFDF7C4FE41EC180BFDF773
:10268000E3FF5C49C8604988A1F5B670FDF7A0FF7B
:1026900041EC1B0B9FED580B53EC102BFDF7B7FED5
:1026A00041EC1A0B9FED560B53EC102BFDF721FF5D
:1026B00041EC190B9FED540B53EC102BFDF7A1FED1
:1026C00041EC180BFDF7C0FF4A4908618988A1F564
:1026D000B670FDF77DFF41EC1B0B9FED470B53ECF4
:1026E000102BFDF794FE41EC1A0B9FED450B53ECBC
:1026F000102BFDF7FEFE41EC190B9FED430B53EC45
:10270000102BFDF77EFE41EC180BFDF79DFF3949BC
:102710004861C988A1F5B670FDF75AFF41EC1B0B63
:102720009FED350B53EC102BFDF771FE41EC1A0BAE
:102730009FED330B53EC102BFDF7DBFE41EC190B37
:102740009FED310B53EC102BFDF75BFE41EC180BAA
:10275000FDF77AFF274988610989A1F5B670FDF771
:1027600037FF41EC1B0B9FED240B53EC102BFDF7B7
:102770004EFE41EC180B9FED220B53EC102BFDF796
:10278000B8FE41EC1A0B9FED200B53EC102BFDF71C
:1027900038FE41EC190BFDF757FF1649C861084692
:1027A000817A80F82010C17A80F82110A079E1792F
:1027B00040EA012000B20F494884207A617A40EA59
:1027C000012001B20B488184A07AE17A40EA01201D
:1027D00001B20848C184217B80F82810617B80F811
:1027E0002910A07BE17B40EA01200249488500BF17
:1027F000E4E6000010080020000000000000004097
:102800000000000000A09440000000000000F03F25
:102810000000004099B8A53F00487047EC07002031
:1028200010B524220649074802F02FFD064800682B
:10283000006820F0080004490968086010BD000025
:10284000EC070020D40100206C030020704700003A
:10285000F0EE401AB0EE602A32EE410AF0EE400A85
:102860008168C16011EE901A8160C16800EE101A93
:10287000816802EE901A30EE620ADFED1E2A70EED9
:10288000E22AB4EEE20AF1EE10FA08DD416800EE49
:10289000101A30EE200A10EE101A41601AE0C168DA
:1028A00000EE101A816802EE901A30EE620ADFED37
:1028B000112A70EEE22AF1EE622AB4EEE20AF1EE9B
:1028C00010FA07D2416800EE101A30EE600A10EEDE
:1028D000101A4160416800EE101A816802EE901AE9
:1028E00030EE220A10EE101A0160016800EE101A94
:1028F00070470000CDCC4C3E2DE9F04704460E4613
:10290000174600BF002500BF30881FFA80F804EB8F
:10291000440000EB04101C49084490F8129004EBAA
:10292000440000EB04100844B0F90C00404502DB01
:102930000120BDE8F08704EB440000EB04101249CD
:1029400008448089401CA8EB000085B2681C4845FB
:1029500001DD0120EDE724B9002280210B4801F0C0
:10296000E3FD012004EB440101EB0411064A11448C
:10297000D1F80E1001EB4511C877EAB2214638466E
:1029800000F030F90020D4E72C00002000180240AD
:1029900010B5FFF75BFF00F007F8024803F022FCD8
:1029A00010BD00000009002000B587B04FF4017190
:1029B000BDF8060061F34F10ADF806000021019844
:1029C00061F3D40001909DF8040020F004008DF81C
:1029D00004009DF8040020F002008DF804004FF47C
:1029E000FE61BDF80A0061F34F10ADF80A004FF622
:1029F000FF71029861F3D40002909DF8080020F066
:102A00000400001D8DF808009DF8080020F0020069
:102A1000801C8DF8080000208DF80C000E208DF829
:102A20000D002948CDF80E000020CDF8120001203D
:102A3000CDF8160001A8FEF7DFFA4FF40071BDF8DB
:102A4000060061F34F10ADF806000021019861F314
:102A5000D40001909DF8040020F004008DF80400DB
:102A60009DF8040020F002008DF804004FF4FE6190
:102A7000BDF80A0061F34F10ADF80A004FF6FF7180
:102A8000029861F3D40002909DF8080020F0040041
:102A9000001D8DF808009DF8080020F00200801C41
:102AA0008DF808000E208DF80C008DF80D000748F9
:102AB000CDF80E000120CDF81200CDF8160001A8C7
:102AC000FEF79AFA07B000BDF40000201C010020B8
:102AD0002DE9F04389B004460F4615461E46DDE950
:102AE000108904EB440000EB04101D490844083031
:102AF00000EB4700B0F9000003900020059006901D
:102B000008200790280A8DF80000E8B28DF801002F
:102B1000300A8DF80200F0B28DF803004FEA182059
:102B20008DF8040008F0FF008DF805004FEA192029
:102B30008DF8060009F0FF008DF8070004EB440152
:102B400001EB0411064A1144486802AB6A4603A926
:102B500000F065FC0349087009B0BDE8F08300008F
:102B60002C000020600000202DE9F0432DED048BA7
:102B700083B004460D46B0EE408AF0EE608AB0EEB7
:102B8000419AF0EE619A9FED160A28EE000ABDEE1A
:102B9000C00A10EE106A9FED120A28EE800ABDEE00
:102BA000C00A10EE107A9FED0E0A29EE000ABDEE63
:102BB000C00A10EE108A9FED0A0A29EE800ABDEEC7
:102BC000C00A10EE109A3B46324629462046CDE90F
:102BD0000089FFF77DFF03B0BDEC048BBDE8F083F7
:102BE0000000804670B503460C4600BF00BF00BF22
:102BF0005878197840EA012003EE100AD8789978BD
:102C000040EA012005B25879197940EA012000B262
:102C100003EE900A987904EB440101EB04112C4E69
:102C20003144D1F80E1001EB42118877B0EE430A1F
:102C3000F8EE400A9FED271A80EE810A10EE100A86
:102C400004EB440101EB04113144D1F80E1001EB07
:102C50004211086004EB440000EB041031460844C4
:102C6000D0F80E0000EB42100583B0EE630AF8EED8
:102C7000C00A9FED191A80EE810A10EE100A04EBCB
:102C8000440101EB04113144D1F80E1001EB421163
:102C9000C1F81A0004EB440101EB04113144D1F8EE
:102CA0000E1001EB4211096800EE101A04EB44010A
:102CB00001EB04113144D1F80E1001EB4211081D53
:102CC0009FED061AF7EE000AFFF7C2FD70BD000087
:102CD0002C00002000F8FF450000804600000000A6
:102CE000002000BF18E000EB400101EB00110C4A8E
:102CF0001144498800290DDD00EB400101EB001172
:102D000011444988491E00EB400202EB0012044BBB
:102D10001A445180411CC8B20228E4DB704700000D
:102D20002C00002010B5024801F002F910BD00008F
:102D30000C03002010B5024801F0FAF810BD0000A5
:102D4000CC03002010B5024801F0F2F810BD0000DD
:102D50002C04002010B5024801F0EAF810BD000074
:102D6000AC02002010B5024801F0E2F810BD0000EE
:102D70008C04002010B5024801F0DAF810BD000004
:102D80006C03002010B5024801F0D2F810BD00001D
:102D9000EC0400200146087810381823B0FBF3F249
:102DA0000848805CC865032A05D908686FF30900E4
:102DB000001D886503E008686FF309008865886D69
:102DC00070470000E4920008014600208A6A8B697F
:102DD000CBB932B1012A0DD0022A03D0032A10D177
:102DE0000EE000BFCB6A03F08073B3F1807F00D1A7
:102DF000012007E0CB6AB3F1C07F00D1012001E0E0
:102E000000E000BF34E08B69B3F5005F1AD132B146
:102E1000012A07D0022A03D0032A11D10AE000BFF9
:102E200001200EE0CB6A03F08073B3F1807F00D104
:102E3000012006E0CB6AB3F1C07F00D1012000E0A1
:102E400000BF15E032B1012A05D0022A04D0032ABE
:102E50000CD103E000BF00BF012008E0CB6A03F003
:102E60008073B3F1807F00D1012000E000BF00BF7C
:102E7000704730B50468246824F4802405682C6009
:102E8000046863608468402C04D10468A26004680C
:102E9000E16003E00468A1600468E26030BD000006
:102EA000F0EE401AB0EE602A32EE410AF0EE400A2F
:102EB0008168C16011EE901A8160C16800EE101A3D
:102EC000816802EE901A30EE620ADFED1E2A70EE83
:102ED000E22AB4EEE20AF1EE10FA08DD416800EEF3
:102EE000101A30EE200A10EE101A41601AE0C16884
:102EF00000EE101A816802EE901A30EE620ADFEDE1
:102F0000112A70EEE22AF1EE622AB4EEE20AF1EE44
:102F100010FA07D2416800EE101A30EE600A10EE87
:102F2000101A4160416800EE101A816802EE901A92
:102F300030EE220A10EE101A0160016800EE101A3D
:102F400070470000CDCC4C3E2DE9FC4104460E46B6
:102F50001546002700200090019028788DF8000089
:102F600068788DF80100308887B2B4F90600B8425D
:102F700018D1BDF80000B4F90410884206D12946E2
:102F800004F12F003269FDF75EF903E0294620467F
:102F900000F068F800222021034801F0C5FA002063
:102FA000BDE8FC810120FBE70018024010B5054890
:102FB000054908601020C8801120888000F006F8BC
:102FC00010BD0000F4000020BB0A002000B587B04F
:102FD0001021BDF8060061F34F10ADF80600002186
:102FE000019861F3D40001909DF8040020F00400E2
:102FF0008DF804009DF8040020F002008DF8040014
:1030000040F2FF71BDF80A0061F34F10ADF80A00FD
:103010004FF6FF71029861F3D40002909DF808000A
:1030200020F00400001D8DF808009DF8080020F035
:103030000200801C8DF8080001208DF80C000E2085
:103040008DF80D000648CDF80E000020CDF81200D6
:103050000120CDF8160001A8FDF7CEFF07B000BD96
:10306000F400002010B503460C46207800111872B9
:10307000207800F00F015972A078617840EA0120B1
:1030800001B203F108005981E0780001217940EA9A
:10309000211103F1080099816079217901F00F0174
:1030A00040EA012103F10800D981B3F90A00102197
:1030B000DFED1A0A9FED1A0A06F0F8F8DFED190A9B
:1030C00030EE200A10EE100AC3F81200B3F90C001B
:1030D0000C21F3EE090ABBEE090A06F0E7F810EE40
:1030E000100AC3F81600B3F90E000C21F2EE040A20
:1030F000BAEE040A06F0DAF810EE100AC3F81A0065
:10310000D3F8120000EE100A9FED071ADFED070A50
:1031100003F11E00FFF7C4FE10BD0000560E49402B
:10312000560E49C0560EC94000000000DA0FC940D3
:1031300070B504460D4629462046FFF739FAFFF7D9
:103140006FFB32200149C88570BD000010080020C7
:103150000448C08D002804DD0248C08D401E01498E
:10316000C885704710080020704700000C4890F890
:103170003A00072801DD012000E00020084908701E
:10318000084690F83A00A1F801000846B0F801009E
:1031900000F58070A1F803000020A1F80500704739
:1031A000201100202DE9F0472DED028B86B08246DC
:1031B000894615469846B0EE408AB1EE0C0A38EEC4
:1031C000400AF0EE408AF5EEC08AF1EE10FA03D222
:1031D0009FED3C0AF0EE408A9FED3B0A28EE800A04
:1031E000BCEEC00A10EE107AB7F5C87F01D94FF4D3
:1031F000C877A9F1C806B3EE040AB4EEC08AF1EEAE
:1032000010FA01DD022420E0B2EE080AB4EEC08A12
:10321000F1EE10FA08DBB3EE040AB4EEC08AF1EE68
:1032200010FA01D8012410E0B2EE000AB4EEC08A10
:10323000F1EE10FA08DBB2EE080AB4EEC08AF1EE45
:1032400010FA01D2052400E005242048007860B17E
:10325000CDE90265092301221DA11E48CDE90048E0
:10326000CDE9046504F0DDF90CE0F019CDE9026563
:103270000923022216A1CDE90048CDE9040515482D
:1032800004F0CFF91148007810B100200F49087000
:103290001048816800918189ADF80410807B8DF819
:1032A00006000F220B4902A8FCF7CDFF0121504672
:1032B000DDE9022304F0CAF806B0BDEC028BBDE8DC
:1032C000F0870000000000003C3CBC41E900002009
:1032D00073633100A80C002072B600BFFEE72DE931
:1032E000F0432DED028B85B00746884691461E4679
:1032F0000025002400208DF812004A464146384639
:1033000000F031F805462DB9002005B0BDEC028B68
:10331000BDE8F083002412E0285D302802DB285D40
:10332000392805DD285D2E2802D0285D2D2803D1FF
:10333000285D01A9085500E003E0601CC4B2052C1B
:10334000EADB00BF002001A9085501A804F074FCC5
:10335000B0EE408AF0EE608A51EC180BFDF774F97C
:1033600030602819D1E72DE9F04107460C46154693
:1033700000261CB97E193046BDE8F081214638464A
:10338000FCF785FF064636B12046FCF792FF28443D
:1033900006443046F0E70020EEE7000030B5034673
:1033A00013B94FF6FF7030BD09E013F8014B82EA04
:1033B0000400C0B2054D35F8100080EA2222081E34
:1033C000A1F10101F1D11046EDE7000006940008DB
:1033D00030B5034605E013F8010B80EA0204044807
:1033E000025D081EA1F10105A9B2F4D1104630BD5D
:1033F0000593000810B5024692F82030012B01D049
:10340000022B06D1106840690843146860610020EF
:1034100010BD506A40F4802050620120F8E7F0B5FA
:1034200004460D461E4694F8207020688368A868FC
:1034300000B900E000BF012F01D0022F7DD103F0C1
:10344000806030B903F0006018B903F080500028A4
:103450007ED0C3F30161012088403060A86860B964
:10346000B5F800C0E86840EA4C5C206800F5C07020
:1034700000EB0110C0F800C00FE0D5E901C040EA40
:10348000CC00D5F80CC040EA0C00D4F800C00CF514
:10349000C07C0CEB011CCCF80000D5F810C02068F3
:1034A00000F5C07000EB0110C0F804C0287D0128B1
:1034B0000ED1206800F5C07000EB0110406840F4A8
:1034C000807C206800F5C07000EB0110C0F804C0DB
:1034D000D079000692F806C040EA0C4092F805C088
:1034E00040EA0C2092F804C040EA0C00D4F800C076
:1034F0000CF5C07C0CEB011CCCF80C00D07800065D
:1035000092F802C040EA0C4092F801C040EA0C2058
:1035100092F800C040EA0C00D4F800C00CF5C07C62
:103520000CEB011CCCF80800206800F5C07000EB23
:103530000110006840F0010C01E00FE008E0206895
:1035400000F5C07000EB0110C0F800C00020F0BD15
:10355000606A40F4001060620120F8E7606A40F49D
:10356000802060620120F2E7F0B504460A46216837
:1035700094F82050012D01D0022D7ED1424901F551
:103580000071086840F001000860086820F47C5071
:1035900008600868566A40EA06200860107D00F05E
:1035A0001F06012000FA06F3C8699843C861A1F517
:1035B0000071D069C8B9D1F80C029843C1F80C0267
:1035C000908880B2968940EA064601F510705769E6
:1035D00040F83760108880B2168940EA064601F547
:1035E0001070576900EBC7004660D069012819D1F7
:1035F000D1F80C021843C1F80C02908880B21688EA
:1036000040EA064601F51070576940F83760908926
:1036100080B2168940EA064601F51070576900EB42
:10362000C7004660906928B9D1F804029843C1F8F0
:10363000040204E0D1F804021843C1F8040210693E
:1036400028B9D1F814029843C1F8140204E0D1F863
:1036500014021843C1F81402106A012804D1D1F8E9
:103660001C021843C1F81C02D1F8000220F001002E
:10367000C1F800020020F0BDFFE7606A40F480203E
:1036800060620120F7E7000000640040704770B5F9
:10369000044694F82050012D01D0022D7DD151B95E
:1036A0002068C06800F0030080B9606A40F4001030
:1036B0006062012070BD2068006900F0030028B935
:1036C000606A40F4001060620120F3E7206800F5B2
:1036D000D87000EB0110006800F004009060906862
:1036E00040B9206800F5D87000EB01100068400D6B
:1036F000106007E0206800F5D87000EB011000684A
:10370000C0085060206800F5D87000EB0110006818
:1037100000F00200D060206800F5D87000EB0110C6
:10372000406800F00F00082802D30820106108E06C
:10373000206800F5D87000EB0110406800F00F0021
:103740001061206800F5D87000EB0110406800F4AB
:103750007F40000A9061206800F5D87000EB0110EE
:103760004068000C5061206800F5D87000EB011033
:1037700080681870206800F5D87000EB0110806830
:1037800000F47F40000A5870206800F5D87000EB04
:103790000110806800F47F0000E03CE0000C9870AD
:1037A000206800F5D87000EB01108068000ED8701A
:1037B000206800F5D87000EB0110C068187120680F
:1037C00000F5D87000EB0110C06800F47F40000ADB
:1037D0005871206800F5D87000EB0110C06800F443
:1037E0007F00000C9871206800F5D87000EB011084
:1037F000C068000ED87131B92068C06840F0200060
:103800002668F06005E02068006940F02000266826
:10381000306100204EE7606A40F480206062012041
:1038200048E72DE9F05F04460025206846692068D6
:10383000D0F80490206887682068D0F80CA0206831
:10384000D0F810B02068D0F8188006F001000028E9
:1038500055D007F00100C0B101202168886007F051
:10386000020018B1204600F0F2FA0EE007F0040062
:1038700010B145F4006508E007F0080010B145F408
:10388000805502E0204600F0E1FA07F48070C8B1EC
:103890004FF480702168886007F4007018B12046EA
:1038A00000F0D7FA0EE007F4806010B145F400553F
:1038B00008E007F4006010B145F4804502E02046BE
:1038C00000F0C6FA07F48030C8B14FF480302168A8
:1038D000886007F4003018B1204600F0BCFA0EE012
:1038E00007F4802010B145F4004508E007F40020FB
:1038F00010B145F4803502E0204600F0ABFA06F046
:10390000080038B10AF0100020B145F4007510200D
:103910002168C86006F0040040B10AF0080028B130
:1039200008202168C860204600F00EFA06F0020068
:1039300038B12068C06800F0030010B1204600F0E4
:1039400005FA06F0400038B10BF0100020B145F444
:10395000806510202168086106F0200040B10BF05E
:10396000080028B1082021680861204600F018FAF4
:1039700006F0100038B12068006900F0030010B1B3
:10398000204600F00FFA06F4003040B109F01000B4
:1039900028B1102021684860204600F027FA06F47C
:1039A000803040B109F0080028B108202168486043
:1039B000204600F051FA06F4004088B309F00400F4
:1039C00078B306F4807020B108F0010008B145F02A
:1039D000010506F4007020B108F0020008B145F0BE
:1039E000020506F4806020B108F0040008B145F03B
:1039F000040506F40060A0B108F0700088B108F07A
:103A00007000402817D006DC10280BD020280CD0DE
:103A1000302819D10CE0502810D0602814D110E0C3
:103A20001DE019E045F008050FE045F010050CE039
:103A300045F0200509E045F0400506E045F0800529
:103A400003E045F4807500E000BF00BF2068806996
:103A500020F07000216888610420216848602DB141
:103A6000606A284360622046FFF710FEBDE8F09FC1
:103A700070B504460CB9012070BD94F8200010B94F
:103A8000204600F0AFF82068006840F0010021688F
:103A9000086000F04FFD05460DE000F04BFD401BB7
:103AA0000A2808D9606A40F400306062052084F872
:103AB00020000120E0E72068406800F001000028B5
:103AC000EBD02068006820F002002168086000F058
:103AD00031FD05460DE000F02DFD401B0A2808D9F8
:103AE000606A40F400306062052084F82000012004
:103AF000C2E72068406800F002000028EBD1207E79
:103B0000012806D12068006840F080002168086024
:103B100005E02068006820F0800021680860607E71
:103B2000012806D12068006840F040002168086044
:103B300005E02068006820F0400021680860A07E51
:103B4000012806D12068006840F020002168086044
:103B500005E02068006820F0200021680860E07E11
:103B6000012806D12068006820F010002168086054
:103B700005E02068006840F0100021680860207FA0
:103B8000012806D12068006840F00800216808601C
:103B900005E02068006820F0080021680860607F68
:103BA000012806D12068006840F004002168086000
:103BB00005E02068006820F0040021680860D4E96E
:103BC0000201084321690843616908436168491E8D
:103BD00008432168C86100206062012084F8200049
:103BE000002049E710B586B00446142101A8FCF76F
:103BF00043FB4F492068884241D14E480068401C31
:103C00004C4908600846006801280FD100BF002019
:103C100000904948006840F0007047490860084635
:103C2000006800F00070009000BF00BF00BF0020DF
:103C3000009041481038006840F008003E491039B3
:103C400008600846006800F00800009000BF00BF50
:103C50000320019002200290002003900320049092
:103C60000920059001A9354800F056FB00221146B5
:103C7000142000F0EDFC142000F0D6FC55E0304993
:103C80002068884251D100BF002000902A48006877
:103C900040F08060284908600846006800F08060B5
:103CA000009000BF00BF23480068401C2149086005
:103CB0000846006801280FD100BF002000901E4870
:103CC000006840F000701C4908600846006800F079
:103CD0000070009000BF00BF00BF00200090164899
:103CE0001038006840F00200134910390860084697
:103CF000006800F00200009000BF00BF4FF4405089
:103D000001900220029000200390032004900920DB
:103D1000059001A90B4800F0FFFA0022114641204E
:103D200000F096FC412000F07FFC06B010BD0000C2
:103D3000006400400000002040380240000C0240B7
:103D400000680040000402407047000030B587B0B2
:103D5000044600250E48844218D10E4B6A460021C5
:103D60002046FFF794FC05460DB1FFF7B5FA094A66
:103D700069460120FEF7C0FD064A69460648FFF77E
:103D8000E3F8044A69460548FDF778F907B030BD05
:103D9000F40000207A000020BB0A00206900002007
:103DA0007047000030B587B0044600250C488442B7
:103DB00013D10C4B6A4601212046FFF768FC0546EB
:103DC0000DB1FFF789FA074A6946074802F05EFD20
:103DD000044A69460020FEF78FFD07B030BD0000A1
:103DE0001C0100208A0000209C0B0020704770B549
:103DF000044694F82000012822D1022084F82000F3
:103E00002068006820F001002168086000F092FB43
:103E100005460DE000F08EFB401B0A2808D9606AB9
:103E200040F400306062052084F82000012070BD5D
:103E30002068406800F001000028EBD16062F6E7DE
:103E4000606A40F4002060620120F0E7704770472C
:103E50007047704770477047704770B50446A56D4E
:103E600000F068FB064694F83500022808D0802050
:103E7000606500BF002084F8340000BF012070BDE1
:103E80002068006820F016002168086020684069FA
:103E900020F0800021684861206C08B9A06C28B12E
:103EA0002068006820F00800216808602068006829
:103EB00020F001002168086010E000F03BFB801B4F
:103EC00005280BD920206065032084F8350000BF49
:103ED000002084F8340000BF0320D0E72068006889
:103EE00000F001000028E8D194F85C103F208840E1
:103EF000A860012084F8350000BF002084F8340059
:103F000000BF00BFBBE7014691F83500022803D08F
:103F10008020486501207047052081F83500086839
:103F2000006820F001000A6810600020F3E700003C
:103F3000F8B50446002000908C4800684FF41651F4
:103F4000B0FBF1F7A56D2E6894F85C10082088404E
:103F5000304098B12068006800F0040070B120681B
:103F6000006820F004002168086094F85C100820C4
:103F70008840A860606D40F00100606594F85C10B6
:103F800001208840304068B12068406900F080001E
:103F900040B194F85C1001208840A860606D40F04A
:103FA0000200606594F85C1004208840304068B1DD
:103FB0002068006800F0020040B194F85C10042012
:103FC0008840A860606D40F00400606594F85C1063
:103FD00010208840304078B32068006800F0080066
:103FE00050B394F85C1010208840A86020680068E6
:103FF00000F4802080B12068006800F4002028B917
:10400000206CC8B12046216C884715E0A06C98B19F
:104010002046A16C88470FE02068006800F480709B
:1040200028B92068006820F0080021680860206C2A
:1040300010B12046216C884794F85C1020208840FD
:104040003040002865D02068006800F0100000288B
:104050005FD094F85C1020208840A86094F8350068
:10406000052828D12068006820F016002168086023
:104070002068406920F0800021684861206C08B900
:10408000A06C28B12068006820F008002168086052
:1040900094F85C103F208840A860012084F8350027
:1040A00000BF002084F8340000BF206D10B120460E
:1040B000216D8847F8BD2068006800F4802080B139
:1040C0002068006800F4002028B9606C10B1204618
:1040D000616C88471DE0E06BD8B12046E16B8847F2
:1040E00017E02068006800F4807068B920680068F4
:1040F00020F0100021680860012084F8350000BF1E
:10410000002084F8340000BFE06B10B12046E16B62
:104110008847606D38B3606D00F00100F0B1052094
:1041200084F835002068006820F0010021680860EC
:1041300000BF0098401C0090B84200D905E02068FC
:10414000006800F001000028F3D100BF012084F8CE
:10415000350000BF002084F8340000BFE06C10B1CF
:104160002046E16C884700BFA4E70000B0000020B3
:104170002DE9F0410446002500F0DCF9074614B9AA
:104180000120BDE8F081606A00B100BF022084F820
:10419000350000BF002084F8340000BF20680068AC
:1041A00020F00100216808600AE000F0C3F9C01B9C
:1041B000052805D920206065032084F83500E0E754
:1041C0002068006800F001000028EED12068056832
:1041D00021480540D4E901010843E1680843216909
:1041E000084361690843A1690843E1690843216AFA
:1041F00008430543606A042803D1D4E90B0108434E
:104200000543206805602068456925F00705606A58
:104210000543606A04280DD1A06A0543E06A48B1ED
:104220002046FEF7D1FD28B140206065012084F8CA
:104230003500A6E7206845612046FEF7ABFD06463F
:1042400094F85C103F208840B06000206065012039
:1042500084F83500002094E73F8010F02DE9F04706
:1042600004460D4616461F464FF00008D4F85890F5
:1042700000BF94F83400012802D10220BDE8F08785
:10428000012084F8340000BF94F83500012825D1BE
:10429000022084F83500002060653B4632462946FE
:1042A0002046FEF7E6FD94F85C103F208840C9F8F0
:1042B00008002068006840F0160021680860206C43
:1042C00028B12068006840F0080021680860206874
:1042D000006840F001002168086006E000BF00208F
:1042E00084F8340000BF4FF002084046C6E70000E3
:1042F00070B5044600F01EF906462546681C10B14C
:1043000004480078054400BF00F014F9801BA8425F
:10431000FAD370BDAC000020F8B502460B4600256C
:10432000002400200021E0E0012606FA01F51E68C5
:1043300006EA0504AC4274D11E7906F00306012E8C
:1043400004D01E7906F00306022E13D190684F00A8
:104350000326BE40B0434F00DE68BE40304390604D
:10436000506801268E40B0431E79C6F300168E4079
:10437000304350601E7906F00306032E09D0D06842
:104380004F000326BE40B0434F009E68BE403043FE
:10439000D0601E7906F00306022E13D1CF0802F179
:1043A000200656F827004E07F70E0F26BE40B043F2
:1043B0004F07FF0E1E69BE403043CF0802F12006B2
:1043C00046F8270010684F000326BE40B0431E7910
:1043D00006F003064F00BE40304310605E6806F4EE
:1043E0004036002E1DD000BF00260096414E366894
:1043F00046F480463F4F3E603E46366806F48046AF
:10440000009600BF00BF3C4E8F0856F827008E076D
:10441000370F0F26BE40B043384EB24202D10026BD
:104420002EE061E0364EB24201D1012628E0354E41
:10443000B24201D1022623E0334EB24201D103261B
:104440001EE0324EB24201D1042619E0304EB24293
:1044500001D1052614E02F4EB24201D106260FE00D
:104460002D4EB24201D107260AE02C4EB24201D1B4
:10447000082605E02A4EB24201D1092600E00A26AC
:104480008F073F0FBE4030431B4E8F0846F8270072
:10449000244E3068A0435E6806F4801606B12043BF
:1044A000204E3060361D3068A0435E6806F400166A
:1044B00006B120431B4E361D30601A4E361F306841
:1044C000A0435E6806F4003606B12043154E361F41
:1044D0003060361F3068A0435E6806F4803606B14F
:1044E0002043104E083E3060491C1029FFF41CAFD9
:1044F000F8BD000044380240083801400000024086
:104500000004024000080240000C0240001002407B
:104510000014024000180240001C0240002002402B
:1045200000240240083C01400AB1816101E00B0413
:10453000836170470148006870470000A4000020B4
:104540000348006803490978084401490860704736
:10455000A4000020AC00002010B50D48006840F415
:1045600000700B4908600846006840F480600860ED
:104570000846006840F480700860032000F0A6F848
:104580000F2000F007F800F02BF8002010BD00000D
:10459000003C024070B504460E4800784FF47A7132
:1045A000B1FBF0F00C490968B1FBF0F5284600F0CA
:1045B00075FC08B1012070BD102C07D200222146E5
:1045C000501E00F045F80548046001E00120F2E7C4
:1045D0000020F0E7AC000020B0000020A800002080
:1045E00008B500BF002000900E48006840F48040ED
:1045F0000C4908600846006800F48040009000BF45
:1046000000BF00BF00200090081F006840F08050ED
:10461000091F08600846006800F08050009000BF45
:1046200000BF08BD443802400146084600280DDBA3
:1046300000BF00BF00F01F0301229A4043099B0006
:1046400003F1E023C3F8002100BF00BF00BF7047A3
:104650002DE9F05F80460D461646002703F0CEFA9E
:10466000074639462A46334601F00700C0F1070ADB
:10467000BAF1040F02D94FF0040A01E0C0F1070AB1
:10468000D14600F1040ABAF1070F02D24FF0000A36
:1046900001E0A0F1030AD4464FF0010A0AFA09FA30
:1046A000AAF1010A0AEA020A0AFA0CFA4FF0010B0F
:1046B0000BFA0CFBABF1010B0BEA030B4AEA0B0400
:1046C0002146404603F0A2FABDE8F09F00BF00F08B
:1046D0000702064B19684FF6FF031940044B0B43C2
:1046E00043EA0221014B196000BF70470CED00E066
:1046F0000000FA0538B5002400BF002000901D48D6
:10470000006840F080501B4908600846006800F0CF
:104710008050009000BF00BF012017490864FFF7D8
:1047200009FF044607E0FFF705FF001BB0F57A7F9D
:1047300001D9032038BD1148406800F48030B0F53D
:10474000803FF0D101200C494864FFF7F3FE044696
:1047500007E0FFF7EFFE001BB0F57A7F01D90320D9
:10476000E8E70648406800F40030B0F5003FF0D1BB
:104770000020DFE74038024000000E420070004099
:1047800070B504460D460CB9012070BD584800684C
:1047900000F00F00A84209D255490D700846006884
:1047A00000F00F00A84201D00120EEE7207800F0D1
:1047B000020002281DD1207800F00400042805D151
:1047C0004C48006840F4E0504A490860207800F006
:1047D0000800082805D14748006840F46040454972
:1047E00008604448006820F0F000A168084341498F
:1047F0000860207800F00100A8B36068012807D1A4
:104800003C4808380068C0F34040B8B90120BCE714
:104810006068022802D06068032807D1354808384C
:104820000068C0F3406048B90120AEE7314808385D
:104830000068C0F3400008B90120A6E72D480068D1
:1048400020F00300616808432A490860FFF772FE00
:10485000064609E0FFF76EFE801B41F28831884270
:1048600002D9032091E707E02248006800F00C001D
:104870006168B0EB810FEDD11D48006800F00F00BA
:10488000A84209D91A490D700846006800F00F00C7
:10489000A84201D0012078E7207800F00400042825
:1048A00007D11448006820F4E050E168084311493A
:1048B0000860207800F00800082808D10D4800683A
:1048C00020F46040216940EAC1000A49086000F014
:1048D0003FF808490968C1F30311074A515CC84011
:1048E0000649086006480068FFF754FE00204CE7C0
:1048F000003C024008380240EC920008B000002062
:10490000A80000200148006870470000B0000020A7
:1049100000B5FFF7F7FF04490968C1F38221034A94
:10492000515CC84000BD000008380240FC920008FD
:1049300000B5FFF7E7FF04490968C1F34231034AB4
:10494000515CC84000BD000008380240FC920008DD
:104950002DE9F047002400250026A14625480068DF
:1049600000F00C0020B1042805D008283AD105E059
:10497000DFF8849039E0DFF8849036E01D48001FAE
:10498000006800F03F041B48001F006800F480002E
:1049900078B11A481749091F0968C1F38811A0FBAB
:1049A00001700146224600233846FBF71BFC0546F2
:1049B0000EE011480F49091F0968C1F38811A0FBD7
:1049C00001700146224600233846FBF70BFC0546E2
:1049D0000848001F0068C0F30140401C4600B5FBBA
:1049E000F6F902E0DFF8109000BF00BF4846BDE8CE
:1049F000F0870000083802400024F400001BB700D4
:104A0000F8B504460CB90120F8BD207800F001008B
:104A1000002874D0F948006800F00C0004280DD07C
:104A2000F648006800F00C00082813D1F348001F76
:104A3000006800F48000B0F5800F0BD1EF48083813
:104A40000068C0F34040002859D06068002856D163
:104A50000120D9E700BF6068B0F5803F08D1E74882
:104A60000838006840F48030E449083908601EE0E6
:104A70006068B0F5A02F0DD1E0480838006840F418
:104A80008020DE49083908600846006840F480301C
:104A900008600CE0D9480838006820F48030D74915
:104AA000083908600846006820F48020086000BFCC
:104AB000606890B1FFF73EFD054606E0FFF73AFD5E
:104AC000401B642801D903209EE7CC4808380068C1
:104AD000C0F340400028F1D011E0FFF72BFD054660
:104AE00006E0FFF727FD401B642801D903208BE770
:104AF000C24808380068C0F340400028F1D120784F
:104B000000F0020002285FD1BC48006800F00C00F1
:104B100058B1BA48006800F00C0008281CD1B7480A
:104B2000001F006800F48000B0B9B448083800687D
:104B3000C0F3400020B1E068012801D0012063E704
:104B4000AE480838006820F0F800216940EAC1004A
:104B5000AA490839086037E0E06800B30120A84995
:104B60000860FFF7E7FC054606E0FFF7E3FC401BA3
:104B7000022801D9032047E7A04808380068C0F39D
:104B800040000028F1D09D480838006820F0F80067
:104B9000216940EAC10099490839086014E0002001
:104BA00097490860FFF7C6FC054606E0FFF7C2FC20
:104BB000401B022801D9032026E7904808380068E6
:104BC000C0F340000028F1D1207800F00800082848
:104BD0002CD16069A8B101208A490860FFF7AAFCBE
:104BE000054606E0FFF7A6FC401B022801D903207A
:104BF0000AE782486C300068C0F340000028F1D01A
:104C000014E000207F490860FFF794FC054606E0A9
:104C1000FFF790FC401B022801D90320F4E67748F7
:104C20006C300068C0F340000028F1D1207800F01B
:104C30000400042870D1002770483830006800F064
:104C4000805090B900BF002000906C483830006858
:104C500040F080506949383108600846006800F02B
:104C60008050009000BF00BF01276748006800F433
:104C70008070B0B96448006840F480706249086090
:104C8000FFF758FC054606E0FFF754FC401B0228DE
:104C900001D90320B8E65C48006800F48070002861
:104CA000F2D000BFA068012808D1544868300068DD
:104CB00040F001005149683108601DE0A0680528F6
:104CC0000DD14E486830006840F004004B4968310F
:104CD00008600846006840F0010008600CE04748A2
:104CE0006830006820F001004449683108600846D7
:104CF000006820F00400086000BFA068A8B1FFF7BA
:104D000019FC054609E0FFF715FC401B41F288310C
:104D1000884202D9032077E626E0384868300068E8
:104D2000C0F340000028EED013E0FFF703FC054677
:104D300008E0FFF7FFFB401B41F28831884201D9B0
:104D4000032061E62D4868300068C0F34000002869
:104D5000EFD1012F07D129483830006820F080506A
:104D600026493831086000BFA069002845D0234893
:104D7000006800F00C0008285DD0A069022845D129
:104D800000201F490866FFF7D5FB054606E0FFF740
:104D9000D1FB401B022801D9032035E6174808380B
:104DA0000068C0F340600028F1D1D4E9070108434E
:104DB000616A40EA81110122A06AC2EB500041EA17
:104DC00000412C20005D41EA00600C49091F086089
:104DD00001200B490866FFF7ADFB054606E0FFF72B
:104DE000A9FB401B022801D903200DE6034808381F
:104DF0000068C0F340600028F1D049E00838024064
:104E000000004742800E47420070004000202149C8
:104E10000866FFF78FFB054606E0FFF78BFB401B9C
:104E2000022801D90320EFE51B480068C0F3406069
:104E30000028F2D12CE0A069012800D1E4E5164851
:104E4000001D0668A069012820D006F48001E069F1
:104E500081421BD106F03F01206A814216D147F6FC
:104E6000C0703040616AB0EB811F0FD106F4403151
:104E70000122A06AC2EB5000B1EB004F06D106F050
:104E800070612C20005DB1EB006F01D00120BBE50B
:104E90000020B9E5000047420038024070B50446E2
:104EA0002546681EB0F1807F01D301200FE0681E07
:104EB0004FF0E02148610F214FF0FF3002F0A6FED5
:104EC00000204FF0E021886107200861002070BDBC
:104ED0007047704730B502460B4600BF92F83C0061
:104EE000012801D1022030BD012082F83C0000BF22
:104EF000022082F83D00106844681068816824F040
:104F000070041868044310684460184D1068A84283
:104F10001BD01068B0F1804F17D0154D1068A84213
:104F200013D0144D1068A8420FD0134D1068A8423A
:104F30000BD0124D1068A84207D0114D1068A8423E
:104F400003D0104D1068A84205D121F080015868A7
:104F5000014310688160012082F83D0000BF0020FD
:104F600082F83C0000BF00BFBDE700000000014028
:104F70000004004000080040000C00400004014014
:104F8000004001400018004010B504460CB9012053
:104F900010BD94F83D0028B9002084F83C0020465C
:104FA00000F026F8022084F83D00211D206801F061
:104FB00097FD012084F8460000BF84F83E000121DF
:104FC0003F200155402001554120015500BF00BF41
:104FD000012084F84200432001554420015545201A
:104FE000015500BF012084F83D000020D0E70000FB
:104FF00038B504460E492068884217D100BF00200A
:1050000000900C48006840F020000A4908600846FB
:10501000006800F02000009000BF00BF0022114691
:105020003720FFF715FB3720FFF7FEFA38BD0000E9
:105030000014004040380240014691F83D0001282C
:1050400001D001207047022081F83D000868C06847
:1050500040F001000B68D8601A4B086898421BD0DA
:105060000868B0F1804F17D0174B0868984213D0EA
:10507000164B086898420FD0154B086898420BD021
:10508000144B0868984207D0134B0868984203D025
:10509000124B086898420CD10868806800F007023B
:1050A000062A0CD00868006840F001000B68186000
:1050B00005E00868006840F001000B6818600020F7
:1050C000C0E700000000014000040040000800406C
:1050D000000C004000040140004001400018004066
:1050E000704770B504462068C5682068066906F0F8
:1050F0000200022819D105F00200022815D1401F34
:1051000021680861012020772068806900F0030091
:1051100018B12046FFF7E4FF05E0204600F097F8BD
:10512000204600F095F80020207706F004000428BF
:1051300019D105F00400042815D1C0432168086185
:10514000022020772068806900F4407018B1204662
:10515000FFF7C6FF05E0204600F079F8204600F092
:1051600077F80020207706F00800082819D105F00C
:105170000800082815D1C043216808610420207761
:105180002068C06900F0030018B12046FFF7A8FFAF
:1051900005E0204600F05BF8204600F059F80020BA
:1051A000207706F01000102819D105F01000102803
:1051B00015D1C04321680861082020772068C069A4
:1051C00000F4407018B12046FFF78AFF05E0204642
:1051D00000F03DF8204600F03BF80020207706F074
:1051E000010048B105F0010030B16FF00100216805
:1051F0000861204600F02EF806F08000802809D1D2
:1052000005F08000802805D1C04321680861204650
:10521000FFF75EFE06F04000402809D105F040008F
:10522000402805D1C04321680861204600F02CF8D1
:1052300006F02000202809D105F02000202805D103
:10524000C043216808612046FFF743FE70BD7047E8
:105250007047000010B504460A48844211D101F09D
:1052600001FBFDF775FFFDF73BFDFDF773F902F05C
:1052700081FCFBF7DFFFFBF781FF02F0B3FA01F0DF
:1052800091FB10BD440100207047F8B504460E465E
:10529000174694F8420020282ED106B10FB90120FC
:1052A000F8BD01202063002060633A463146204665
:1052B00001F050FF0546EDB9206B012819D100BF60
:1052C00000200090206800680090206840680090EE
:1052D00000BF00BF00BF00BF21680C3151E8001FB4
:1052E00041F0100021680C3141E80002002AF3D19E
:1052F00000E001252846D3E70220D1E770B5044637
:105300000D461648844203D1284602F0A1FB24E052
:105310001348844206D1FBF73DFF0646E9B2FBF78E
:105320007FFF1AE00F48844206D1FDF775FA064662
:10533000E9B2FDF7FDFE10E00B4884420DD100F00C
:10534000DBFF0646E9B200F0DFFFFA2007490870EC
:10535000002210210648FFF7E7F870BD8C010020FD
:1053600064020020D40100201C020020C60000209E
:1053700000180240704700002DE9F84F04462068ED
:1053800005682068C668206847694FF00009CA466A
:1053900005F00F09B9F1000F0AD105F0200038B16E
:1053A00006F0200020B1204601F040FDBDE8F88F56
:1053B000B9F1000F7CD007F0010018B906F4907025
:1053C000002875D005F0010030B106F4807018B1E6
:1053D000606C40F00100606405F0040030B107F03B
:1053E000010018B1606C40F00200606405F002003A
:1053F00030B107F0010018B1606C40F00400606447
:1054000005F0080048B106F0200010B907F00100CF
:1054100018B1606C40F008006064606C002846D0F1
:1054200005F0200028B106F0200010B1204601F060
:10543000FDFC20684069C0F3801A606C00F0080031
:1054400010B9BAF1000F2DD0204601F096FC20686B
:10545000406900F04000402820D100BF00BF216813
:10546000143151E8001F21F040002168143141E857
:105470000002002AF3D100BFE06B50B17748E16B26
:105480000865E06BFEF73FFD88B1E06B016D884772
:105490000DE02046FFF76EFF09E009E02046FFF728
:1054A00069FF04E02046FFF765FF002060647DE7A8
:1054B000206B012878D105F01000002874D006F088
:1054C00010000028FAD000BF00200090206800687B
:1054D000009020684068009000BF00BF20684069CD
:1054E00000F04000402860D1E06B006840681FFA7F
:1054F00080F8B8F1000F56D0A08D404553DDA4F8D8
:105500002E80E06BC069B0F5807F43D000BF00BF44
:1055100021680C3151E8001F21F4807021680C31A2
:1055200041E80002002AF3D100BF00BF00BF21689C
:10553000143151E8001F21F001002168143141E8C5
:105540000002002AF3D100BF00BF00BF2168143160
:1055500051E8001F21F040002168143141E80002A9
:10556000002AF3D100BF202084F8420000202063ED
:1055700000BF00BF21680C3151E8001F21F010006E
:1055800021680C3141E80002002AF3D100BFE06B32
:10559000FEF763FC02206063A08DE28D801A81B269
:1055A0002046FFF7ABFE01E742E0A08DE18D401AF7
:1055B0001FFA80F8E08DD0B3B8F1000F37D000BFEC
:1055C00000BF21680C3151E8001F21F49070216860
:1055D0000C3141E80002002AF3D100BF00BF00BF38
:1055E0002168143151E8001F21F0010021681431B5
:1055F00041E80002002AF3D100BF202084F84200D5
:105600000020206300BF00BF21680C3151E8001F5B
:1056100021F0100021680C3141E80002002AF3D18A
:1056200000BF0220606341462046FFF767FEBDE6EB
:1056300005F0800030B106F0800018B1204601F07E
:10564000EDFDB3E605F0400030B106F0400018B1C2
:10565000204601F0C8FBA9E600BFA7E6D96B000809
:1056600010B504460CB9012010BDA06900B100E0DE
:1056700000BF94F8410028B9002084F8400020467B
:1056800000F02AF8242084F841002068C06820F443
:1056900000502168C860204601F046FC206800697F
:1056A00020F49040216808612068406920F02A00B9
:1056B000216848612068C06840F400502168C860D3
:1056C00000206064202084F8410084F8420000201B
:1056D000606300BFC8E7000010B586B0044614211F
:1056E00001A8FAF7C9FDE7492068884274D100BFD4
:1056F00000200090E448006840F00040E249086063
:105700000846006800F00040009000BF00BF00BFE6
:1057100000200090DC481038006840F01000DA49A2
:10572000103908600846006800F01000009000BFC3
:1057300000BF03200190022002900020039003206C
:1057400004900820059001A9D048FEF7E5FDD04857
:10575000D0490860000548600021CE488160C160E2
:105760004FF480610161002141618161C161016289
:105770004162FEF7FDFC08B1FDF7AEFD00BFC54874
:10578000E063846300BFC2489038C34908604FF0AB
:10579000206048604021C04881600021C1604FF412
:1057A00080610161002141618161C16101624162E9
:1057B000FEF7DEFC08B1FDF78FFD00BFB648A06321
:1057C000846300BF002211465320FEF741FF53209F
:1057D000FEF72AFF53E1FFE7B0492068884257D11E
:1057E00000BF00200090A848001D006840F0100095
:1057F000A549091D08600846006800F010000090E7
:1058000000BF00BF00BF002000909F481038006814
:1058100040F002009C49103908600846006800F01A
:105820000200009000BF00BFC02001900220029043
:1058300000200390032004900720059001A99848B8
:10584000FEF76AFD9748984908604FF0006048608D
:10585000002195488160C1604FF4806101610021A1
:1058600041618161C16101624162FEF781FC08B161
:10587000FDF732FD00BF8C48E063846300BF002267
:1058800011462520FEF7E4FE2520FEF7CDFEF6E0CA
:1058900086492068884277D100BF002000907A486E
:1058A000006840F48020784908600846006800F4E9
:1058B0008020009000BF00BF00BF00200090724811
:1058C0001038006840F008006F4910390860084639
:1058D000006800F00800009000BF00BF4FF4407067
:1058E00001900220029000200390032004900720E2
:1058F000059001A96E48FEF70FFD654878386D499F
:1059000008604FF00060486000216A488160C16013
:105910004FF480610161002141618161C1610162D7
:105920004162FEF725FC08B1FDF7D6FC00BF6148D7
:10593000E063846300BF564848385F4908604FF011
:105940000060486040215C4881600021C1604FF4E4
:1059500080610161002141618161C1610162416237
:10596000FEF706FC08B1FDF7B7FC00BF5248A06384
:10597000846300BF002211462720FEF769FE27201E
:10598000FEF752FE7BE0FFE74C492068884276D163
:1059900000BF002000903C48001D006840F020003F
:1059A0003949091D08600846006800F02000009091
:1059B00000BF00BF00BF00200090334810380068CF
:1059C00040F040003049103908600846006800F097
:1059D0004000009000BF00BF4FF4844001900220BF
:1059E000029000200390032004900820059001A954
:1059F0003348FEF791FC2B4818383249086080057F
:105A0000486000212F488160C1604FF480610161CE
:105A1000002141618161C16101624162FEF7A8FB21
:105A200008B1FDF759FC00BF2648E063846300BF5E
:105A30001C486030244908604FF0206048604021D5
:105A4000214881600021C1604FF480610161002123
:105A500041618161C16101624162FEF789FB08B168
:105A6000FDF73AFC00BF1848A063846300BF002222
:105A700011464720FEF7ECFD4720FEF7D5FD06B0A6
:105A800010BD0000007C0040403802400010024081
:105A9000A0600240AC0200200C0300200010014076
:105AA00000040240406402406C03002000480040B3
:105AB000000C0240CC0300202C0400200014014004
:105AC000001802408C040020EC040020704770474E
:105AD000F7B50446154694F84100202836D10198C0
