:020000040800F2
:100000004012002069020008134B00081D48000838
:10001000114B0008AD1900089952000800000000BB
:10002000000000000000000000000000814C0008FB
:1000300041290008000000007D4B0008C94C000861
:10004000830200088302000883020008830200087C
:10005000830200088302000883020008830200086C
:100060008302000883020008830200082926000892
:10007000830200088302000883020008830200084C
:100080008302000835260008830200088302000866
:10009000B1190008830200088302000883020008E7
:1000A000830200088302000883020008830200081C
:1000B000830200088302000883020008830200080C
:1000C00083020008830200088302000883020008FC
:1000D000830200088152000883020008830200089E
:1000E00083020008830200088302000883020008DC
:1000F00083020008830200088302000883020008CC
:1001000083020008830200088302000883020008BB
:100110008302000883020008830200087D4D000866
:1001200083020008412600084D26000883020008CB
:10013000830200088302000883020008830200088B
:1001400083020008BD19000883020008830200082A
:100150008302000859260008830200088D52000817
:10016000830200088302000883020008830200085B
:1001700083020008830200088302000800000000D8
:10018000830200088302000883020008614E000811
:10019000830200088302000883020008830200082B
:1001A00000000000000000008302000800F002F8D8
:1001B00000F04AF80AA090E8000C82448344AAF1B7
:1001C0000107DA4501D100F03FF8AFF2090EBAE8B5
:1001D0000F0013F0010F18BFFB1A43F0010318477B
:1001E000346F0000546F0000103A24BF78C878C103
:1001F000FAD8520724BF30C830C144BF04680C602D
:10020000704700000023002400250026103A28BF74
:1002100078C1FBD8520728BF30C148BF0B60704778
:100220001FB506F002FE00F043FA04000020002192
:1002300006F026F8401C60600020002106F00AF855
:10024000E0601FBD10B510BD00F004FA1146FFF7C5
:10025000E7FF05F063FF00F0EFFC03B4FFF7F2FFE8
:1002600003BC00F02FFD0000094880470948004703
:10027000FEE7FEE7FEE7FEE7FEE7FEE7FEE7FEE756
:10028000FEE7FEE704480549054A064B70470000B3
:100290006D4D0008AD010008400C00204012002008
:1002A000400E0020400E002053EA020C00F069804E
:1002B0002DE9F04B4FF00006002B1FBFB3FA83F57A
:1002C00003FA05F424FA05F65E4012BF1643B2FAAB
:1002D00082F502FA05F4C5F120051EBF22FA05FCDD
:1002E00044EA0C04203556EA044C4FEA144418BF83
:1002F000641C4FF000084FF00009904271EB030CB2
:1003000039D3002919BFB1FA81F701FA07F6B0FA1B
:1003100080F700FA07F6C7F120071EBF20FA07FC96
:1003200046EA0C062037B6FBF4FCA7EB0507103FA6
:1003300007F01F0BCBF120060CFA0BFB2CFA06F68C
:1003400044BFB3460026202FA4BF5E464FF0000BEB
:100350005BEA060C08BF4FF0010B19EB0B09ABFB76
:10036000027C48EB0608C01B06FB02CC0BFB03CC4F
:1003700071EB0C01C1E70B46024641464846BDE819
:10038000F08B13B54FF000004FF00001AFF3008089
:10039000BDE81C40704730B505460B462A4613F8A9
:1003A000014B12F8010B08B1A042F8D01CB1002893
:1003B00002D06D1CF1E7284630BD10B5431C02E0A9
:1003C00010F8011B71B18107FAD14FF0013202C858
:1003D0008C1A8C4314EAC211F9D0C01A0A0603D051
:1003E000C01E10BDC01A10BD0A0401D0801E10BD71
:1003F0000902FCD0401E10BD032A40F2308010F0EC
:10040000030C00F0158011F8013BBCF1020F6244AF
:1004100098BF11F801CB00F8013B38BF11F8013B40
:10042000A2F1040298BF00F801CB38BF00F8013BED
:1004300011F0030300F0AA80083AC0F0088051F8D8
:10044000043B083A51F804CBA0E80810F5E7121D68
:100450005CBF51F8043B40F8043BAFF30080D20787
:1004600024BF11F8013B11F801CB48BF11F8012B53
:1004700024BF00F8013B00F801CB48BF00F8012B76
:1004800070474FF0000200B5134694469646203957
:1004900022BFA0E80C50A0E80C50B1F12001BFF43D
:1004A000F7AF090728BFA0E80C5048BF0CC05DF8A3
:1004B00004EB890028BF40F8042B08BF704748BFF1
:1004C00020F8022B11F0804F18BF00F8012B704765
:1004D00070477047704710B500F08AF8006810BD8B
:1004E00010B5044600F084F8046010BD0FB400237A
:1004F00000B589B00CA900910B99CB60204B7B44CF
:100500000693204B7B44079304236FF00042CDE910
:1005100001321D4A7A446B4608920246002006F0DA
:10052000EEFC09B05DF814FB70B506464FF0FF30E5
:1005300015460C46324686B00091CDE90101694668
:100540000020049004A8FFF7D1FF03460498211867
:1005500025B108B10A4600E022462A6000280DD0E5
:10056000002B02DD0098884208D03246081B6946FD
:100570000094CDE9010404A8FFF7B8FF06B070BDF0
:100580000901000021010000E100000010B5203A3F
:10059000C0F00B80B1E81850203AA0E81850B1E83C
:1005A0001850A0E81850BFF4F5AF5FEA027C24BFF2
:1005B000B1E81850A0E8185044BF18C918C0BDE8E9
:1005C00010405FEA827C24BF51F8043B40F8043BB2
:1005D00008BF7047D20728BF31F8023B48BF11F867
:1005E000012B28BF20F8023B48BF00F8012B7047C1
:1005F00000487047DC0B002010B5044600F050F8AE
:100600000068005D00F0010010BD426842B1016861
:1006100011F8013B23B1521EC0E900121846704781
:100620000121C160881E704742685AB1C3680168E1
:1006300043B983688B4205D0491E521CC0E90012A1
:10064000002070474FF0FF307047000000487047AF
:10065000DC0B00207546FFF7F9FFAE460500694642
:10066000534620F00700854618B020B5FFF70AFE74
:10067000BDE820404FF000064FF000074FF00008A3
:100680004FF0000B21F00701AC46ACE8C009ACE824
:10069000C009ACE8C009ACE8C0098D46704700004D
:1006A00010B500F005F8001D10BD00BFD55B0000BF
:1006B00000487047FC0B00202DE9FF4F064689B02B
:1006C0000878FF2806D0491C2D2805D000244FF0BB
:1006D000000908E000200CE00124F8E709EB890399
:1006E000491C00EB43090878FF28F7D114B1C9F180
:1006F00000008146107800252C46AA4629462D2860
:1007000001D02B2804D1521C2D2813D00020824662
:100710008B461078FF280FD04FF0000C0A21521C96
:10072000A5FB017804FB018105FB0C11C5194BEBFE
:100730000104EEE70120EAE7002108464FF000003F
:10074000BAF1000F02D000EB80004008C0F38158DE
:10075000B8F1010F01DD4FF0FF380C9809EB0007ED
:1007600055EA040009D04FF0020917F5FA7F0BDAB9
:100770004FEACA70C6E900B012E04FEACA70C6E993
:1007800000B00DB0BDE8F08FB7F5FA7F0DDDF04891
:100790007844D0E90010C6E9001040EACA707060E1
:1007A000FFF726FFC0F80090EBE7391E02DAC8F128
:1007B000000200E0424600DA794206A800F0CEF9D5
:1007C00006AB93E8070003AB83E8070044F23E0062
:1007D0005BEA04010090584604D144F21E012C4605
:1007E0005D460091210C0904014306D100992404BF
:1007F00044EA15442D041039009104F07F4101436F
:1008000006D10099240244EA15642D0208390091AA
:1008100004F07041014306D10099240144EA1574A3
:100820002D01091F009104F04041014306D10099B8
:10083000A40044EA9574AD00891E009104F00041C3
:10084000084304D100986D196441401E009042464F
:100850006846002FCDE9014503A902DD00F0E5FE61
:1008600001E000F0BAFEBAF1000F04460D4601D0D7
:1008700084F0004440F2FF7724F00040284303D086
:10088000C4F30A50B84212D1FFF7B2FEC0F800908C
:10089000C4F30A50B8420AD1AE487844D0E90010F7
:1008A000C6E9001004F000410843706069E7C6E93A
:1008B000005466E72DE9FF4F1F464FF0000A4FF046
:1008C000FF38454691B0D7E90146CDF83CA0FFF787
:1008D000EFFEC0680168405C1090B96912986D1C09
:1008E0008847396A814688470028F6D1B9F1FF3F29
:1008F0000AD0002E24F4D06411DDB9F12B0F08D0FA
:10090000B9F12D0F0BD102E0404615B03AE744F49F
:100910008064B96912986D1C8847761E814660050F
:1009200004A901D52D2000E02B20002E01F1010BA0
:100930000DF130088DF810003FDDB9F1690F08D0D6
:10094000B9F1490F05D0B9F16E0F02D0B9F14E0FD0
:100950001CD13B4601A8009580E85002DDE9121247
:100960006FF0020006F0CFFAC11CCED10EE0B969DB
:1009700012986D1C884781461398761E44F40074C3
:1009800005600F98401C002E0F9016DDB9F1300F56
:10099000EDD0B9F1780F02D0B9F1580F0DD10F9801
:1009A00001280AD13B46CDE90054DDE91212001FAF
:1009B000029606F0A6FAC11CA7D1109989453ED12E
:1009C00044F0800406E01399681CAAF1010A44F47B
:1009D00000740860B9696D1C1298761E884730282B
:1009E0008146F0D02BE01099894505D1200603D42B
:1009F000761E44F0800418E0484605F01FFB08B35B
:100A0000761E0DF123018B4544F4007408D2A9F140
:100A100030000BF8010B200607D5AAF1010003E016
:100A2000200602D40AF101008246A00502D51399DE
:100A3000681C0860B96912986D1C88478146002EB1
:100A4000D1DC53E0002E51DDB9F1650F02D0B9F1D0
:100A5000450F4BD1A00549D5B9696D1C1298761E7A
:100A600024F440748847002E81460CDD2B2804D0E6
:100A7000B9F12D0F07D144F48074B96912986D1C37
:100A80008847761E8146E00501D52D2100E02B2107
:100A900008F8011BCDF8008021E0761E0DF1390128
:100AA000884544F400740CD2A9F1300010F0FF0026
:100AB00088F8000002D10099884509D908F1010899
:100AC00006E0E00501D5244801E042F20F708246BD
:100AD000B96912986D1C8847814613980560002EED
:100AE00004DD484605F0AAFA0028D6D1F969129823
:100AF0008847FF2053468BF8000088F8000000204C
:100B00000A900B9004AA0CA90AA8FFF7D5FDA0052E
:100B100002D46FF00100F8E614F0240F0AD0E007C9
:100B200014D13868DDE90A12031D3B600068C0E992
:100B300000120BE00AA9684605F01AFAE00705D191
:100B40003868009A011D3960006802602846DCE6BA
:100B5000A069000096680000F1D8FFFF2DE9F0477A
:100B6000814616468AB0334878440DC88DE80D009A
:100B700030487844801C03AC0DC884E80D0041F671
:100B80009B300844372190FBF1F290FBF1F5A5F181
:100B9000800501FB12041B3C02D56442012000E0E9
:100BA0000020DFF890A080460027FA44AAF1BE0A90
:100BB0000DE0E00709D03246684607EB47010AEB33
:100BC000810100F01EFD8DE8070064107F1C002CE1
:100BD000EFD1184F7F44AC3F18E0E80714D007EB83
:100BE00004100DF1180A90E80E008AE80E00C068A3
:100BF000F04201D198190890324606A903A800F0E6
:100C000000FD03AB83E807006D10641C002DE4D1E8
:100C100032466946B8F1000F03A802D000F0C9FCC3
:100C200001E000F0EEFCC9E90001C9F808200AB0B3
:100C3000BDE8F087906500000446AFF300802046D1
:100C4000FFF70BFB4FF0013C50F8042B51F8043B2D
:100C50009A4221D1A2EB0C03934313EACC1317D190
:100C600050F8042B51F8043B9A4215D1A2EB0C0327
:100C7000934313EACC130BD150F8042B51F8043BE7
:100C80009A4209D1A2EB0C03934313EACC13DBD0B5
:100C90004FF00000704700BFD01A01BAB1FA81F1DD
:100CA00001F0180122FA01F0CB40C1F12001DBB2C2
:100CB000C0B2C01A2CFA01F3D11A914311EAC31140
:100CC000E6D1704701491820ABBEFEE726000200BE
:100CD0002DE9FF4F1F464FF03C0987B04FF000420F
:100CE000DDE9141001F10108DDF858A002EA4050D6
:100CF0000390002004908346054604460590B96998
:100D0000461E08988847AAF1010A0290BAF1000F1E
:100D100037DD02982E2815D0102100F013FA002894
:100D20002ADB4FF0010B0499014316D0B9F1000FF3
:100D30000BDB4A46C11700F0F2F905430C43A9F159
:100D4000040905E00120059007E008B145F0010520
:100D500001200490059800B9361DB969089808F17A
:100D600001088847BBF1000FAAF1010A0290CDD01B
:100D70000999C1F80080C9E70298702808D0502866
:100D800006D0F96908988847BBF1000F14D04FE0EE
:100D9000002002900120BBF1000F049009D0B96936
:100DA000089808F101088847AAF10109B9F1000F74
:100DB00007DCF969089888476FF001000BB0BDE8BF
:100DC000F08F2B2804D02D280CD14FF0FF30049049
:100DD000B969089808F101088847A9F10109B9F132
:100DE000000FE6DD411CE4D00A2100F0ABF9002839
:100DF000DFDB029908F1010801EB810100EB410002
:100E00000290B969089888470A2100F09BF9099A6D
:100E1000A9F10109B9F1000FC2F8008001DD002835
:100E2000E7DAF969089888470499029800FB016697
:100E300055EA040004D004F04041090002D006E065
:100E4000039898E0A40044EA9574AD00B61E04F03F
:100E50000041080002D16D196441761E159810F00A
:100E6000240F03D04FF00B095C4803E04FF0280932
:100E70006FF07D008246564507DAAAEB06018944E9
:100E8000B9F1410F01DD4FF0410901200021A9F125
:100E9000010200F044F9024628400B462140084375
:100EA00001D0012100E00021501E029143F1FF31E9
:100EB00028402140084301D0012000E00020029991
:100EC000834651EA0B014FD0002108464FF0000045
:100ED000039900F4400039B100EB80004FF4400169
:100EE00000EBD07001EA60008015012802DD4FF0B0
:100EF000FF3000E013D0401C36D0029860B3BBF145
:100F0000000F0CD14A460120002100F008F92840CA
:100F10002140084301D0012000E00020E0B1012081
:100F20004A46002100F0FBF8034640190A46614199
:100F30002D1A8C4111D3B9F1400F09DD159810F02D
:100F4000240F02D0AAF1340603E0AAF1170600E04C
:100F5000761C00254FF0004406E05B1E42F1FF3294
:100F600020EA030521EA0204CAF10100B04206DAD0
:100F70001B49039808430190002000900EE0039A5B
:100F8000C4F3D321E80A0A43164940EA44500A430D
:100F90003146CDE90002684605F046F8159810F094
:100FA000240F0BD01598C00715D13868DDE9001261
:100FB000031D3B600068C0E900120CE002A869460E
:100FC00004F0D6FF1598C00705D13868029A011DB4
:100FD0003960006802604046F0E6000002FCFFFF56
:100FE0000000F07F0000F03F2DE9FF4F92461D46C4
:100FF00085B04FF00041DDE9124BDDE914727F1E30
:1010000001EA4B50414940F0FF4940EA0108002104
:1010100022F020004928049102D04E2828D04CE02C
:101020003BA0012607C88DE80700A9690698641C43
:1010300088477F1E014606D41DF8060018B121F02E
:10104000200181420BD0E96906988847032E34D0ED
:10105000082E32D06FF0010009B0BDE8F08F761C89
:10106000032E01D0082EE0D1601CCAF80000DCE796
:10107000A9690698641C88477F1E2AD420F02000A6
:10108000412826D1A9690698641C88477F1E20D470
:1010900020F020004E281CD1A9690698641C8847BE
:1010A0007F1E48F4002849F48009CAF8004001D4A2
:1010B000282806D0E969069888475FEACB7012D0E5
:1010C00022E0A9690698641C88477F1E01D4002885
:1010D00003DAE96906988847BCE72928F1D1641C3E
:1010E000CAF80040E9E71BF0240F07D028680499EC
:1010F000031D2B600068C0E9001805E02868021D88
:101100002A600068C0F800902046A5E70000F07F44
:10111000494E46494E495459000000007047B2F10B
:1011200020030AD5C2F1200301FA02F120FA03F3E9
:1011300000FA02F041EA0301704700FA03F14FF0B0
:10114000000070473A2800D2303820F02002412AAF
:1011500001D3A2F13700884201D34FF0FF3070472E
:1011600020F07F4C80EA030023F07F47ACEB0703BD
:1011700003F57C5300F0004003F1FF032DE98049A3
:101180004FEA154B09B44FEA144325EA0B4E24EA03
:1011900003480FF2042606EB132749083E785FEA5E
:1011A000320203FB0667C7F5000707FB06F64FEAA6
:1011B00054374FEAD64606F1020607FB066CCCF11F
:1011C000005C4FEA1C472CEA074C07FB06F40CFBBB
:1011D00006F504EB15464FEA961634BF00204FF093
:1011E00000404FEAD13706FB07FC4FEA1C4C0CFBD2
:1011F0000BF7D21B03FB0CF761EB07010CFB0EF79F
:10120000B0EB074072EB17420CFB08F734BFA2EBC0
:101210000742B2EB074261EB17414FEA0C444FEA39
:10122000910706FB07FC4FEA1C4C0CFB0BF7B0EBDD
:10123000C74072EB573203FB0CF734BFA2EBC74237
:10124000B2EBC74261EB57310CFB0EF7B0EBC700B6
:1012500072EB57720CFB08F734BFA2EBC702B2EB7C
:10126000C70261EB5771039F4FEA816141EA921116
:1012700004EBCC044FEAD1374FEA826206FB07FC4D
:1012800042EA90124FEA80604FEA1C4C0CFB0BF7CD
:10129000D21B03FB0CF761EB07010CFB0EF7B0EB65
:1012A000074072EB17420CFB08F734BFA2EB074272
:1012B000B2EB074261EB17414FEA8C554FEA9107B9
:1012C00004EB9C2406FB07FC4FEA1C4C0CFB0BF7C1
:1012D000B0EBC74072EB573203FB0CF734BFA2EB05
:1012E000C742B2EBC74261EB57310CFB0EF7B0EBD4
:1012F000C70072EB57720CFB08F734BFA2EBC702B2
:10130000B2EBC70261EB577115EB4C254FEA8161D7
:1013100041EA92114FEA82624FEAD13742EA9012D3
:1013200006FB07FC44F100044FEA80604FEA1C4CC6
:101330000CFB0BF7D21B03FB0CF761EB07010CFB5B
:101340000EF7B0EB074072EB17420CFB08F734BF07
:10135000A2EB0742B2EB074261EB174115EB1C15FC
:101360004FEA813141EA92414FEA823242EA9042A9
:101370004FEA80304FEA0C7644F1000448EA034318
:101380004EEA0B484FF0000EB2EB080C71EB03076E
:1013900024BF624639464EEB0E0E4FF0000B00188C
:1013A000524149414BEB0B0BB2EB080C71EB0307BD
:1013B0007BF1000B24BF624639464EEB0E0E4FF018
:1013C000000B0018524149414BEB0B0BB2EB080CE0
:1013D00071EB03077BF1000B24BF624639464EEBED
:1013E0000E0E51EA020718BF46F0010616EB0E7604
:1013F00055F1000254F1000103D5BDE88901BDE8B3
:101400000088BDE88901BDE80048B619524141EBAA
:101410000101A3F10103704780807F7E7D7C7B7A90
:101420007978777676757473727171706F6E6E6D90
:101430006C6C6B6A6A696868676666656464636336
:1014400062616160605F5F5E5E5D5D5C5C5B5B5ABC
:101450005A59595858575756565555555454535329
:1014600052525251515050504F4F4F4E4E4D4D4D84
:101470004C4C4C4B4B4B4A4A4A49494948484847CF
:10148000474747464646454545444444444343430D
:10149000434242424241414146EA0646A3F5705367
:1014A0004FEA164646EA42564FEAD22242EA4152F3
:1014B00010B54FEAD121A3F1010300F017F820F095
:1014C000004000F1010C00F0004701EB0050114614
:1014D000BCF5006F40EA070000D210BD02484FF093
:1014E000000140EA070010BD0000F07F002B26D469
:1014F000770021D01CB54FEA370703B44FF0100036
:101500004FF010014FF000000FBCBDE810400BF190
:10151000010BBBF1010F08BF5FEA170722BF12F1F1
:10152000010211F101014FF0004143F1000300F00D
:10153000004043EA00007047F9D35708DAE746EA6B
:10154000064613F1400F4FEA16461FDD13F1200F38
:10155000DFBF16430A46002120335B42C8D0C3F1E7
:10156000200746EA064602FA07F74FEA164646EA19
:101570000706C3F1200722FA03F201FA07F721FA5E
:1015800003F14FF0000342EA0702B1E746EA020620
:1015900046EA06464FEA164646EA0106BCBF46EA58
:1015A0000646360C4FF000034FF000024FF00001EA
:1015B0009EE72DE9C048934630B491E8380007C84B
:1015C00031EA400C48BF34EA430C03D5FFF7C8FDAD
:1015D000FFF78CFFF0BCBDE800882DE9C0489346BA
:1015E00030B491E8380007C831EA400C48BF34EA0B
:1015F000430C03D5FFF7B4FDFFF74EFFF0BCBDE889
:1016000000882DE9C048934630B491E8380007C8F7
:1016100010F0804F08BF13F0804F03D100F019F88D
:10162000FFF764FFF0BCBDE800882DE9C048934691
:1016300030B491E8380007C810F0804F08BF13F0AD
:10164000804F03D100F005F8FFF726FFF0BCBDE89E
:10165000008820F07F4780EA030023F07F4C07EBEF
:101660000C03A3F57C5300F00040A3F1FE0392F0BD
:10167000000F00F0B38095F0000F00F077802DE9A7
:1016800001494FEA11404FEA144621EA004800FBA5
:1016900006FC24EA064708FB06F607FB08F800FBF1
:1016A00007F718EB06484CEB164C4FEA124B18EBB9
:1016B00007484FEA15464CEB174022EA0B4E0BFB4E
:1016C00006FC25EA06470EFB06F607FB0EFE0BFBA3
:1016D00007F71EEB064E4CEB164C4FF000061EEBC8
:1016E000074E4CEB174B18EB0B0840F1000018EBC2
:1016F0000E0B58EB000840F100008F1A4FF000016C
:101700003CBFC943661B14BFB5EB040C00213CBFB2
:10171000C943F61B4FEA17444EEA8E0E27EA0445EA
:101720004FEA1C4704FB07622CEA074C05FB07F74E
:101730000CFB05F604FB0CFC16EB074642EB1742CC
:1017400016EB0C4642EB1C421BEB060658EB020262
:10175000414146EA9E0601D5BDE80189B6195241CC
:1017600041EB0101A3F10103BDE801894FEA1445F2
:101770004FEA114724EA054621EA074C05FB07F426
:1017800006FB07F70CFB06F105FB0CFC11EB074110
:1017900044EB17444FEA124711EB0C4144EB1C4455
:1017A00022EA074C05FB07F206FB07F70CFB06F6DF
:1017B00005FB0CFC16EB074642EB174216EB0C46FA
:1017C00042EB1C456A1854F1000148BF7047B61936
:1017D000524141EB0101A3F10103704795F0000F65
:1017E00037D04FEA11424FEA144721EA024624EA71
:1017F000074C02FB07F106FB07F70CFB06F402FBA4
:101800000CFC14EB074441EB17414FEA154714EB6E
:101810000C4441EB1C4125EA074C02FB07F506FB93
:1018200007F70CFB06F602FB0CFC16EB074645EB34
:10183000174516EB0C4645EB1C42121951F10001FD
:1018400048BF7047B619524141EB0101A3F10103B2
:1018500070474FEA14454FEA114724EA054621EA4A
:10186000074C05FB07F106FB07F70CFB06F24FF0F0
:10187000000605FB0CFC12EB074241EB174112EB93
:101880000C4251EB1C4148BF7047921841EB0101DB
:10189000A3F101037047000010B50122FE210C489E
:1018A00001F088FF03F00CFD00F04CF800F096F812
:1018B00000F08AFF00F080FD00F02AF800F0FEFC46
:1018C00000F020F803F0BEF9BDE8104000F048B980
:1018D0000018024010B5094800F078F800280BD035
:1018E00007480188491C018003F0A2FD03F0B2F90A
:1018F000BDE8104000F0D4B910BD00006700002022
:1019000004000020014802F07FBB0000000100201D
:1019100010B50F220749084802F042FF6422074928
:10192000054802F06AFC06480068016821F00801D9
:10193000016010BD90000020D8010020780B00202D
:101940004003002010B5084801F01AFC02210648A7
:1019500001F058F8054801F013FCBDE810401021D3
:10196000024801F04FB80000B0000020D80000206D
:1019700000B58BB0017A05910021069101210791F4
:1019800030F8021F009130F8021C01918188029109
:1019900041880391C1680491C17909910169089155
:1019A0008068694601F09EF80BB000BDFEE70000BC
:1019B000014801F098B90000B0000020014801F092
:1019C00092B90000D8000020C068704702484088E3
:1019D000002800D0012070476700002000F016B8F2
:1019E00010B513460A88B0F90A4092B2944209D160
:1019F0000A69C0681946FEF7FFFC03496420488065
:101A0000002010BD012010BD6700002000B587B088
:101A10004FF44071BDF8020061F34F10ADF80200C1
:101A200017490098084000909DF80000090C20F02C
:101A300006008DF80000BDF806000843ADF806006A
:101A400001984FF6FF7161F3D40001909DF80400F6
:101A50000C4940F006008DF8040002208DF80800C3
:101A600000208DF80900CDF80A10CDF80E000120F5
:101A7000CDF812006846FFF77BFF07B000BD0000FD
:101A80000700E0FFB000002003494888002801D08B
:101A9000401E4880704700006700002000487047E3
:101AA000CE0A002038B504460020ADF80000A0782A
:101AB000E178042200EB012085B22146684604F05B
:101AC000C4FA2A46A11D684604F0BFFA0848BDF8CA
:101AD00000108088884209D12146054C5222523498
:101AE000A01DFEF789FC6420A4F8030038BD0000A7
:101AF000CE0A002010B552220549064802F07DFBAF
:101B000005480068016821F00801016010BD00006F
:101B1000CE0A0020D80100204003002010B5FFF7B6
:101B2000C1FFBDE81040FFF7E5BF00000749B1F86D
:101B3000010010B1401EA1F80100B1F80300002817
:101B400002D0401EA1F8030070470000200B0020C7
:101B5000024880ED550AC0ED560A70470004002087
:101B600070B5444C00202DED068B01212080608053
:101B700084F85D1184F85C019FED3F8A04F1080050
:101B800084ED018A054602F0C5FFDFED3C8A9FED3A
:101B90003C9ADFED3C9A9FED3CAADFED3CAAF0EECB
:101BA000682AB0EE492AF0EE691AB0EE4A1AF0EE51
:101BB0006A0AB0EE020A284602F0C8FF04F14800A3
:101BC00084ED118A054602F0A5FFF0EE682AB0EE1A
:101BD000492AF0EE691AB0EE4A1AF0EE6A0AB0EE3F
:101BE000020A284602F0B2FF04F1880084ED218A3F
:101BF000054602F08FFFF0EE682AB0EE492AF0EEBB
:101C0000691AB0EE4A1AF0EE6A0AB0EE020A2846E5
:101C100002F09CFF04F1C80084ED318A054602F011
:101C200079FFF0EE682AB0EE492AF0EE691AB0EEBC
:101C30004A1AF0EE6A0AB0EE020A284602F086FF5F
:101C400084ED418A04F58470044602F063FFB0EE2F
:101C5000492AB0EE481AF0EE480ABDEC068B204641
:101C6000F7EE002AB0EE0C0ABDE87040DFED081A6E
:101C700002F06CBF00040020000000006666663FB2
:101C80006F12833A3333B33ECDCCCC3E8FC2753D19
:101C90008FC2F53C014981F85C01704700040020C7
:101CA00070B5FF4C2DED0A8B608800287ED121880D
:101CB00000297CD0FB4DFC4E0129D5F8210077D0BE
:101CC000022973D10068D4ED410A00EE100A04F530
:101CD000847030EEC00A84ED420ADC3404F038FA35
:101CE00084ED140A9FEDF10AF6EE009A86ED000AE3
:101CF0009FEDEFAB55F8210FD6ED010AF0EE008A0B
:101D0000006800EE100A30EE600A60EE280A9FEDCF
:101D1000EA9A9FEDEA8AB0EE480A00EEC90A10EE90
:101D2000100A05F011F841EC100B03F031FCB0EE95
:101D300040BAF0EE60BAE06F05F006F853EC1B2BEA
:101D400004F0D8FD41EC1B0B2868D6ED010A0068B1
:101D500000EE100A30EE600A60EE280AB0EE480A83
:101D600000EE890A10EE100A04F0EEFF41EC100BB1
:101D700003F00EFCB0EE40CAF0EE60CAA06F04F0B3
:101D8000E3FF53EC1C2B04F0B5FD53EC1B2B04F0CC
:101D9000CBFA53EC1A2B04F0C7FA04F093FA44F888
:101DA000D80C96ED000A20EE290A02E08FE191E1BD
:101DB000A0E110EE100A04F0C7FF41EC1A0B2868EE
:101DC000D6ED010A006800EE100A30EE600A60EEFF
:101DD000280AB0EE480A00EE890A10EE100A04F054
:101DE000B3FF41EC100B03F0D3FBB0EE40BAF0EEC2
:101DF00060BAE06F04F0A8FF53EC1B2B04F07AFDEF
:101E000041EC1B0B2868D6ED010A006800EE100AB1
:101E100030EE600A60EE280AB0EE480A00EEC90A09
:101E200010EE100A04F090FF41EC100B03F0B0FB31
:101E3000B0EE40CAF0EE60CAA06F04F085FF53EC2C
:101E40001C2B04F057FD53EC1B2B04F093FE53ECBA
:101E50001A2B04F069FA04F035FA44F8980C96ED60
:101E6000000A20EE290A10EE100A04F06DFF41EC82
:101E70001A0B2868D6ED010A006800EE100A30EE51
:101E8000600A60EE280AB0EE480A00EEC90A10EEB9
:101E9000100A04F059FF41EC100B03F079FBB0EE8F
:101EA00040BAF0EE60BAE06F04F04EFF53EC1B2B2B
:101EB00004F020FD41EC1B0B2868D6ED010A0068F8
:101EC00000EE100A30EE600A60EE280AB0EE480A12
:101ED00000EE890A10EE100A04F036FF41EC100BF8
:101EE00003F056FBB0EE40CA94ED1E0AF0EE60CA55
:101EF000B1EE401A11EE100A04F026FF53EC1C2B31
:101F000004F0F8FC53EC1B2B04F034FE53EC1A2BBA
:101F100004F00AFA04F0D6F944F8580C96ED000AD9
:101F200020EE290A10EE100A04F00EFF41EC1A0B05
:101F30002868D6ED010A006800EE100A30EE600A4B
:101F400060EE280AB0EE480A00EE890A10EE100A88
:101F500004F0FAFE41EC100B03F01AFBB0EE40BAAD
:101F6000F0EE60BAE06F04F0EFFE53EC1B2B04F0D0
:101F7000C1FC41EC1B0B2868D6ED010A006800EE9D
:101F8000100A30EE600A20EE280A00EE498A18EEA8
:101F9000100A04F0D9FE41EC100B03F0F9FAB0EE90
:101FA000408A94ED1E0AF0EE608AB1EE400A10EE0F
:101FB000100A04F0C9FE53EC182B04F09BFC53EC00
:101FC0001B2B04F0B1F953EC1A2B04F0ADF904F01B
:101FD00079F944F8180C55F8130C9FED398AB0F9CB
:101FE000140000EE100AA4F1D400F8EEC00A80EE4E
:101FF000880A54ED360A30EEC00A04ED350A04F0C2
:10200000A7F804ED2C0A55F8130CB0F9300000EED7
:10201000100AA4F19400F8EEC00A80EE880A54ED8C
:10202000260A30EEC00A04ED250A04F091F804ED0A
:102030001C0A55F8130CB0F94C0000EE100AA4F17C
:102040005400F8EEC00A80EE880A54ED160A30EE0D
:10205000C00A04ED150A04F07BF804ED0C0A55F8EB
:10206000130CB0F9680000EE100AA4F11400B8EEE9
:10207000C00AC0EE080A14ED060A30EE600A04ED4C
:10208000050A04F065F884ED040AF0EE401A002118
:1020900014ED0C1A54ED1C0A14ED2C0A084611E03C
:1020A0000004002041000020080000200000000083
:1020B0000000000000000000DA0F4940DA0F493F3D
:1020C00000A00C4600F02CFA062024F8DA0CBDEC37
:1020D0000A8B70BD40F2F51060800120208084F8EA
:1020E000400084F8800084F8C00084F8000184F87F
:1020F0004001ECE74FF4FA7161800168716000689B
:10210000C4F8040102202080E1E700000349488868
:10211000002801D0401E48807047000000040020C5
:102120002DE9F05F05002DED068B7CD012297AD1C8
:102130002888574CC0F30A0020806978AA78C9081B
:1021400041EA4211C1F30A0161808B46A978EA781D
:10215000890941EA82012A79A0F5B67041EA822113
:10216000C1F30A01A180884629796A79490841EAC0
:10217000C211C1F30A07E7802E8A2681697989098D
:10218000A1728A466979C1F30111E172894604F0AE
:102190004AFB9FED408B53EC182B04F0ABFB9FEDFB
:1021A0003F9B53EC192B04F07BF99FED3EAB53ECB6
:1021B0001A2B04F0DFFC9FED3D1B53EC112B04F0B8
:1021C000D9FC04F07FF8E060ABF5B67004F02BFBAF
:1021D00053EC182B04F08EFB53EC192B04F060F930
:1021E00053EC1A2B04F0C6FC04F06CF82061A8F53F
:1021F000B67004F018FB53EC182B04F07BFB53EC87
:10220000192B04F04DF953EC1A2B04F0B3FC04F035
:1022100059F86061A7F5B67004F005FB53EC182B74
:1022200004F068FB00E02FE053EC192B04F038F9C0
:1022300053EC1A2B04F09EFC04F044F8A061A6F5C0
:10224000B67004F0F0FA53EC182B04F053FB53EC87
:10225000192B04F025F953EC1A2B04F08BFC04F035
:1022600031F8E06184F820A084F82190E888608447
:102270002889A0846889E084287B84F82800687B0A
:1022800084F82900E8896085BDEC068BBDE8F09FE5
:102290004408002000000000000000400000000092
:1022A00000A09440000000000000F03F000000404B
:1022B00099B8A53F004870477408002010B5242243
:1022C0000549064801F099FF05480068016821F0BA
:1022D0000801016010BD000074080020900100207A
:1022E000E002002010EE101A826830EEC11A00EEF3
:1022F000902A00EE101ADFED1A1AC26030EEC00A02
:1023000071EE610A81604368B4EEE00AF1EE10FA02
:1023100004DD00EE103A30EE010A12E000EE102A61
:1023200000EE901A30EE600A71EEC10AB4EEE00AD7
:10233000F1EE10FA01D3426806E000EE103A30EEFA
:10234000410A10EE102A426000EE902A00EE101AA8
:1023500030EE800A10EE101A016000EE101A70477D
:10236000CDCC4C3E70B515460A460146108801EBAF
:10237000410202EB01130F4A80B21344B3F90C205F
:102380009C7C824205DA801A401E80B2421CA24226
:1023900001D9012070BDD3F80E30C0EBC0041B265C
:1023A00006EB840401221A55C2B2284600F0D6F882
:1023B000002070BD4100002010B500F007F8BDE816
:1023C0001040014802F0A6BB40090020F0B587B0DC
:1023D0004FF40171BDF80200314D61F34F10ADF8BB
:1023E000020000984FF4FE66284000909DF800001F
:1023F0004FF6FF7720F006008DF80000BDF80600CC
:10240000284966F34F10ADF806000198012467F3E0
:10241000D40001909DF8040040F006008DF80400FF
:1024200000208DF808008DF80900CDF80A10CDF8CD
:102430000E00CDF812406846FFF79AFABDF8020088
:10244000610261F34F10ADF802000098284000903F
:102450009DF8000020F006008DF80000BDF8060091
:1024600066F34F10ADF80600019867F3D4000190B1
:102470009DF8040040F006008DF804000E208DF851
:1024800008008DF809000848CDF80A00CDF80E4084
:10249000CDF812406846FFF76BFA07B0F0BD0000B8
:1024A0000700E0FFB0000020D800002070B500EB6E
:1024B000400606EB001619488AB0304400EB410193
:1024C000DDE90E54B1F90810029100210491059143
:1024D00008210691110A8DF800108DF80120190AC3
:1024E0008DF80210290A8DF804108DF80550210A84
:1024F0008DF806108DF803308DF80740406808AB62
:102500006A4602A900F090FA0449491E00280870A2
:1025100001D000F016FA0AB070BD000041000020A2
:102520009FED0D2A1CB520EE020ABDEEC00A10EE8A
:10253000102A20EE820A61EE820ABDEEC00AFDEE8C
:10254000E00A10EE103A21EE020ABDEEC00A8DEC50
:10255000020AFFF7ABFF1CBD00008046F0B4038801
:102560009FED251A5BBA00EE103A44888679F8EEA2
:10257000400A65BA848801EB410080EE810A00EBD5
:1025800001111C4864BA0144C2EBC20051F80E7F2D
:102590001A2202EB800224B2BE540B68DFED170A48
:1025A00003EB80039FED161A10EE102A00EE104A7E
:1025B0001A600A68B8EEC00A142303EB80031A44B9
:1025C00020EE200A15800B68162404EB800410EE20
:1025D000102A2344F7EE000A1A60096801EB800212
:1025E0001268F0BC00EE102A042202EB80000844BE
:1025F000FFF778BE4100002000F8FF45000080385A
:1026000000000000074B002000EB400101EB00112F
:1026100019444A880AB1521E4A80401CC0B202289E
:10262000F2D3704741000020014800F037BE00009F
:1026300080020020014800F031BE0000200200208E
:10264000014800F02BBE000040030020014800F0CC
:1026500025BE0000E0020020014800F01FBE00007F
:10266000A003002001681823CAB2103AB2FBF3F2AB
:10267000054B6FF30901032A9B5CC36500D9091D53
:1026800081650846704700003E6F000810B501469E
:1026900000208B698A6A4FF0C07453B1B3F5005FB4
:1026A00015D072B1012A0CD0022A0AD0032A09D10E
:1026B00004E01AB1012A06D0022A03D1C96AC9016D
:1026C00000D5012010BDC96AA142FAD010BD002A70
:1026D000F7D0012AF2D0022AF3D0032AF3D010BD9A
:1026E00030B50468256825F480252560046863609A
:1026F0008368402B036803D099600068C26030BDD6
:102700009A600068C16030BD10EE101A826830EE29
:10271000C11A00EE902A00EE101ADFED1A1AC260FC
:1027200030EEC00A71EE610A81604368B4EEE00ADF
:10273000F1EE10FA04DD00EE103A30EE010A12E07C
:1027400000EE102A00EE901A30EE600A71EEC10A17
:10275000B4EEE00AF1EE10FA01D3426806E000EEB2
:10276000103A30EE410A10EE102A426000EE902A34
:1027700000EE101A30EE800A10EE101A016000EE22
:10278000101A7047CDCC4C3E70B514461278002319
:1027900062F307036278B0F9065062F30F230A88E8
:1027A00092B295420ED1B0F90420934205D10A6944
:1027B00021462F30FDF720FE02E0214600F04EF8C2
:1027C000002070BD012070BD054804490160102142
:1027D000C1801121818000F005B80000B000002008
:1027E000970A002000B587B01021BDF802001A4AF0
:1027F00061F34F10ADF802001649009808400090B0
:102800009DF80000090C20F006008DF80000BDF8CE
:1028100006000843ADF8060001984FF6FF7161F31A
:10282000D40001909DF80400002140F006008DF8CE
:10283000040001208DF808008DF80910CDF80A2059
:10284000CDF80E10CDF812006846FFF791F807B0EA
:1028500000BD00000700E0FFB000002010B50246F8
:102860000878DFED270A0009107208789FED250A25
:1028700000F00F005072B1F8010040BA00B2508170
:10288000CB780C791B0143EA141393814B790979B6
:1028900001F00F0143EA0121D181102103F0C6FCB0
:1028A000DFED190A0C2130EE200AF3EE090A10EED2
:1028B000100ABBEE090AC2F81200B2F90C0003F0CC
:1028C000B5FC10EE100A0C21C2F81600B2F90E0089
:1028D000F2EE040ABAEE040A03F0A8FC10EE100AA5
:1028E0009FED0A1AC2F81A00D2F81200BDE8104093
:1028F00000EE100ADFED060A02F11E00FFF704BF2A
:10290000560E4940560E49C0560EC9400000000000
:10291000DA0FC94010B5FFF703FCFFF7CFFC0249FF
:102920003220C88510BD0000440800200349C88D2E
:10293000002801D0401EC8857047000044080020D0
:10294000704772B6FEE72DE9FF4100241F46264678
:102950008DF80E4000F021F805000AD06946285D88
:10296000A0F13002092A08D92E2806D02D2804D03B
:1029700008E0002004B0BDE8F0810855641CE4B212
:10298000052CECD30E55084602F0E6FD51EC100B79
:1029900003F098FC38602819ECE770B515460E0076
:1029A00009D0FDF7F8FC040007D03046FDF705FD1F
:1029B0002844204470BD104470BD002070BD00004C
:1029C000094890ED021A31EE000A80ED020A90EDFE
:1029D000031A71EE200AC0ED030A044880ED220AB2
:1029E000C0ED570A7047000010000020600500206D
:1029F00003494888002801D0401E488070470000E5
:102A00006005002090F82020012A07D0022A05D076
:102A1000416A41F4802141620120704700684269A7
:102A20000A43426100207047F0B590F820500468D6
:102A3000A468012D05D0022D03D0416A41F4802104
:102A40004DE014F0406F01D1E50045D5C4F30164B9
:102A50000125A5401D608D684FF4C0739DB1CE68FF
:102A600035434E6845EAC605066803EB0417F55181
:102A70004FF4C275076805EB04150E697E51097D98
:102A8000012905D009E00E88CD6845EA4655EBE7F7
:102A900001684E5946F480764E511179D2F80550AE
:102AA0004FF4C67641EA0521056806EB0416A951E4
:102AB0001178D2F801204FF4C47541EA022102686E
:102AC00005EB04155151006803EB0411425842F024
:102AD000010242500020F0BD416A41F40011416200
:102AE0000120F0BD10B590F82020012A07D0022A5D
:102AF00005D0416A41F480214162012010BD3B486C
:102B0000D0F8002242F00102C0F80022D0F80022E2
:102B100022F47C52C0F80022D0F800224B6A42EA2C
:102B20000322C0F800220A7D02F01F0301229A400E
:102B3000D0F81C329343C0F81C32CB69B3B9D0F83B
:102B40000C329343C0F80C328C894B6864F31F43FA
:102B50004C6900EBC404C4F840320C890B6864F380
:102B60001F434C6900EBC404C4F84432CB69012B09
:102B700016D1D0F80C321343C0F80C320C884B68D5
:102B800064F31F434C6900EBC404C4F840320C8961
:102B9000CB6864F31F434C6900EBC404C4F84432AF
:102BA0008B69002BD0F804320ED01343C0F80432E6
:102BB0000B69002BD0F8143208D01343C0F814323C
:102BC000096A012904D008E09343EFE79343F5E74E
:102BD000D0F81C121143C0F81C12D0F8001221F0DA
:102BE0000101C0F80012002010BD00000064004088
:102BF000704770B590F82040012C05D0022C03D00E
:102C0000416A41F4802128E0046809B32469A407DB
:102C100020D04FF4D874056804EB01142D5915F039
:102C20000405956005682D591AD0ED0855600568B2
:102C30002C5904F00204D4604FF4DA74056804EBF4
:102C400001142E5906F00F06082E0CD308250DE0AE
:102C5000E468DCE7416A41F400114162012070BD83
:102C60006D0D1560E3E72D5905F00F051561056839
:102C70002D59C5F30725956105682C59240C54611D
:102C80004FF4DC72046802EB0112A4581C70046853
:102C9000A458240A5C700468A458240C9C7004682E
:102CA000A258120EDA704FF4DE72046802EB0112C1
:102CB000A4581C710468A458240A5C710468A458C0
:102CC000240C9C710468A258120EDA71006829B1B4
:102CD000016941F020010161002070BDC16841F02F
:102CE0002001C160F8E72DE9F05F05460068002487
:102CF0004669D0F804908768D0F80CB0D0F810A0DE
:102D0000D0F81880F10748D0F90714D0012181606C
:102D1000B80703D5284600F060FA0CE0780702D522
:102D20004FF4006407E0380702D54FF4805402E006
:102D3000284600F051FAF80516D529684FF480703E
:102D40008860B80503D5284600F049FA0CE07805FC
:102D500002D544F4005407E0380502D544F4804419
:102D600002E0284600F03AFAF80316D529684FF435
:102D700080308860B80303D5284600F032FA0CE0B2
:102D8000780302D544F4004407E0380302D544F444
:102D9000803402E0284600F023FA300707D55FEAC6
:102DA000CB6004D52968102044F40074C860700713
:102DB0004FF0080707D55FEA0B7004D52868C76095
:102DC000284600F099F9B00706D52868C068800742
:102DD00002D0284600F092F9700607D55FEACA6073
:102DE00004D52968102044F480640861B00607D532
:102DF0005FEA0A7004D528680761284600F0A4F944
:102E0000F00606D528680069800702D0284600F041
:102E10009DF9B00308D55FEAC96005D5296810207F
:102E20004860284600F0AAF9F00307D55FEA097068
:102E300004D528684760284600F0D4F9300446D508
:102E40005FEA497040D5F00504D55FEAC87001D04B
:102E500044F00104B00504D55FEA887001D544F060
:102E60000204700504D55FEA487001D544F00404FB
:102E7000300529D518F0700F26D008F070004028D2
:102E800015D006DC102809D020280AD0302816D109
:102E90000AE050280ED0602811D10EE044F008045A
:102EA0000DE044F010040AE044F0200407E044F090
:102EB000400404E044F0800401E044F48074286895
:102EC000816921F070018161296804204860002C2B
:102ED00005D0686A204368622846FFF789FEBDE88E
:102EE000F09F70B5040003D094F8200010B104E006
:102EF000012070BD204600F081F82068016841F093
:102F00000101016000F05CFC0546052604E000F0CC
:102F100057FC401B0A2811D820684068C007F6D02B
:102F20002068016821F00201016000F049FC0546BB
:102F30000BE000F045FC401B0A2806D9606A40F40B
:102F40000030606284F82060D2E720684068800723
:102F5000EFD4207E0128206801683DD021F0800157
:102F60000160607E01282068016838D021F04001AE
:102F70000160A07E01282068016833D021F0200183
:102F80000160E07E0128206801682ED041F0100128
:102F90000160207F01282068016829D021F0080104
:102FA0000160607F01282068016824D021F00401BD
:102FB0000160D4E902010843D4E904121143084333
:102FC0006168491E08432168C861002060620120D1
:102FD00084F82000002070BD41F08001C0E741F07E
:102FE0004001C5E741F02001CAE721F01001CFE719
:102FF00041F00801D4E741F00401D9E7F0B587B00A
:10300000044614216846FDF73CFA364B3648DFF893
:10301000D0E01968D4F800C0334A032502260927F6
:1030200010300024491CF44522D11960012907D130
:10303000016841F000710160006800F000700590C7
:10304000106840F0080010601068CDE9005600F0EC
:103050000800CDE9047069462448CDE9024500F036
:103060008FFA00221146142000F018FC142033E0DF
:10307000DFF87CE0F44531D1D0F800C04CF0806C32
:10308000C0F800C0D0F800C001290CF0806CCDF869
:1030900014C0196007D1016841F000710160006837
:1030A00000F000700590106840F002001060106899
:1030B00002AB00F0020005904FF44050CDE900064D
:1030C00083E8B00069460B4800F05AFA0022114626
:1030D000412000F0E3FB412000F0D2FB07B0F0BD3F
:1030E000006400400000002030380240000C024024
:1030F00000680040000402407047000000B50E491F
:1031000087B0884216D10D4B6A460021FFF771FD4A
:1031100008B1FFF716FC094A69460120FFF722F9BA
:10312000064A69460648FFF72FFB044A69460548E8
:10313000FEF756FC07B000BDB00000208000002064
:10314000970A0020670000207047000000B5094979
:1031500087B088420CD1084B6A460121FFF749FD30
:1031600008B1FFF7EEFB044A69460020FFF7FAF8C2
:1031700007B000BDD8000020880000207047000084
:1031800070B5044690F82000012804D0606A40F42D
:103190000020606218E0022084F8200020680168A6
:1031A00021F00101016000F00BFB05460EE000BFBD
:1031B00000F006FB401B0A2808D9606A40F4003082
:1031C0006062052084F82000012070BD20684068FE
:1031D000C007EDD1606270BD70477047704770479F
:1031E0007047704770472DE9F0410446876D00F045
:1031F000E7FA064694F835000025022806D080201C
:10320000606584F834500120BDE8F08120680168D1
:1032100021F0160101602068416921F080014161BF
:10322000206C08B9A06C20B12068016821F0080169
:1032300001602068016821F0010101600CE000F0EC
:10324000BFFA801B052807D920206065032084F879
:10325000350084F83450D7E720680068C007EED105
:1032600094F85C103F208840B860012084F8350055
:1032700084F834500020C7E790F83510022903D0B5
:103280008021416501207047052180F835100068D4
:10329000016821F001010160002070472DE9F84329
:1032A00004464FF00009CDF8009063484FF41651E2
:1032B000A56D0068B0FBF1F72E6894F85C1008204B
:1032C00000FA01F131420FD021680A6852070BD58C
:1032D0000A6822F004020A6094F85C108840A86032
:1032E000606D40F00100606594F85C104FF00108DB
:1032F00008FA01F0304208D021684969090604D56E
:10330000A860606D40F00200606594F85C100420D5
:103310008840304208D021680968890704D5A86030
:10332000606D40F00400606594F85C1010208840E7
:10333000304218D021680968090714D5A8602068B0
:103340000168490304D50068000308D5A16C07E0B3
:103350000168C90503D4016821F008010160216CEE
:1033600009B12046884794F85C10202088403042FC
:1033700031D021680968C9062DD5A86094F83500B8
:1033800005282068016806D0490347D50068000376
:103390001DD4616C1CE021F01601016020684169B8
:1033A00021F080014161206C08B9A06C20B1206837
:1033B000016821F00801016094F85C103F2088400A
:1033C000A86084F8358084F83490216D1FE0E16BAB
:1033D00009B120468847606D00282BD0606DC0077A
:1033E00014D0052084F835002068016821F001011F
:1033F00001600098401C0090B84203D82068006823
:10340000C007F6D184F8358084F83490E16C002947
:1034100010D001B02046BDE8F04308470168C90557
:10342000D5D4016821F01001016084F8358084F85A
:103430003490CCE7BDE8F883AC0000202DE9F041E2
:10344000044600F0BDF906465CB1022084F8350060
:10345000002584F834502068016821F001010160E2
:103460000DE00120BDE8F08100F0AAF9801B0528DD
:1034700005D920206065032084F83500F2E7206834
:103480000068C007F0D12268116820480140D4E9E3
:1034900001031843D4E903363343184363691843DF
:1034A000A3691843E3691843236A18430843616A10
:1034B000042903D1D4E90B13194308431060206891
:1034C0004069666A20F0070130460E430127042850
:1034D0000CD1A06A0643E06A40B12046FFF7D6F857
:1034E00020B14020606584F83570BAE720684661F5
:1034F0002046FFF7B7F894F85C203F2191408160A7
:10350000656584F835700020ACE700003F8010F05E
:103510002DE9F0410446866D90F83400002501281D
:103520000DD0012084F8340094F835700020012F6C
:1035300007D084F8340002252846BDE8F081022037
:10354000FBE7022784F8357060652046FFF7C8F86E
:1035500094F85C103F208840B0602068016841F01A
:1035600016010160206C20B12068016841F008015B
:1035700001602068016841F001010160DCE70000A2
:103580002DE9F84FDFF8F8A10022012403254FF0C0
:103590000F090AF1040BAAF1040E00BF0B6804FA2C
:1035A00002F63340B34270D10F7907F00307012FC1
:1035B00001D0022F16D187684FEA420805FA08FCAD
:1035C00027EA0C07D1F80CC00CFA08FC4CEA070CEF
:1035D000C0F808C04768B7430E79C6F30016964096
:1035E0003E4346600E79F643B6070AD0C7684FEAF5
:1035F000420C05FA0CF6B7438E6806FA0CF63E4309
:10360000C6600E7906F00306022E10D1D60800EB34
:103610008608D8F8206057074FEAD76C09FA0CF7EC
:10362000BE430F6907FA0CF73743C8F820700668E5
:103630004FEA420C05FA0CF7BE430F7907F0030777
:1036400007FA0CF7374307604E6816F4403F1CD06A
:103650004C4E376847F480473760366822F00307DE
:1036600006F480460096484E07EB060CDCF8086826
:1036700097073F0F09FA07F826EA0806DFF80C81DA
:10368000404503D14FF0000841E072E0DFF80081CF
:10369000404502D14FF0010839E0DFF8F88040459D
:1036A00002D14FF0020832E0DFF8EC80404502D151
:1036B0004FF003082BE0DFF8E480404502D14FF0E3
:1036C000040824E0DFF8D880404502D14FF0050817
:1036D0001DE0DFF8D080404502D14FF0060816E02B
:1036E000DFF8C480404502D14FF007080FE0DFF853
:1036F000BC80404502D14FF0080808E0DFF8B080F8
:10370000404502D14FF0090801E04FF00A0808FADD
:1037100007F848EA0608CCF80888DAF80060574647
:10372000D1F804C09E435FEACC2C00D51E433E6016
:10373000DBF800605F46D1F804C09E435FEA8C2C42
:1037400000D51E433E60DEF800607746D1F804C025
:103750009E435FEA8C3C00D51E433E60084F083F05
:103760003E68D1F804C09E435FEACC3C00D51E43BE
:103770003E60521C102AFFF411AFBDE8F88F000024
:10378000083C014044380240003001400000024043
:103790000004024000080240000C024000100240F9
:1037A0000014024000180240001C024000200240A9
:1037B000002402400AB1816170470904FBE7000060
:1037C0000148806870470000A0000020024881681E
:1037D0000278114481607047A00000200B4810B5AA
:1037E000016841F400710160016841F48061016089
:1037F000016841F480710160032000F06FF80F2030
:1038000000F006F800F024F8002010BD003C024053
:1038100070B50D4D04464FF47A712878B1FBF0F085
:103820000A490968B1FBF0F000F044FB48B9102CDC
:1038300007D200222146501E00F030F800206C60B4
:1038400070BD012070BD0000A0000020AC00002071
:103850000A4808B5016841F480410160006800F43D
:10386000804000900548001F016841F080510160D0
:10387000006800F08050009008BD0000443802400D
:10388000002809DB00F01F0201219140400980005F
:1038900000F1E020C0F8001170470000F0B40E4BBA
:1038A0001B680C46C3F30223C3F10705042D00D99E
:1038B0000425191D072901D2002300E0DB1E012683
:1038C00006FA05F1491E214099409E40761E164099
:1038D0003143F0BC01F02EBE0CED00E0064900F0D3
:1038E000070208684FF6FF03184040EA0220034A27
:1038F00010430860704700000CED00E00000FA057E
:103900002DE9F8431748016841F0805101600068D3
:10391000154F00F08050012600903E64FFF750FFE5
:1039200005464FF47A78114C05E000BFFFF748FFD9
:10393000401B40450DD86068C003F7D57E64FFF793
:103940003FFF0546464607E0FFF73AFF401BB042FF
:1039500002D90320BDE8F88360688003F4D5002015
:10396000F8E700004038024000000E4200700040BE
:103970002DE9F0470E46050065D0DFF81481D8F830
:103980000000F7B200F00F00B04207D288F80070D4
:10399000D8F8000000F00F00B04254D128683D4C28
:1039A000810712D5400703D5206840F4E05020601D
:1039B0002878000703D5206840F460402060206824
:1039C000A96820F0F000084320602878C0072DD0B7
:1039D000304968680839012812D0022813D003281A
:1039E00011D00968890700292DDA216821F0030127
:1039F00001432160FFF7E4FE814641F2883A0EE080
:103A000009688903EFE709688901ECE7FFF7D8FE49
:103A1000A0EB0901514502D90320BDE8F0872068D9
:103A2000696800F00C00B0EB810FEFD1D8F80010FE
:103A3000404601F00F01B14207D90770006800F05D
:103A40000F00B04201D00120E7E72878400705D5F4
:103A50002068E96820F4E0500843206028780007D7
:103A600006D52068296920F4604040EAC100206042
:103A700000F038F82168084AC1F30311515CC840CE
:103A80000649086006480068FFF7C2FE0020C4E748
:103A9000003C024008380240466F0008AC0000209D
:103AA000A40000200448054900680968044AC1F3DD
:103AB0008221515CC8407047AC00002008380240A9
:103AC000566F00080448054900680968044AC1F3B4
:103AD0004231515CC8407047AC00002008380240B9
:103AE000566F0008154810B5006810F00C02144815
:103AF00013D01449042A0FD0082A0ED10F4C241FCA
:103B00002268236802F03F025B0207D52068C0F3F9
:103B10008810A0FB010106E0084610BD2168C1F332
:103B20008811A1FB00010023FCF7BEFB2168C1F353
:103B30000141491C4900B0FBF1F010BD08380240BA
:103B40000024F400001BB7002DE9F84F04006ED0EC
:103B50002078DFF84C93C007A9F104054AD009F199
:103B600004000168C1F38101012908D00068C0F395
:103B7000810002280AD1D9F80000400206D5286841
:103B8000800337D560680028E1D033E06068B0F585
:103B9000803F10D0B0F5A02F286810D020F48030DE
:103BA0002860286820F4802028606068A8B1FFF7AA
:103BB00007FE06460DE0286840F48030F4E740F444
:103BC00080202860F7E700BFFFF7FAFD801B64281C
:103BD00073D828688003F7D50CE0FFF7F1FD06469F
:103BE00005E000BFFFF7ECFD801B6428F0D82868D3
:103BF0008003F7D42078DFF8AC8280074FF0000A0A
:103C00003ED5A748001D016811F00C0F08D00068D0
:103C1000C0F3810002280BD1D9F80000400207D47C
:103C20002868800716D5E068012800D112E033E14A
:103C3000E068B8B10120C8F80000FFF7C1FD0646F2
:103C400005E000BFFFF7BCFD801B0228C0D8286834
:103C50008007F7D52868216920F0F80040EAC10004
:103C600028600DE0C8F800A0FFF7AAFD064604E0B2
:103C7000FFF7A6FD801B02281FD828688007F7D40D
:103C80002078000722D5864F87486169703771B167
:103C900001210160FFF794FD064604E0FFF790FD67
:103CA000801B022809D838688007F7D50EE0C0F8D5
:103CB00000A0FFF785FD064605E082E0FFF780FDE6
:103CC000801B02287DD838688007F7D42078400709
:103CD00068D5DFF8CCB100270BF13C0BDBF8000016
:103CE000C0000BD4DBF8001041F08051CBF800107D
:103CF000DBF80000012700F0805000906B4E306828
:103D0000C00510D4306840F480703060FFF758FD73
:103D1000009005E0FFF754FD0099401A022850D8A2
:103D20003068C005F6D55E4EA0686C3601280FD00D
:103D30000528306810D020F001003060306820F095
:103D400004003060A068B8B1FFF73AFD00900FE0C2
:103D5000306840F00100F4E740F004003060F7E71D
:103D6000FFF72EFD0099411A41F28830814266D852
:103D700030688007F4D50EE0FFF722FD009007E0E1
:103D8000FFF71EFD0099411A41F28830814256D852
:103D900030688007F4D42FB1DBF8001021F0805197
:103DA000CBF80010A069C8B33D49091D0968C1F3EB
:103DB000810102294AD00228504607D0C8F8600085
:103DC00000E03CE0FFF7FCFC04463BE04746C8F857
:103DD0006000FFF7F5FC064605E000BFFFF7F0FCCA
:103DE000801B02282BD828688001F7D4D4E907016A
:103DF0000843A16A2E4A490802EB0141626A41EA7E
:103E00008211084394F82C1040EA0161C9F80010AF
:103E100001203866FFF7D4FC044606E03EE000BF10
:103E2000FFF7CEFC001B022809D828688001F7D5CF
:103E300034E000BFFFF7C4FC001B022802D90320B6
:103E4000BDE8F88F28688001F4D427E00128F7D076
:103E5000D9F80000E26900F4800191421CD1226A85
:103E600000F03F01914217D147F6C071626A0140EC
:103E7000B1EB821F10D1A26A4FF0FF3300F4403142
:103E800003EB5202B1EB024F06D194F82C1000F074
:103E90007060B0EB016F01D00120D1E70020CFE7C7
:103EA0000438024000004742800E47420070004044
:103EB0000000FFFF10B5401EB0F1807F01D301204C
:103EC00010BD4FF0E02460610F21601701F032FB5C
:103ED0000020A06107202061002010BD70477047BE
:103EE00070B590F83C20012A32D0012480F83C4083
:103EF000022280F83D2003685A689D6822F070060F
:103F00000A6832435A60134B02689A4214D0B2F1E5
:103F1000804F11D0104B9A420ED0104B9A420BD0CA
:103F20000F4B9A4208D00F4B9A4205D00E4B9A4243
:103F300002D00E4B9A4204D1496825F08003194300
:103F4000916080F83D40002180F83C10084670BD2B
:103F5000022070BD00000140000400400008004045
:103F6000000C0040000401400040014000180040E7
:103F700010B5040003D094F83D0010B107E0012013
:103F800010BD002084F83C00204600F01FF80220FD
:103F900084F83D00211D206800F0F6FE012084F821
:103FA000460084F83E0084F83F0084F8400084F81E
:103FB000410084F8420084F8430084F8440084F807
:103FC000450084F83D00002010BD000008B50068E1
:103FD0000B49884212D10B48016841F02001016071
:103FE0000068002200F02000009011463720FFF703
:103FF00055FCBDE808403720FFF742BC08BD000073
:10400000001400404038024090F83D10012901D0D2
:1040100001207047022180F83D100168CA6842F013
:104020000102CA6000681149884214D0B0F1804F83
:1040300011D00F4988420ED00E4988420BD00E494C
:10404000884208D00D49884205D00D49884202D0E7
:104050000C49884204D1816801F00701062903D088
:10406000016841F00101016000207047000001403B
:104070000004004000080040000C00400004014023
:10408000004001400018004070472DE9F04104460F
:104090000068C66805694FF00007A90713D5B10786
:1040A00011D5F91E01610120207720688069800701
:1040B000204602D0FFF7E8FF04E000F07EF820463B
:1040C00000F07CF82777680716D5700714D52168AB
:1040D0006FF004000861022020772068806910F4E6
:1040E000407F204602D0FFF7CFFF04E000F065F8E4
:1040F000204600F063F82777280715D5300713D539
:1041000021686FF008000861042020772068C069EA
:104110008007204602D0FFF7B7FF04E000F04DF81B
:10412000204600F04BF82777E80616D5F00614D5A0
:1041300021686FF010000861082020772068C069AE
:1041400010F4407F204602D0FFF79EFF04E000F00D
:1041500034F8204600F032F82777E80708D0F00757
:1041600006D021686FF001000861204600F028F8B1
:10417000280608D5300606D521686FF08000086152
:104180002046FFF7ABFE680608D5700606D5216805
:104190006FF040000861204600F02EF8A8060AD50E
:1041A000B00608D521686FF0200008612046BDE800
:1041B000F041FFF794BEBDE8F08170477047000002
:1041C0000C4910B5884213D100F050FDFEF7AEFB4C
:1041D000FEF718FAFDF79AFFFEF70AFC00F066FDFD
:1041E00001F086F9FDF7A2FCBDE81040FDF74CBCDC
:1041F00010BD000000010020704738B5044690F85B
:104200004200202801D0022038BD61B15AB10120FE
:10421000206300206063204600F0EAFF0028F3D10D
:10422000216B012901D0012038BD21680A68496845
:10423000009121680C3151E8002F42F0100241E852
:104240000023002BF5D138BD10B50C460E4988422D
:1042500004D12046BDE8104001F0DEB80B49884289
:1042600006D1FDF71BFCE1B2BDE81040FDF756BCDE
:104270000749884206D1FEF71DF8E1B2BDE81040BB
:10428000FEF748BB10BD000048010020D801002007
:104290009001002070470000F8B5016804460868E6
:1042A000CA684B6910F00F0F4FF000055AD003F0A9
:1042B000010602F49077374365D0C10705D0D105D8
:1042C00003D5616C41F001016164410705D5D9074F
:1042D00003D0616C41F002016164810705D5D90703
:1042E00003D0616C41F004016164010707D502F05D
:1042F0002001314303D0616C41F008016164616CBD
:1043000000293BD0800604D5900602D5204600F057
:1043100087FE20684069616CC0F3801001F00801DD
:10432000014320462BD000F046FE2068406940063D
:1043300021D52068143050E8001F21F0400140E8EA
:104340000012002AF5D1E06BA8B16E490165E06B5F
:10435000FEF792FF002811D0E06B016D01B0BDE8BF
:10436000F040084783060ED593060CD52046BDE8DD
:10437000F84000F055BE2046FFF78CFFF8BDFFF770
:1043800089FF6564F8BD266B2023012E7DD1C6060A
:104390007BD5D60679D508684868009048694FF003
:1043A0000206400641D5E16B086840680004000C35
:1043B000E8D0A28D8242E5D9E085C869B0F5807F5A
:1043C0002DD020680C3050E8001F21F4807140E8A7
:1043D0000012002AF5D12168143151E8000F20F0B5
:1043E000010041E80002002AF5D12068143050E8AD
:1043F000001F21F0400140E80012002AF5D184F8A6
:104400004230256320680C3050E8001F21F0100175
:1044100040E80012002AF5D1E06BFEF7E4FE666387
:10442000A08DE18D401A81B22AE0A08DE18D401A65
:1044300081B2E08D0028A5D00029A3D022680C32DB
:1044400052E8000F20F4907042E80007002FF5D1E9
:104450002068143050E8002F22F0010240E80027C5
:10446000002FF5D184F84230256320680C3050E8E5
:10447000002F22F0100240E80023002BF5D16663E4
:104480002046FFF7E1FEF8BDFFE705062BD5150630
:1044900029D594F841002128F5D1A068B0F5805FB6
:1044A00001D12069B0B1206A411C216221680078E5
:1044B0004860E08C401E0004000CE084E3D12068DA
:1044C000C16821F08001C1602068C16841F04001ED
:1044D000C160D8E7206A0088C0F308004860206AFD
:1044E000801C2062E5E74006CDD55006CBD5CA68D2
:1044F000204622F04002CA6084F8413000F08CF976
:10450000C1E700006D4E000870B5040004D094F8B7
:104510004100002510B106E0012070BD84F8405034
:10452000204600F023F8242084F841002068C16868
:1045300021F40051C160204600F0D4FD20680169DB
:1045400021F4904101612068416921F02A01416113
:104550002068C16841F40051C1606564202084F87E
:10456000410084F842006563002070BD2DE9F047EA
:1045700086B0044614216846FBF783FF7D487C4ED5
:10458000D4F800C0032102220823002507154FF0AC
:10459000400A4FF02069B4454CD1764E1036D6F81B
:1045A00000C04CF0004CC6F800C0366806F000466B
:1045B0000596066846F010060660006800F01000D8
:1045C00005908DE82600CDE9031369466A48FEF799
:1045D000D7FF6B4E6948C8463060C6E90195C6E909
:1045E00003577561B561F561356230467562FEF756
:1045F00025FF08B1FEF7A5F9E663B463604E5F4896
:1046000060369038C6E903577561B561F56135626A
:10461000756286E801053046FEF710FF08B1FEF727
:1046200090F9A663002211465320B463FFF736F9D0
:1046300053203CE04F4EDFF84C811436C4453BD14B
:10464000336843F010033360336803F010030593BD
:10465000036843F002030360006800F00200059065
:10466000C0208DE825000720CDE9031069464648A3
:10467000FEF786FF424E4548C03630604FF000607E
:10468000C6E90105C6E903577561B561F561356293
:1046900030467562FEF7D2FE08B1FEF752F9E663C6
:1046A000002211462520B463FFF7F8F82520FFF714
:1046B000E7F806B0BDE8F087DFF8D480C445F8D14C
:1046C000D6F800C04CF0200CC6F800C0366806F0E2
:1046D00020060596066846F040060660006800F071
:1046E00040000590CDE903134FF484408DE8250088
:1046F00069462848FEF744FF2449DFF89C801839B2
:104700004046C8F80010C0E90195C0E90357C8F851
:104710001450C8F81850C8F81C504E46C8F820501D
:10472000B946C8F82450FEF789FE08B1FEF709F92A
:10473000194FC4F83C806037C8F83840C7E90359BE
:104740007D61BD611148FD613D6260307D6287E839
:1047500041043846FEF772FE08B1FEF7F2F8A7638F
:10476000002211464720BC63FFF798F847209EE7D8
:10477000007C00403038024000100240A06002403F
:10478000200200200010014000040240406402406A
:104790000014014000180240400300207047704799
:1047A00070B5044690F84100202801D0022070BD69
:1047B00049B342B32162A284E284002060642123D1
:1047C00084F84130A56B114BEB63A56B104B2B6448
:1047D000A56B104BEB64A36B1865256813462A1D67
:1047E000A06BFEF795FE21686FF04000086020681E
:1047F000143050E8001F41F0800140E80012002A08
:10480000F5D1002070BD012070BD00006B4F000885
:10481000AD4F00087D4E000870477047FEE700006E
:104820000F4810B50D4901600521416000214FF48A
:1048300080228160C0E90312D20042610176012228
:1048400042768176C27601774177FEF74AFB0028EF
:1048500003D0BDE81040FEF774B810BD00640040FE
:10486000B00000200F4810B50D49016005214160DE
:1048700000214FF480228160C0E90312D20042611E
:104880000176012242768176C27601774277FEF781
:1048900028FB002803D0BDE81040FEF752B810BD39
:1048A00000680040D80000201D4808B5016841F4A8
:1048B00080010160016801F480010091016841F408
:1048C000001101600068002200F400100090114601
:1048D0000B20FEF7E3FF0B20FEF7D2FF002211466C
:1048E0001120FEF7DBFF1120FEF7CAFF0022114660
:1048F0003920FEF7D3FF3920FEF7C2FF0022114610
:104900003A20FEF7CBFF3A20FEF7BAFF002211460D
:104910004520FEF7C3FFBDE808404520FEF7B0BFC5
:10492000303802402DE9F04186B014216846FBF78B
:10493000A8FD33480024016841F0100101600168BE
:1049400001F010010591016841F04001016001682A
:1049500001F040010591016841F001010160016829
:1049600001F001010591016841F002010160016857
:1049700001F002010591016841F008010160016840
:1049800001F008010591016841F00401016001682E
:1049900001F004010591016841F0800101600068A7
:1049A000184F00F08000059001223C213846FEF7A8
:1049B00001FFDFF854804FF4FF7600223146404675
:1049C000FEF7F8FE4FF4C06001258DE8310069461E
:1049D0000E48FEF7D5FD3C200090CDE90154694614
:1049E00038460394FEF7CCFD0096CDE901546946A4
:1049F00040460394FEF7C4FD06B0BDE8F081000018
:104A000030380240001C02400018024000040240FE
:104A10001CB500240F4800940D4901940160112138
:104A2000C0E9011442F20F71C16080218161FFF77A
:104A30009FFA08B1FDF785FF009469460548019487
:104A4000FFF74EFA002801D0FDF77BFF1CBD0000E8
:104A500000140040000100200C4810B50A49016014
:104A60000B494160002181600C22C160C0E9041241
:104A70008161C161FFF748FD002803D0BDE8104007
:104A8000FDF75FBF10BD0000007C00404801002022
:104A9000009411000E4810B50C4901600D494160A9
:104AA0004FF48051816000214FF48062C0E903120D
:104AB0000422C0E90521C161FFF726FD002803D0CB
:104AC000BDE81040FDF73DBF10BD000000100140E3
:104AD00090010020A08601000C4810B50A49016031
:104AE0004FF4E1314160002181600C22C160C0E9D6
:104AF00004128161C161FFF707FD002803D0BDE802
:104B00001040FDF71EBF10BD00140140D801002069
:104B1000FEE7FEE79FED0C0A002180ED000A80ED24
:104B2000010A80ED040A80ED050A80ED030A80ED9C
:104B3000060A80ED070A80ED080A80ED090A80ED7B
:104B40000A0A80F838107047000000009FED0A3A0A
:104B500000F1180180ED033A80ED043AC0ED051A2A
:104B600080ED003A80ED012A80ED093AC0ED0A2A75
:104B700081EC030A7047000000000000704700004D
:104B800070B52B4C9FED2B1A606900EE900AA0695E
:104B900080EE810A00EE900AB0EE001A60EE810A03
:104BA000FDF70EFF2448FCF70FFF244D0168296034
:104BB00040686860B5F9020000EE100AB5F900001F
:104BC000B8EEC01A9FED1E0AC1EE000ABEEE001A32
:104BD00060EE810A01EE100AB8EEC11AC1EE001AA9
:104BE000B6EE000A21EE800AFCF7B2FF287902280F
:104BF00002D0032805D101E0002000E00120FDF7EC
:104C000049F8E06900EE100A00F03CF894F8210041
:104C1000012808D0022808D0032808D10020BDE8C8
:104C2000704000F03DB80220F9E70120F7E770BDC1
:104C300044080020000034C2670000203800002033
:104C400000007A4402480021017041807047000052
:104C50003808002004484188002903D105214180FB
:104C6000FFF78EBF704700003808002003494888CE
:104C7000002801D0401E48807047000038080020FE
:104C80007047000010EE100A0449B0F17C5F01DDAE
:104C9000012000E000200870704700002C00002078
:104CA00001498872704700001007002005494888B4
:104CB00008B1401E4880C888002801D0401EC88026
:104CC0007047000010070020FEF780BD30B593B09C
:104CD00030216846FBF7D5FB14210CA8FBF7D1FB6C
:104CE00020480025016841F080510160006800F013
:104CF000805011901C48016841F4404101600068F7
:104D0000022400F440401190012000900004019022
:104D10008001CDE9064006200890B420CDE90904C1
:104D200004200B906846FEF70FFF08B172B6FEE74D
:104D3000FEF7E6FD08B172B6FEE70CA90F2081E888
:104D400031004FF4A0500F904FF480501090052187
:104D50000CA8FEF70DFE002801D072B6FEE713B0D6
:104D600030BD000040380240007000400248016839
:104D700041F470010160704788ED00E00148FFF7E1
:104D800084B9000000010020F0B50268294C2A4DCA
:104D90002A4E2B4F2B4B4FF0804CA04209D0604540
:104DA00007D0A84205D0B04203D0B84201D0984203
:104DB00004D122F0700E4A6842EA0E02A0421BD0D3
:104DC000604519D0A84217D0B04215D0B84213D0D0
:104DD000984211D01C4DA8420ED01C4DA8420BD0B9
:104DE0001B4DA84208D01B4DA84205D01A4DA84221
:104DF00002D01A4DA84203D122F44075CA682A4352
:104E00004D6922F080022A4302608A68C2620A6801
:104E10008262A04201D0984201D109690163012157
:104E200041610169C90703D0016921F001010161F4
:104E3000F0BD0000000001400004004000080040F8
:104E4000000C0040000401400040014000440140CB
:104E50000048014000180040001C004000200040B5
:104E60000148FFF719BA00004801002010B5806B17
:104E70000021C185C184FFF70DFA10BD70B5846BA8
:104E80002068406994F84110C0F3C0100025212922
:104E900004D118B1E584204600F0B4F820684069D8
:104EA00094F84210C0F38010222904D118B1E5858E
:104EB000204600F080F8606C40F0100060642046EE
:104EC000FFF7E8F970BD10B50146806B0968096805
:104ED0004FF00002C9052ED4C28501680C3151E89B
:104EE000003F23F4807341E80034002CF5D10168C1
:104EF000143151E8003F23F0010341E80034002C55
:104F0000F5D10168143151E8003F23F0400341E836
:104F10000034002CF5D1202180F84210016B0129CA
:104F200009D101680C3151E8003F23F0100341E83A
:104F30000034002CF5D14263016B012902D0FFF748
:104F40002DFC10BD818DFFF77FF910BD10B5806B72
:104F500001214163016B012902D0FFF720FC10BD44
:104F6000818D4908FFF770F910BD10B50146806BBF
:104F700009680968C90516D40021C1840168143183
:104F800051E8002F22F0800241E80023002BF5D1E8
:104F900001680C3151E8002F42F0400241E8002343
:104FA000002BF5D110BDFFF737FC10BD10B5806B9D
:104FB000FFF733FC10BD01680C3151E8002F22F4DB
:104FC000907241E80023002BF5D10168143151E8BB
:104FD000002F22F0010241E80023002BF5D1016BE4
:104FE000012909D101680C3151E8002F22F010028B
:104FF00041E80023002BF5D1202180F84210002148
:105000000163704701680C3151E8002F22F0C002A3
:1050100041E80023002BF5D1202180F84110704792
:1050200008B590F84210222901D0022008BD8268FC
:105030004FF480539A4201D1016921B1816A9A42A9
:105040001BD04AB10AE00268816A5268C2F30802C2
:105050000A80816A891C08E0026972B1026852689C
:1050600002F07F020A70816A491C8162C18D491E6B
:105070000904090CC18503D01BE002685268F1E7FE
:105080000168CA6822F02002CA600168CA6822F476
:105090008072CA6001684A6922F001024A612021D7
:1050A00080F8421000214163026B012A03D0FFF710
:1050B00075FB002008BD016301680C3151E8002F29
:1050C00022F0100241E80023002BF5D101680A68A4
:1050D000D20602D50A6849680091818DFFF7B4F8BD
:1050E000E7E7000070B5044600680169E26821F452
:1050F0004051114301612169A068E2690843616977
:10510000114308432168CA6849F20C639A43024379
:10511000CA6020684169A26921F44071114341616C
:1051200031492068884202D03049884202D1FEF7D6
:10513000C9FC01E0FEF7B6FCE269002319216425F1
:105140003226B2F5004F626828D0A0FB0101930F10
:105150009200FBF7A9F80146B0FBF5F06FF01802DA
:10516000504301EB800006EB0010B0FBF5F000F0BF
:10517000F002B1FBF5F002EB0012B1FBF5F06FF0BD
:105180001803584301EB800006EB0010B0FBF5F06C
:1051900000F00F0021681044886070BDA0FB010181
:1051A00092185B41FBF780F80146B0FBF5F0020175
:1051B000B1FBF5F06FF01803584301EB800006EBEC
:1051C000C000B0FBF5F000F0F80002EB4002B1FBCC
:1051D000F5F0584301EB800006EBC000B0FBF5F0A2
:1051E00000F00700D6E70000001001400014014065
:1051F00038B581620446828500201346606422220D
:1052000084F84220E56B1B4AEA63E56B1A4A2A647C
:10521000E56B1A4AEA64E26B10650A462168E06BA6
:10522000091DFEF775F92068016840680090206943
:1052300048B120680C3050E8001F41F4807140E80C
:105240000012002AF5D12068143050E8001F41F008
:10525000010140E80012002AF5D12068143050E81E
:10526000001F41F0400140E80012002AF5D1002063
:1052700038BD0000C74E00084D4F00087D4E0008A5
:105280000148FFF709B80000900100200148FFF72E
:1052900003B80000D8010020FEE70000064901EB3A
:1052A000C000D0F81F1021B1D0F8230000EE100A82
:1052B00070479FED020A70477C0900200000000043
:1052C000234810B500210177817722A1C0F81F1073
:1052D00023A1C0F8271025A1C0F82F1026A1C0F8DF
:1052E000371028A1C0F83F102AA1C0F847102CA100
:1052F000C0F84F102DA1C0F857102FA1C0F85F10B3
:1053000030A1C0F8671032A1C0F86F1033A1C0F807
:10531000771035A1C0F87F1036A1C0F8871038A1EA
:10532000C0F88F1039491C2209688161014638484C
:10533000FFF736FA06491E2297313548FEF75DFF22
:1053400034480068016821F00801016010BD0000C8
:105350007C09002063757272656E745F6B703A0031
:1053600063757272656E745F6B693A006375727211
:10537000656E745F6B643A0063757272656E745F1C
:1053800073773A0063757272656E745F7461723A16
:105390000000000073706565645F6B703A00000088
:1053A00073706565645F6B693A00000073706565D2
:1053B000645F6B643A00000073706565645F7377C7
:1053C0003A00000073706565645F7461723A0000B2
:1053D000616E676C655F6B703A000000616E676CB0
:1053E000655F6B693A000000616E676C655F6B64B6
:1053F0003A000000616E676C655F73773A000000E9
:10540000616E676C655F7461723A00003A6F000804
:105410004801002020020020044901228A7700224E
:105420000B1883F89820A1F8B50070477C0900207C
:105430002DE9F0412A4C607F002815D10A206077C1
:10544000217F04F197000027804679B101290BD113
:1054500001461E222348FEF7D0FE2348006801685B
:1054600021F0080101602777BDE8F081A07F0128C5
:10547000FAD100254FEA050604EBC60000F123032C
:10548000D0F81F1000224046FDF75DFA00B1054636
:10549000761CF6B20F2EEFD3F5B10820FFF7FEFE13
:1054A000B5EEC00AF1EE10FA01D1012200E00022AF
:1054B0000E4D08212846FEF77DF90D20FFF7EEFE80
:1054C000B5EEC00AF1EE10FA01D1012200E000228F
:1054D00004212846FEF76EF9A77701202077C3E75D
:1054E0007C09002048010020200200200018024012
:1054F0000349487F002801D0401E487770470000CC
:105500007C09002003B401984100009850EAC120B2
:1055100018BF04204A0D18BF40F0010040F2FF728E
:10552000B2EB515F08BF40F00200012808BF052020
:1055300002B070470907090E002804DB00F1E020E3
:1055400080F80014704700F00F0000F1E02080F8B0
:10555000141D70470000000030B583B00446FAF710
:10556000BAFF9FED090B05468DED000B0022214689
:105570006846FAF7D9FF2846FAF7B2FF9DED000B0F
:1055800003B030BD0000000000000000000000007B
:1055900010B52F499FED2C1B2DED020B84B0059803
:1055A00020F000408842D8BF9DED040B2DDD294935
:1055B000884209D1049840B94FF00100FAF790FFF2
:1055C00000F0A6FC06B010BD05DB9DED040B00F05D
:1055D00093FC06B010BD68469DED040B00F0A4F8E6
:1055E00010F0030004BF9DED021B9DED000B0CD0DD
:1055F00001280ED09DED021B9DED000B022817D057
:10560000012000F0E1FB06B010BD00F0A9FA06B0E1
:1056100010BD9DED021B9DED000B012000F0D4FBA1
:1056200051EC100B00F042FE06B041EC100B10BD27
:1056300000F096FA51EC100B00F038FE06B041EC89
:10564000100B10BD00000000000000000000000072
:10565000FB21E93F0000F07F30B540F2FF742DEDF3
:10566000048BF0EE608A18EE901A85B0B0EE408A96
:105670009FED2B9B05468DED008B34EA115147D0F1
:1056800053EC192B51EC180B01F062F840D02A466C
:1056900051EC180B01F005FC41EC180B18EE900AC8
:1056A0008DED008B34EA10501CD053EC192B51ECCB
:1056B000180B01F04DF82BD10220FAF711FF00F082
:1056C00047FC10EE901A18EE900A8DED020B8DED4E
:1056D000008B61F31E0003909DED020B05B0BDEC45
:1056E000048B30BD0220FAF7FBFE00F021FC10EE27
:1056F000901A18EE900A8DED020B8DED008B61F380
:105700001E0003909DED020B05B0BDEC048B30BD77
:1057100005B0B0EE480AF0EE680ABDEC048B30BD6F
:1057200000000000000000002DE9F14F04462DEDBF
:10573000020B2DED088B8AB09FEDE70B80ED020B7D
:10574000139EE74826F0004585420ADC9DED120BCA
:10575000002084ED000B0AB0BDEC088B03B0BDE85F
:10576000F08FE0489FEDE0AB9FEDE1BBA84247DD45
:10577000E14F9FEDE39B9FEDE48B9DED120B53EC0E
:105780001A2B51EC100B002E1CDD01F0F3F941EC4B
:10579000100BBD4208D053EC1B2B51EC100B01F049
:1057A000E9F9C4E900010BE053EC192B51EC100BA3
:1057B00001F0E0F953EC182B01F0DCF9C4E9000129
:1057C0000120C8E700F0B0FD41EC100BBD4208D04D
:1057D00053EC1B2B51EC100B00F0A6FDC4E90001AB
:1057E0000BE053EC192B51EC100B00F09DFD53EC2A
:1057F000182B00F099FDC4E900014FF0FF30AAE733
:10580000C348A84279DB9DED120B51EC100B00F060
:1058100033FC41EC180B9FEDC00B53EC102B01F047
:1058200069F89FEDBF1B53EC112B00F07DFD00F0DC
:10583000CBFF074600F0F7FF41EC190B53EC1A2B96
:1058400001F058F853EC182B01F088F941EC180BD3
:1058500053EC1B2B51EC190B01F04CF8DFF8C8A2EC
:1058600041EC100B4FEA15580125FA4453EC102B6C
:1058700051EC180B01F07EF9032DC4E900013DD075
:10588000C1F30A5005EB4511A8EB00001139814224
:1058900034DA0AEB051BB0EE48AA9BED000BF0EEE4
:1058A00068AA53EC102B51EC190B01F023F841ECD2
:1058B0001B0B51EC1A0B53EC1B2B01F05BF941EC69
:1058C000180B51EC1A0B53EC182B01F053F953EC55
:1058D0001B2B01F04FF99BED020B41EC1A0B53EC23
:1058E000102B51EC190B01F005F853EC1A2B01F0B9
:1058F00041F941EC100B6D1CB8E70EE0002EA8BF7B
:105900003846BFF628AF94ED000B51EC100B00F0B9
:10591000CDFCC4E9000178421DE7C6F3130040F452
:10592000801EC6F30A50A0F2F530471100F01F05A3
:10593000C5F12000DDF848B00890002006900790DF
:105940000520EC467949002D07EB0002794408BF99
:1059500051F8221009D051F8223001EB8201AB40FE
:105960004A68089922FA01F11943A1FB0E26A1FB0E
:105970000B131A449A4234BF0123002303EB060899
:105980000CEB8003D3E901A60E448E4234BF012103
:10599000002192448A4411B1924502D903E0924514
:1059A00001D2012100E00021C3E901A641444CF8E5
:1059B0002010011EA0F10100C4DC029800F100508B
:1059C000850F0298DDE903678000DDF8148000F0A0
:1059D0002AFF41EC1A0B304600F03CFF9FED541BB0
:1059E00053EC112B00F086FF41EC1B0B384600F006
:1059F00031FF9FED511B53EC112B00F07BFF41EC6D
:105A0000180B404600F026FF9FED4D1B53EC112B69
:105A100000F070FF41EC190B51EC180B53EC192BF3
:105A200000F082FC53EC1B2B00F07EFC53EC1A2B95
:105A300000F07AFCCDE90801002008909DED080BEC
:105A400053EC1A2B51EC100B01F094F853EC1B2B78
:105A500001F090F853EC182B01F08CF853EC192B53
:105A600001F07CF89FED381B53EC112B00F042FF46
:105A70009FED370B41EC180B53EC102B9DED080BF1
:105A800051EC100B00F036FF53EC182B00F04CFCDF
:105A90009FED310B41EC180B53EC102B9DED080BD7
:105AA00051EC100B00F026FF53EC182B00F03CFCDF
:105AB00041EC100B139810F0004F06D06D4251ECE2
:105AC000100B00F0F3FB41EC100B284684ED000BAB
:105AD00041E600000000000000000000000000009F
