:020000040800F2
:1000000048130020C1010008AD4C0008E14400087D
:1000100099490008190E00087557000800000000F3
:10002000000000000000000000000000614E000819
:10003000A524000800000000194D0008514F0008D9
:10004000DB010008DB010008DB010008DB01000820
:10005000DB010008DB010008DB010008DB01000810
:10006000DB010008DB010008DB0100087521000846
:1000700081210008DB0100088D210008DB01000858
:10008000DB01000899210008DB010008DB01000802
:100090001D0E0008DB010008DB010008DB01000881
:1000A000DB010008DB010008DB010008DB010008C0
:1000B000DB010008DB010008DB010008DB010008B0
:1000C000DB010008DB010008DB010008DB010008A0
:1000D000DB01000851570008DB0100085D570008EC
:1000E000DB010008DB010008DB010008DB01000880
:1000F000DB010008DB010008DB010008DB01000870
:10010000DB010008DB010008DB010008DB0100085F
:10011000DB010008DB010008DB01000805500008D6
:10012000DB010008A5210008B1210008DB0100085F
:10013000DB010008DB010008DB010008DB0100082F
:10014000DB010008290E0008DB010008DB010008C4
:10015000DB010008BD210008DB0100086957000829
:10016000DB010008DB010008DB010008DB010008FF
:10017000DB010008DB010008DB01000800000000D3
:10018000DB010008DB010008DB010008E950000882
:10019000DB010008DB010008DB010008DB010008CF
:1001A0000000000000000000DB010008DFF80CD0B8
:1001B00000F062FB00480047236600084813002057
:1001C0000648804706480047FEE7FEE7FEE7FEE7F1
:1001D000FEE7FEE7FEE7FEE7FEE7FEE7F54F000875
:1001E000AD0100082DE9F05F0546002092469B46D0
:1001F00088460646814640241BE02846414647463D
:10020000224600F034FA53465A46C01A914110D3A0
:1002100011461846224600F01BFA2D1A67EB01081A
:100220004F4622460120002100F012FA17EB000988
:100230004E41201EA4F10104DFDC484631462A4627
:100240004346BDE8F09F40EA01039B0703D009E065
:1002500008C9121F08C0042AFAD203E011F8013BB2
:1002600000F8013B521EF9D27047D2B201E000F80B
:10027000012B491EFBD270470022F6E710B513464A
:100280000A4604461946FFF7F0FF204610BD30B578
:1002900005462A460B4612F8010B13F8014B08B12C
:1002A000A042F8D01CB1002802D06D1CF1E728460E
:1002B00030BD421C10F8011B0029FBD1801A704789
:1002C0002DE9FE4F804681EA0300C00F0C460090E6
:1002D00021F0004123F00045B8EB0200A94105D20E
:1002E0004046214690461C460B46024623F00040FD
:1002F000104347D0270DC7F30A00C3F30A510290F9
:10030000401A019040286BDAC3F3130040F4801BBD
:100310000098924620B10023D2EB030A63EB0B0B4B
:1003200001985946C0F14002504600F091F9064646
:100330000D4650465946019A00F0A9F910EB080005
:100340006141002487EA115284EAE7731A4340D0DE
:10035000009A62B3019A012A4FEA075215DC001B8A
:1003600061EB02014FF0004202EA0752CDE9004280
:10037000001C41F5801132462B4600F02FFA03B0E5
:10038000BDE8F08F40462146F9E7001B61EB020112
:10039000001C41F5801300185B412018A2F50017DE
:1003A00047EB030140EAD570B6196D4111E06D08C5
:1003B0004FEA360645EAC0754FEA0752001B61EB6B
:1003C0000201001C41F5801149084FEA3000001974
:1003D000514132462B4603B0BDE8F04F00F0EFB973
:1003E0000098012240000023D0EB020263EBE0738F
:1003F000009821464FEAE074B8EB000061EB04017D
:10040000E9E783F000435BE781F0004158E72DE91D
:10041000FE4F81EA030404F0004421F000410094FF
:100420004FF0000B23F0004350EA01045ED052EA83
:1004300003045BD0C3F30A54C1F30A552C44A4F25D
:10044000F3340194A0FB0254C1F3130141F4801171
:10045000C3F3130343F4801301FB024400FB034E78
:10046000840A970A44EA815447EA8357A4FB076841
:1004700002958D0A05FB07854FEA932C04FB0C546B
:100480002705029D4FEA065847EA1637B5EB0805DF
:100490006EEB070C870E920E47EA811742EA831231
:1004A000A7FB0201B6EB0B0164EB00042B0D43EA42
:1004B0000C335E1844EB1C50DA465146E7FB020150
:1004C000C5F313044FEA0B3343EA14534FEA0432E3
:1004D000019C43EA0603A4F10C040294009CCDE9BC
:1004E00000B400F07BF903B0BDE8F08F00200146B6
:1004F000F9E72DE9F04D81EA030404F0004B21F007
:10050000004514464FF0000A23F0004150EA05026E
:1005100020D054EA01021DD0C5F30A570246C5F3A4
:100520001303C1F31300C1F30A5640F4801543F4DA
:100530008013A7EB0608101BD64608F2FD3873EBB4
:10054000050002D308F1010801E092185B41B8F1FF
:10055000000F03DA00200146BDE8F08D00204FF4C3
:100560008011064684460EE0171B73EB050705D382
:10057000121B63EB050306434CEA010C49084FEAE2
:10058000300092185B4150EA0107EDD152EA0300B6
:1005900012D082EA040083EA0501084305D0101B4B
:1005A000AB4106D20122002306E000224FF00043B7
:1005B00002E06FF0010253101AEB06004CEB0851F9
:1005C00010EB0A0041EB0B01BDE8F04D00F0F7B86D
:1005D0000EB5C10F80EAE0700844CA07002140F25E
:1005E00033438DE80E000A460B4600F0F7F803B0DF
:1005F00000BD00F0004230F000400AD0C10D01F50E
:100600006071C0F3160042EA0151C208400711436D
:10061000704700200146704701F0004330B421F0DC
:10062000004150EA010206D00A0DA2F56072C1F342
:100630001301002A02DC30BC00207047440F44EA5A
:10064000C104C100E01830BC00EBC25000F080B81B
:10065000202A04DB203A00FA02F100207047914082
:10066000C2F1200320FA03F3194390407047202A77
:1006700004DB203A21FA02F00021704721FA02F34C
:10068000D040C2F120029140084319467047202A09
:1006900006DBCB17203A41FA02F043EAE07306E0AA
:1006A00041FA02F3D040C2F12002914008431946BA
:1006B000704700000FB4002300B589B00CA9009169
:1006C0000B996FF00042CB601E4B06931E4B0793B5
:1006D0000423CDE901321D4A089202466B460020F0
:1006E00000F062F909B05DF814FB70B586B00646FB
:1006F0004FF0FF300091CDE90101002015460C4676
:1007000004903246694604A8FFF7D4FF03460498D4
:10071000211825B108B10A4600E022462A600028C7
:100720000DD0002B02DD0098884208D0081B0094F1
:10073000CDE901043246694604A8FFF7BBFF06B0C5
:1007400070BD0000E10B0008FF0B00089D080008C9
:100750000029A8BF7047401C490008BF20F00100D5
:10076000704710B4B0FA80FC00FA0CF050EA0104B3
:1007700004BF10BC704749B1CCF1200421FA04F445
:1007800011FA0CF118BF012121430843A3EB0C011E
:10079000CB1D4FEA00614FEA102042BF002010BC81
:1007A000704700EBC35010440029A4BF10BC704731
:1007B000401C490008BF20F0010010BC704710B574
:1007C000141E73F1000408DA401C41F10001921874
:1007D0005B411A4301D120F0010010BD2DE9F04D1D
:1007E00092469B4611B1B1FA81F202E0B0FA80F272
:1007F00020329046FFF72CFF04460F4640EA0A00DD
:1008000041EA0B0153465A46084313D0114653EAB6
:10081000010019D0C8F140025046FFF728FF0546F5
:100820000E46504659464246FFF712FF084305D090
:10083000012004E020463946BDE8F08D0020054344
:1008400046EAE0762C4337430A986305E40AA0EBB6
:1008500008000022FD0A44EA47540A3002D500206D
:100860000146E9E7010510196941DDE9084500196C
:100870006941BDE8F04DA2E7064C074D06E0E0688F
:1008800040F0010394E8070098471034AC42F6D3D7
:10089000FFF790FCE06B0008006C0008C0B24FF45A
:1008A000F05100F0E9B900002DE9FF4F087881B060
:1008B0009946FF2805D0491C2D2804D00024002388
:1008C00008E000230BE00124F9E703EB830300EBCE
:1008D0004303491C0878FF28F7D104B15B4200208C
:1008E0000090147801462D2C01D02B2C04D1521CE1
:1008F0002D2C12D00024009400251678FF2E0ED047
:100900000A24A0FB04C801FB0481002700FB071197
:10091000521C16EB0C006941EFE70124EBE7994408
:1009200050EA01020ED00024AA4D2646DFF8A88224
:1009300000F0B6F982468B46B9F1000009DAC9F138
:1009400000071BE001980021C0E9001105B0BDE8D7
:10095000F08F074612E0F80707D022462B463046B4
:100960004146FFF754FD0646884622462B46104670
:100970001946FFF74CFD04460D467F10002FEAD1C3
:10098000B9F1000F324643465046594602DAFFF7A6
:10099000B0FD01E0FFF73BFD009A0AB181F0004194
:1009A000019AC2E90001D1E72DE9FF4F1F468DB042
:1009B000D7E901464FF0FF382E2045464FF0000999
:1009C0000B90B9696D1C0E988847396A8246884732
:1009D0000028F6D1BAF1FF3F0AD024F4D064002EEB
:1009E00011DDBAF12B0F08D0BAF12D0F0BD102E0B7
:1009F000404611B0ABE744F48064B9696D1C0E98B1
:100A000088478246761E6946600501D52D2000E0A4
:100A10002B208DF8000001F1010B0DF1200809E0F9
:100A2000B9696D1C0E98884782460F9844F400748B
:100A3000761E0560002E02DDBAF1300FF0D00B9962
:100A40008A453ED144F0800406E00F99681CA9F164
:100A5000010944F400740860B9696D1C761E0E9893
:100A6000884782463028F0D02BE00B998A4505D183
:100A7000200603D444F08004761E18E0504605F0AA
:100A800033FD08B30DF11301761E44F400748B4559
:100A900008D2AAF130000BF8010B200607D5A9F106
:100AA000010003E0200602D409F101008146A005FF
:100AB00002D50F99681C0860B9696D1C0E988847AB
:100AC0008246002ED1DC53E0002E51DDBAF1650FD5
:100AD00002D0BAF1450F4BD1A00549D5B9696D1CBB
:100AE00024F44074761E0E9888478246002E0CDD52
:100AF0002B2804D0BAF12D0F07D144F48074B969C2
:100B00006D1C0E9888478246761EE00501D52D2182
:100B100000E02B2108F8011BCDF82C8021E00DF11D
:100B20002901761E44F4007488450CD2AAF13000E5
:100B300010F0FF0088F8000002D10B99884509D910
:100B400008F1010806E0E00501D5244801E042F281
:100B50000F708146B9696D1C0E98884782460F98C0
:100B60000560002E04DD504605F0BEFC0028D6D1FD
:100B7000F9690E988847FF208BF8000088F800007C
:100B80000020069007904B466A4608A906A8FFF782
:100B90008BFEA00502D46FF001002AE714F0240FA9
:100BA0000AD0E00714D1DDE906123868031D3B6066
:100BB0000068C0E900120BE0DDE90601FFF72CFD3B
:100BC0000146E00704D13868021D3A600068016000
:100BD00028460EE7000024400000F03FF1D8FFFF58
:100BE000426842B1016811F8013B23B1521EC0E9CD
:100BF0000012184670470121C160881E7047426884
:100C00005AB1C368016843B983688B4205D0491E55
:100C1000521CC0E90012002070474FF0FF307047AF
:100C20000EB540F2334102910021CDE900110A4690
:100C30000B46FFF7D3FD03B000BD70B5C1F30A52F8
:100C400001F000450024C1F3130140F2FF3341F4E9
:100C500080119A4201DA002070BD40F233439A427B
:100C6000A2F2334203DC5242FFF701FD00E0904064
:100C70002C43F1D0404270BD7F2801D9002208E00A
:100C8000064A02EB5002C007127800D1120902F0A6
:100C90000F0201209040084070470000A06B000840
:100CA0000EB540F2334202920022CDE900221346F3
:100CB000FFF794FD03B000BD10B50122FE211348DB
:100CC00002F048FB00F074F801F01EF900F0B9F8EA
:100CD00001F02CFB04F02EF904F094FD01F098F8DB
:100CE00000F04CF800F044F804F09CF800F086FAAC
:100CF00004F020F804F0FCFC03F07CFEBDE810409A
:100D000041F29411024804F0F9B8000000180240C2
:100D1000700A002010B50A4800F08EF800280DD0A7
:100D200008480188491C018004F024FE04F082F880
:100D300000F00EFCBDE8104004F0E8BC10BD00005F
:100D4000490000200400002030B50C4605000CD0FE
:100D5000022C0AD90548A11E0288284601F0E2FBB0
:100D6000291901F8020D000A487030BD94000020D6
:100D7000014802F019BF00002801002010B50F2221
:100D80000749084803F06EFB64220749054803F051
:100D900002F806480068016821F00801016010BDF2
:100DA0007200002048020020800A00207004002009
:100DB00010B5084801F0A2FF0221064801F0D8FB57
:100DC000054801F09BFFBDE810401021024801F0EA
:100DD000CFBB0000D80000200001002000B58BB080
:100DE000017A0591002106910121079130F8021F37
:100DF000009130F8021C0191818802914188039191
:100E0000C1680491C17909910169089180686946B6
:100E100001F01EFC0BB000BDFEE70000014801F030
:100E200018BD0000D8000020014801F012BD0000EC
:100E300000010020C06870474088002800D00120D1
:100E4000704700F017B8000010B513460A88B0F9D3
:100E50000A4092B2944209D10A69C0681946FFF764
:100E6000F2F9034964204880002010BD012010BD24
:100E70004900002000B587B04FF44071BDF8020072
:100E800061F34F10ADF80200174900980840009038
:100E90009DF80000090C20F006008DF80000BDF858
:100EA00006000843ADF8060001984FF6FF7161F3A4
:100EB000D40001909DF8040040F006008DF8040075
:100EC00002208DF808000E208DF809000748CDF8A3
:100ED0000A000020CDF80E000120CDF8120068466F
:100EE000FFF77CFF07B000BD0700E0FFD80000203F
:100EF00000B587B0B0F90830009300230293CDE924
:100F000003320A46406806AB694601F043FB07B06E
:100F100000BD000003494888002801D0401E4880D9
:100F2000704700004900002000487047C6090020B3
:100F300038B504460020ADF80000A078E17804221E
:100F400000EB012085B22146684605F047FB2A46A2
:100F5000A11D684605F042FB0848BDF800108088D6
:100F6000884209D12146054C52225234A01DFFF778
:100F70006AF96420A4F8030038BD0000C609002007
:100F800010B552220549064802F005FF05480068E1
:100F9000016821F00801016010BD0000C6090020B1
:100FA000480200207004002010B5FFF7C1FFBDE823
:100FB0001040FFF7E5BF00000749B1F8010010B18C
:100FC000401EA1F80100B1F80300002802D0401E25
:100FD000A1F8030070470000180A00209FED110AD5
:100FE0000022B0EE401A1AE000EB8203D3ED000AB3
:100FF000F5EEC00AF1EE10FA02DDF7EE001A01E09C
:10100000F0EE411A521CFCEEE11AD2B211EE903A07
:10101000DBB201EE903AF8EE611A00EEA10A8A42C4
:10102000E2D3704700000000024880ED550AC0ED91
:10103000560A7047300500204948D0F80E00B0F934
:10104000182000EE102AF8EEC00A9FED460AB0F90B
:101050003810B0F9583080EE801A00EE901AB0F9CE
:101060007800F8EEE00AC0EE801A00EE903AF8EE52
:10107000E00A31EE211AC0EE801A00EE900AF8EE76
:10108000E00A31EE611AC0EE801A71EE610A20EEBC
:10109000801ADFED350A21EE201A9FED342A61EE29
:1010A000021A01EE102AB8EEC11AC1EE002A01EEB2
:1010B000101AB8EEC11A81EE003A01EE103AB8EEFD
:1010C000C11A72EEC32A81EE003A01EE100AB8EEA0
:1010D000C11A72EEC32A81EE003A32EE831A21EE73
:1010E000001A21EE201A21EE022A01EE102AB8EE93
:1010F000C11AC1EE002A01EE101AB8EEC11A81EE33
:10110000003A01EE103AB8EEC11A72EE832A81EE6F
:10111000003A01EE100A1948B8EEC11AC0ED581A8B
:1011200080ED592A72EE832A81EE003A32EE831A5C
:10113000DFED0F2A21EE001A81EE220ADFED0D2AE3
:1011400080EE221A21EE200ADFED0B0A20EE200AA3
:10115000DFED0B0A20EE200A80ED5A0A70470000EE
:101160002300002000A00C465077D63DD053FB4210
:101170000070604500003B43FAD3B73E30050020C5
:101180000050C3479FED130A0B2809D2DFE800F097
:10119000080806090C0F1215181B1E009FED0E0AF9
:1011A00070479FED0E0A70479FED0D0A70479FED47
:1011B0000D0A70479FED0C0A70479FED0C0A7047AF
:1011C0009FED0B0A70479FED0B0A70479FED0A0ACF
:1011D00070470000000034420000484200005C42BA
:1011E000000070420000824200008C4200009642E3
:1011F0000000A0420000B4420000C84270B5594C43
:1012000000202DED068B20806080012084F86D0188
:10121000022084F86C019FED548A04F1080084EDEB
:10122000018A054603F044FDF7EE002ADFED4F8A00
:10123000B0EE682A9FED4E9AF0EE491ADFED4D9A16
:10124000B0EE691A9FED4CAAB0EE020A2846F0EE05
:101250004A0A03F049FD04F1480084ED118A05466D
:1012600003F026FDF7EE002AB0EE682AF0EE491AE8
:10127000B0EE691AF0EE4A0AB0EE020A284603F010
:1012800033FD04F1880084ED218A054603F010FD4A
:10129000F7EE002AB0EE682AF0EE491AB0EE691AAD
:1012A000F0EE4A0AB0EE020A284603F01DFD04F1F2
:1012B000C80084ED318A054603F0FAFCF7EE002AF7
:1012C000B0EE682AF0EE491AB0EE691AF0EE4A0A5A
:1012D000B0EE020A284603F007FD04F5847084EDA1
:1012E000418A054603F0E4FCDFED268ADFED232A80
:1012F0009FED232AF0EE681AB0EE481AF0EE480A85
:101300009FED210A284603F0EFFCF0EE480A9FED1E
:101310001F0A04F5C47003F098F904F5D07005466F
:1013200003F0C6FCDFED1A2A9FED1A2AF0EE681AC8
:10133000B0EE481AF0EE480ABFEE000A284603F065
:10134000D3FC9FED150AF3EE0E0A84ED670AC4ED97
:10135000650A84ED780AB7EE000A84ED610ABDECF7
:10136000068B70BD30050020000000006F12833A2C
:101370003333B33ECDCCCC3E8FC2753D959EEB430F
:101380008FC2753C8FC2F53C0040AF43CDCCCC3D05
:101390000000F0420AD7233C0000484270B5144DCB
:1013A000288808B1401E28801248134C90F83B0052
:1013B00084F8DC016988002919D194F8DD1188428C
:1013C00011D0FFF7DFFEDFED0D0A20EE200ABCEEA4
:1013D000C00A10EE100A00F5FA6081B2084803F066
:1013E0008DFD1420288094F8DC0184F8DD0170BDA7
:1013F00008000020C60E0020300500200000C84272
:10140000700A002070B54A4D2DED048B55F80E0F73
:10141000B0F9181000EE101AF8EEC00A9FED458AD8
:10142000D0F81A00DFED448A80EE880A00EE900AB8
:10143000B3EE049A60EE890A20EE280A03F0AEFAB1
:101440003E4C84ED5C0A2868B0F93810D0F83A00B8
:1014500000EE101AF8EEC00A80EE880A00EE900A3C
:1014600060EE890A20EE280A03F098FA84ED5D0AFE
:101470002868B0F95810D0F85A0000EE101AF8EEAB
:10148000C00A80EE880A00EE900A60EE890A20EE1B
:10149000280A03F083FA84ED5E0A2868B0F9781010
:1014A000D0F87A0000EE101AB8EEC00AC0EE080AB2
:1014B00020EEA80A00EE900A60EE890A03F06EFAA8
:1014C00084ED5F0A042104F5B870FFF787FD84ED11
:1014D000600A94F8DC01FFF755FE194884ED780A9C
:1014E000B0F84F0000EE100A04F5D070B8EE400AD4
:1014F00084ED660AD4ED670A30EEC00A84ED680A0E
:1015000005F0AAF884ED710AD4ED780A30EE800A6D
:1015100084ED790AD4ED600A03F0FFFB04F5C47092
:1015200003F080F884ED610ABDEC048B70BD00000F
:101530002300002000A00C46949E6B443005002040
:10154000C60E0020014981F86C017047300500206B
:101550002DE9F047FF4C2DED108B608800284CD111
:1015600021880127C1B3FC4EFC4D4FF00208D6F88C
:101570002100F9EE0C8AB2EE0A9A012941D0022923
:101580003BD14068D5ED020A00EE100A04F58470E4
:10159000814630EE600A20EE280AC0EE090A94ED7A
:1015A000410A30EE600A84ED420A05F055F884EDF8
:1015B0004B0A94F86D01012838D0022840D09FEDE5
:1015C000E83A9FEDE84ADFEDE84ADFEDE83A032824
:1015D00053D0042830D163E0FFE740F2F51060807B
:1015E000278084F8407084F8807084F8C07084F894
:1015F000007184F8407184F8D871BDEC108BBDE89F
:10160000F0874FF4FA716180406800EE100A85EDB2
:10161000020A00EE100A30EE400A20EE280AC0EE60
:10162000090AC4ED410AA4F80080E6E794F86C01C9
:10163000032802D184F86D8179E085ED010A76E016
:1016400094F86C01022802D09FEDC90AF5E7D6F89C
:101650002100D5ED020A406800EE100A30EE600A63
:1016600060EE280A80EE890A04F046FF84ED410A04
:101670005FF0030084F86D0159E0F0EE430AC5ED18
:10168000010ADFEDBC2AB0EE442AF0EE641AB0EE97
:10169000601AB0EE630A484603F026FB0420E9E72F
:1016A00085ED010AD6F82100D5ED020A406800EE6A
:1016B000100A30EE600A60EE280A80EE890A04F013
:1016C0001BFF84ED410AD6F8210095ED021AAA4AC3
:1016D000406800EE900A70EEC10A60EEA80AC0EE03
:1016E000891A70EE610A10EE901A91421FDA00EE2C
:1016F000900AA24970EEC10A60EEA80A80EE891A2B
:1017000030EE410A10EE100A884210D2DFED9C2A1A
:10171000F0EE430AB0EE442AF0EE641AB0EE601A1E
:10172000B0EE630A484603F0DFFA84F86D7195ED78
:10173000010A9FED94EA60EE0E0ADFED93EA80EE77
:10174000AE0A9FED92FA20EE0F0ADFED91FAC0EE9D
:101750002F0A9FED900A60EE800ADFED8F9A80EEEF
:10176000A90A10EE100AFEF744FF41EC1D0B56F8D3
:10177000210FD5ED020AB0EE00AA406800EE100A73
:1017800030EE600A60EE280A80EE890A60EE0A0AEE
:10179000DFED82AA9FED828AB0EE480A00EEEA0AE7
:1017A00010EE100AFEF725FF41EC100B04F0A4F92F
:1017B000D4F85801B0EE40BAF0EE60BADC34FEF76F
:1017C00018FF53EC1B2BFEF722FE41EC1C0B30687C
:1017D000D5ED020A406800EE100A30EE600A60EEB5
:1017E000280A80EE890A60EE0A0AB0EE480A00EE86
:1017F000EA0A10EE100AFEF7FCFE41EC100B04F0B2
:10180000DFF9B0EE40BAF0EE60BAA06FFEF7F1FE7D
:1018100053EC1B2BFEF7FBFD53EC1C2BFEF750FD8E
:1018200053EC1D2BFEF74CFDFEF7F6FE44F8D80CEA
:1018300095ED010A60EE0E0A80EEAE0A20EE0F0A68
:10184000C0EE2F0A9FED530A60EE800A80EEA90ACF
:1018500010EE100AFEF7CDFE41EC1D0B3068D5ED01
:10186000020A406800EE100A30EE600A60EE280AB4
:1018700080EE890A60EE0A0AB0EE480A00EEEA0A33
:1018800010EE100AFEF7B5FE41EC100B04F098F9CB
:10189000B0EE40BAF0EE60BAE06FFEF7AAFE53EC8D
:1018A0001B2BFEF7B4FD41EC1C0B3068D5ED020A92
:1018B000406800EE100A30EE600A60EE280A80EE02
:1018C000890A60EE0A0AB0EE480A00EEEA0A10EE53
:1018D000100AFEF78EFE41EC100B04F00DF9B0EE8D
:1018E00040BAF0EE60BAA06FFEF783FE53EC1B2BFC
:1018F000FEF78DFD53EC1C2BFEF783FD53EC1D2BE7
:10190000FEF7DEFCFEF788FE44F8980C95ED010A20
:1019100060EE0E0A80EEAE0A20EE0F0AC0EE2F0A2D
:101920009FED1C0A60EE800A80EEA90A10EE100AF4
:10193000FEF75FFE41EC1D0B3068D5ED020A4068F2
:1019400000EE100A30EE600A60EE280A80EE890A86
:1019500028E00000300500202300002008000020BF
:10196000000000008FC2753C8FC2F53C0040AF43C1
:10197000E15CA34268F283420AD7233D0AD723BD24
:10198000959EEB430000A0420000AF43007060450D
:1019900000003B43EBC9184100A00C46DA0F494058
:1019A000DA0F493F60EE0A0AB0EE480A00EEEA0A92
:1019B00010EE100AFEF71DFE41EC100B04F09CF82F
:1019C000B0EE40BAF0EE60BAE06FFEF712FE53ECF4
:1019D0001B2BFEF71CFD41EC1C0B3068D5ED020AF9
:1019E000406800EE100A30EE600A60EE280A80EED1
:1019F000890A60EE0A0AB0EE480A00EEEA0A10EE22
:101A0000100AFEF7F6FD41EC100B04F0D9F8B0EE29
:101A100040BA94ED1E0AF0EE60BAB1EE400A10EE44
:101A2000100AFEF7E6FD53EC1B2BFEF7F0FC53EC1F
:101A30001C2BFEF7E6FC53EC1D2BFEF741FCFEF7DA
:101A4000EBFD44F8580C95ED010A20EE0E0AC0EEAD
:101A50002E0A20EE8F0AC0EE2F0A1FED320A60EE2A
:101A6000800A80EEA90A10EE100AFEF7C2FD41ECD2
:101A70001B0B3068D5ED020A406800EE100A30EE0C
:101A8000600A60EE280A80EE890A60EE0A0AB0EE6B
:101A9000480A00EEEA0A10EE100AFEF7AAFD41EC31
:101AA000100B04F08DF8B0EE40CAF0EE60CAE06FA3
:101AB000FEF79FFD53EC1C2BFEF7A9FC41EC1C0B21
:101AC0003068D5ED020A406800EE100A30EE600A78
:101AD00020EE280AC0EE090A20EE8A0A00EE6A8A81
:101AE00018EE100AFEF785FD41EC100B04F004F827
:101AF000B0EE408A94ED1E0AF0EE608AF1EE400AE4
:101B000010EE900AFEF775FD53EC182BFEF77FFCE4
:101B100053EC1C2BFEF7D4FB53EC1B2BFEF7D0FB36
:101B2000FEF77AFD44F8180CFFF738FCFFF76AFC63
:101B300056F8130C94ED2A1AB0F9180000EE100AAA
:101B40004648F8EEC00A80EEA90A54ED360A10EEB7
:101B5000810A04ED350A04F07FFD04ED2C0A56F8E5
:101B6000130C94ED2A1AB0F9380000EE100A3B4825
:101B7000F8EEC00A403080EEA90A54ED260A10EEB5
:101B8000810A04ED250A04F067FD04ED1C0A56F8ED
:101B9000130C94ED2A1AB0F9580000EE100A2F48E1
:101BA000F8EEC00A803080EEA90A54ED160A10EE55
:101BB000810A04ED150A04F04FFD04ED0C0A56F8F5
:101BC000130C94ED2A1AB0F9780000EE100A23489D
:101BD000F8EEC00AC03080EEA90A54ED060A10EEF5
:101BE000810A04ED050A04F037FD84ED040AF0EEE5
:101BF000401A002114ED0C1A54ED1C0A14ED2C0AA5
:101C0000084600F035FA95ED010A84ED200AFFF749
:101C100013FA94ED250A002003F00CFF94ED260A38
:101C2000012003F007FF94ED270A022003F002FFD2
:101C300094ED280A032003F0FDFE94ED2A0A042007
:101C400003F0F8FE94ED290A052003F0F3FE03F0FB
:101C500005FF062024F8DA0CCFE400003805002048
:101C600003494888002801D0401E48807047000082
:101C7000300500202DE9F05F05002DED068B7CD0AE
:101C800012297AD12888574CC0F30A00208069783D
:101C9000AA78C90841EA4211C1F30A0161808B4662
:101CA000A978EA78890941EA82012A79A0F5B67013
:101CB00041EA8221C1F30A01A180884629796A7923
:101CC000490841EAC211C1F30A07E7802E8A26813A
:101CD00069798909A1728A466979C1F30111E172B2
:101CE0008946FEF775FC9FED408B53EC182BFEF7F1
:101CF0008EFB9FED3F9B53EC192BFEF7FAFB9FEDFC
:101D00003EAB53EC1A2BFEF77CFB9FED3D1B53ECD7
:101D1000112BFEF776FBFEF77FFCE060ABF5B670AB
:101D2000FEF756FC53EC182BFEF771FB53EC192B06
:101D3000FEF7DFFB53EC1A2BFEF763FBFEF76CFCA0
:101D40002061A8F5B670FEF743FC53EC182BFEF7A4
:101D50005EFB53EC192BFEF7CCFB53EC1A2BFEF772
:101D600050FBFEF759FC6061A7F5B670FEF730FC3A
:101D700053EC182BFEF74BFB00E02FE053EC192B34
:101D8000FEF7B7FB53EC1A2BFEF73BFBFEF744FCC8
:101D9000A061A6F5B670FEF71BFC53EC182BFEF7FE
:101DA00036FB53EC192BFEF7A4FB53EC1A2BFEF772
:101DB00028FBFEF731FCE06184F820A084F8219034
:101DC000E88860842889A0846889E084287B84F876
:101DD0002800687B84F82900E8896085BDEC068BC3
:101DE000BDE8F09F24070020000000000000004034
:101DF0000000000000A09440000000000000F03F40
:101E00000000004099B8A53F0048704754070020E3
:101E100010B524220549064801F0BDFF05480068B9
:101E2000016821F00801016010BD00005407002086
:101E3000B80100205003002010EE101A826830EE26
:101E4000C11A00EE902A00EE101ADFED1A1AC260D5
:101E500030EEC00A71EE610A81604368B4EEE00AB8
:101E6000F1EE10FA04DD00EE103A30EE010A12E055
:101E700000EE102A00EE901A30EE600A71EEC10AF0
:101E8000B4EEE00AF1EE10FA01D3426806E000EE8B
:101E9000103A30EE410A10EE102A426000EE902A0D
:101EA00000EE101A30EE800A10EE101A016000EEFB
:101EB000101A7047CDCC4C3E70B515460A46014607
:101EC000108801EB410202EB01130E4A80B2134469
:101ED000B3F90C209C7C824205DA801A401E80B245
:101EE000421CA24201D9012070BDD3F80E301F243C
:101EF00004EB401401221A55C2B2284600F0D6F86D
:101F0000002070BD2300002010B500F007F8BDE8E8
:101F10001040014802F0CCBE380800202DE9F04105
:101F200086B04FF40171BDF80200DFF8CC8061F398
:101F30004F10ADF8020000984FF4FE6600EA08006A
:101F400000909DF800004FF6FF7720F006008DF816
:101F50000000BDF806000E2466F34F10ADF8060031
:101F60000198264967F3D40001909DF804000125EB
:101F700040F006008DF8040000208DF808008DF870
:101F80000940CDF80A10CDF80E00CDF81250684681
:101F9000FEF724FFBDF80200690261F34F10ADF8AF
:101FA000020000988DF8084000EA080000909DF8B3
:101FB00000008DF8094020F006008DF80000BDF803
:101FC000060066F34F10ADF80600019867F3D400E1
:101FD00001909DF8040040F006008DF804000848C8
:101FE000CDF80A00CDF80E50CDF812506846FEF735
:101FF000F5FE06B0BDE8F0810700E0FFD800002044
:102000000001002070B500EB400606EB00161748F3
:102010008AB0304400EB4101DDE90E54B1F90810FB
:10202000029100210491059108210691110A8DF871
:1020300000108DF80120190A8DF80210290A8DF878
:1020400004108DF80550210A8DF806108DF8033024
:102050008DF80740406808AB6A4602A900F09AFA7A
:102060000249491E08700AB070BD0000230000201C
:102070009FED0D2A1CB520EE020ABDEEC00A10EE3F
:10208000102A20EE820A61EE820ABDEEC00AFDEE41
:10209000E00A10EE103A21EE020ABDEEC00A8DEC05
:1020A000020AFFF7AFFF1CBD00008046F0B40388B2
:1020B0009FED241A5BBA00EE103A44888588F8EE4A
:1020C000400A867901EB410000EB011180EE810AA4
:1020D0001B481E27084407EB421750F80E1F6DBA25
:1020E0002DB2CE550368DFED180A03EB421364BA34
:1020F0009FED161A10EE101A00EE105A19600168C2
:10210000182303EB4213B8EEC00A19440C8020EEEA
:10211000200A03681A2404EB421410EE101A234418
:10212000F7EE000A1960006800EB42110968F0BC84
:1021300000EE101A042101EB42110844FFF77CBEA7
:102140002300002000F8FF45000080380000000058
:10215000074B002000EB400101EB001119444A88B5
:102160000AB1521E4A80401CC0B20228F2D3704706
:1021700023000020014800F04FBE0000F0020020C4
:10218000014800F049BE0000B0030020014800F003
:1021900043BE000010040020014800F03DBE0000D6
:1021A00090020020014800F037BE000070040020BB
:1021B000014800F031BE000050030020014800F04B
:1021C0002BBE0000D004002001681823CAB2103AC8
:1021D000B2FBF3F2054B6FF30901032A9B5CC36565
:1021E00000D9091D81650846704700006067000836
:1021F00010B5014600208B698A6A4FF0C07453B154
:10220000B3F5005F15D072B1012A0CD0022A0AD0B2
:10221000032A09D104E01AB1012A06D0022A03D107
:10222000C96AC90100D5012010BDC96AA142FAD00E
:1022300010BD002AF7D0012AF2D0022AF3D0032AD7
:10224000F3D010BD30B50468256825F480252560DD
:10225000046863608368402B036803D0996000685A
:10226000C26030BD9A600068C16030BD10EE101AC7
:10227000826830EEC11A00EE902A00EE101ADFEDEF
:102280001A1AC26030EEC00A71EE610A81604368BA
:10229000B4EEE00AF1EE10FA04DD00EE103A30EE92
:1022A000010A12E000EE102A00EE901A30EE600AE9
:1022B00071EEC10AB4EEE00AF1EE10FA01D3426801
:1022C00006E000EE103A30EE410A10EE102A4260AD
:1022D00000EE902A00EE101A30EE800A10EE101A6E
:1022E000016000EE101A7047CDCC4C3E70B514461C
:1022F0001278002362F307036278B0F9065062F3A4
:102300000F230A8892B295420ED1B0F9042093426D
:1023100005D10A6921462F30FDF795FF02E02146DD
:1023200000F04EF8002070BD012070BD0548044942
:1023300001601021C1801121818000F005B80000EA
:10234000D80000208F09002000B587B01021BDF80B
:10235000020061F34F10ADF80200174900980840E1
:1023600000909DF80000090C20F006008DF8000098
:10237000BDF806000843ADF8060001984FF6FF715E
:1023800061F3D40001909DF804000E2140F0060096
:102390008DF8040001208DF808008DF80910074918
:1023A000CDF80A100021CDF80E10CDF812006846C5
:1023B000FEF714FD07B000BD0700E0FFD8000020C5
:1023C00010B502460878DFED270A00091072087878
:1023D0009FED250A00F00F005072B1F8010040BADD
:1023E00000B25081CB780C791B0143EA141393811E
:1023F0004B79097901F00F0143EA0121D1811021C4
:1024000004F098F9DFED190A0C2130EE200AF3EE02
:10241000090A10EE100ABBEE090AC2F81200B2F95E
:102420000C0004F087F910EE100A0C21C2F8160017
:10243000B2F90E00F2EE040ABAEE040A04F07AF9D8
:1024400010EE100A9FED0A1AC2F81A00D2F8120014
:10245000BDE8104000EE100ADFED060A02F11E0092
:10246000FFF704BF560E4940560E49C0560EC940EC
:1024700000000000DA0FC94010B5FFF7FBFBFFF7C3
:10248000C7FC02493220C88510BD00002407002087
:102490000349C88D002801D0401EC8857047000040
:1024A00024070020704772B6FEE72DE9FF410024A3
:1024B0001F4626468DF80E4000F021F805000AD090
:1024C0006946285DA0F13002092A08D92E2806D0D5
:1024D0002D2804D008E0002004B0BDE8F0810855A4
:1024E000641CE4B2052CECD30E55084603F0E8FA60
:1024F00051EC100BFEF790F838602819ECE770B536
:1025000015460E0009D0FDF7C2FE040007D0304684
:10251000FDF7CFFE2844204470BD104470BD00205C
:1025200070BD000010B558B1084C491E0BD310F80F
:10253000013B5340DBB234F8133083EA1222F4E754
:102540004FF6FF7010BD104610BD000080680008F7
:1025500010B5064C04E000BF10F8013B5340E25CAC
:10256000491E89B2F8D2104610BD000080670008ED
:1025700090F82020012A07D0022A05D0416A41F4B0
:102580008021416201207047006842690A4342612C
:1025900000207047F0B590F820500468A468012D21
:1025A00005D0022D03D0416A41F480214DE014F0A2
:1025B000406F01D1E50045D5C4F301640125A54074
:1025C0001D608D684FF4C0739DB1CE6835434E6871
:1025D00045EAC605066803EB0417F5514FF4C275CA
:1025E000076805EB04150E697E51097D012905D0A8
:1025F00009E00E88CD6845EA4655EBE701684E597B
:1026000046F480764E511179D2F805504FF4C676D3
:1026100041EA0521056806EB0416A9511178D2F8A4
:1026200001204FF4C47541EA0221026805EB04154C
:102630005151006803EB0411425842F0010242502C
:102640000020F0BD416A41F4001141620120F0BD5B
:1026500010B590F82020012A07D0022A05D0416A3F
:1026600041F480214162012010BD3B48D0F8002296
:1026700042F00102C0F80022D0F8002222F47C527D
:10268000C0F80022D0F800224B6A42EA0322C0F8C8
:1026900000220A7D02F01F0301229A40D0F81C326A
:1026A0009343C0F81C32CB69B3B9D0F80C329343D2
:1026B000C0F80C328C894B6864F31F434C6900EB03
:1026C000C404C4F840320C890B6864F31F434C699E
:1026D00000EBC404C4F84432CB69012B16D1D0F806
:1026E0000C321343C0F80C320C884B6864F31F4360
:1026F0004C6900EBC404C4F840320C89CB6864F325
:102700001F434C6900EBC404C4F844328B69002BAE
:10271000D0F804320ED01343C0F804320B69002BFA
:10272000D0F8143208D01343C0F81432096A0129D2
:1027300004D008E09343EFE79343F5E7D0F81C1289
:102740001143C0F81C12D0F8001221F00101C0F8AA
:102750000012002010BD000000640040704770B5FA
:1027600090F82040012C05D0022C03D0416A41F49E
:10277000802128E0046809B32469A40720D04FF41D
:10278000D874056804EB01142D5915F00405956003
:1027900005682D591AD0ED08556005682C5904F0CC
:1027A0000204D4604FF4DA74056804EB01142E5966
:1027B00006F00F06082E0CD308250DE0E468DCE7D0
:1027C000416A41F400114162012070BD6D0D156038
:1027D000E3E72D5905F00F05156105682D59C5F37F
:1027E0000725956105682C59240C54614FF4DC725F
:1027F000046802EB0112A4581C700468A458240A4F
:102800005C700468A458240C9C700468A258120ED2
:10281000DA704FF4DE72046802EB0112A4581C71E6
:102820000468A458240A5C710468A458240C9C71A0
:102830000468A258120EDA71006829B1016941F0EA
:1028400020010161002070BDC16841F02001C1601C
:10285000F8E72DE9F05F0546006800244669D0F8E6
:1028600004908768D0F80CB0D0F810A0D0F8188089
:10287000F10748D0F90714D001218160B80703D5CA
:10288000284600F068FA0CE0780702D54FF400649F
:1028900007E0380702D54FF4805402E0284600F0E4
:1028A00059FAF80516D529684FF480708860B80584
:1028B00003D5284600F051FA0CE0780502D544F41F
:1028C000005407E0380502D544F4804402E028466D
:1028D00000F042FAF80316D529684FF4803088607A
:1028E000B80303D5284600F03AFA0CE0780302D585
:1028F00044F4004407E0380302D544F4803402E095
:10290000284600F02BFA300707D55FEACB6004D5E4
:102910002968102044F40074C86070074FF008075D
:1029200007D55FEA0B7004D52868C760284600F019
:1029300099F9B00706D52868C068800702D02846F4
:1029400000F092F9700607D55FEACA6004D52968DD
:10295000102044F480640861B00607D55FEA0A706D
:1029600004D528680761284600F0A4F9F00606D5CA
:1029700028680069800702D0284600F09DF9B0035E
:1029800008D55FEAC96005D5296810204860284647
:1029900000F0B2F9F00307D55FEA097004D52868A2
:1029A0004760284600F0DCF9300446D55FEA4970FC
:1029B00040D5F00504D55FEAC87001D044F00104A9
:1029C000B00504D55FEA887001D544F002047005B3
:1029D00004D55FEA487001D544F00404300529D5D8
:1029E00018F0700F26D008F07000402815D006DCD3
:1029F000102809D020280AD0302816D10AE0502803
:102A00000ED0602811D10EE044F008040DE044F02F
:102A100010040AE044F0200407E044F0400404E01D
:102A200044F0800401E044F480742868816921F056
:102A300070018161296804204860002C05D0686A13
:102A4000204368622846FFF789FEBDE8F09F70B515
:102A5000040003D094F8200010B104E0012070BD00
:102A6000204600F081F82068016841F00101016012
:102A700000F076FC0546052604E000F071FC401BE2
:102A80000A2811D820684068C007F6D0206801687D
:102A900021F00201016000F063FC05460BE000F04C
:102AA0005FFC401B0A2806D9606A40F4003060626F
:102AB00084F82060D2E7206840688007EFD4207E49
:102AC0000128206801683DD021F080010160607E0E
:102AD00001282068016838D021F040010160A07E03
:102AE00001282068016833D021F020010160E07ED8
:102AF0000128206801682ED041F010010160207F7C
:102B000001282068016829D021F008010160607F58
:102B100001282068016824D021F004010160D4E973
:102B200002010843D4E90412114308436168491EB5
:102B300008432168C86100206062012084F82000F9
:102B4000002070BD41F08001C0E741F04001C5E7C1
:102B500041F02001CAE721F01001CFE741F0080160
:102B6000D4E741F00401D9E7F0B587B00446142159
:102B70006846FDF781FB364B3648DFF8D0E0196830
:102B8000D4F800C0334A0325022609271030002458
:102B9000491CF44522D11960012907D1016841F08F
:102BA00000710160006800F000700590106840F04E
:102BB000080010601068CDE9005600F00800CDE96B
:102BC000047069462448CDE9024500F0A9FA0022C4
:102BD0001146142000F032FC142033E0DFF87CE0D2
:102BE000F44531D1D0F800C04CF0806CC0F800C082
:102BF000D0F800C001290CF0806CCDF814C0196029
:102C000007D1016841F000710160006800F00070B8
:102C10000590106840F002001060106802AB00F0F0
:102C2000020005904FF44050CDE9000683E8B00063
:102C300069460B4800F074FA00221146412000F06A
:102C4000FDFB412000F0ECFB07B0F0BD006400404C
:102C50000000002030380240000C024000680040B4
:102C6000000402407047000000B50E4987B088425A
:102C700016D10D4B6A460021FFF771FD08B1FFF731
:102C800012FC094A69460120FFF716F9064A69460F
:102C90000648FFF72BFB044A69460548FEF7D4F8BF
:102CA00007B000BDD8000020620000208F0900207E
:102CB000490000207047000000B50C4987B08842E9
:102CC00011D10B4B6A460121FFF749FD08B1FFF70F
:102CD000EAFB074A6946074802F0C3F8044A694616
:102CE0000020FFF7E9F807B000BD00000001002058
:102CF0006A000020700A00207047000070B504468A
:102D000090F82000012804D0606A40F4002060623E
:102D100018E0022084F820002068016821F00101F9
:102D2000016000F01DFB05460EE000BF00F018FB3F
:102D3000401B0A2808D9606A40F400306062052010
:102D400084F82000012070BD20684068C007EDD1E4
:102D5000606270BD7047704770477047704770473A
:102D600070472DE9F0410446876D00F0F9FA0646F8
:102D700094F835000025022806D08020606584F88C
:102D800034500120BDE8F0812068016821F016016F
:102D900001602068416921F080014161206C08B91F
:102DA000A06C20B12068016821F008010160206852
:102DB000016821F0010101600CE000F0D1FA801BF4
:102DC000052807D920206065032084F8350084F8A1
:102DD0003450D7E720680068C007EED194F85C1043
:102DE0003F208840B860012084F8350084F83450D2
:102DF0000020C7E790F83510022903D080214165F3
:102E000001207047052180F835100068016821F025
:102E100001010160002070472DE9F84304464FF09E
:102E20000009CDF8009063484FF41651A56D006875
:102E3000B0FBF1F72E6894F85C10082000FA01F15D
:102E400031420FD021680A6852070BD50A6822F078
:102E500004020A6094F85C108840A860606D40F03D
:102E60000100606594F85C104FF0010808FA01F069
:102E7000304208D021684969090604D5A860606D10
:102E800040F00200606594F85C10042088403042F5
:102E900008D021680968890704D5A860606D40F0F2
:102EA0000400606594F85C1010208840304218D00F
:102EB00021680968090714D5A860206801684903DA
:102EC00004D50068000308D5A16C07E00168C905B6
:102ED00003D4016821F008010160216C09B120468A
:102EE000884794F85C1020208840304231D0216817
:102EF0000968C9062DD5A86094F835000528206812
:102F0000016806D0490347D5006800031DD4616CF1
:102F10001CE021F0160101602068416921F0800168
:102F20004161206C08B9A06C20B12068016821F0D3
:102F30000801016094F85C103F208840A86084F884
:102F4000358084F83490216D1FE0E16B09B1204693
:102F50008847606D00282BD0606DC00714D0052015
:102F600084F835002068016821F0010101600098B3
:102F7000401C0090B84203D820680068C007F6D112
:102F800084F8358084F83490E16C002910D001B0C9
:102F90002046BDE8F04308470168C905D5D401685B
:102FA00021F01001016084F8358084F83490CCE77A
:102FB000BDE8F883900000202DE9F041044600F0C0
:102FC000CFF906465CB1022084F83500002584F86C
:102FD00034502068016821F0010101600DE00120FA
:102FE000BDE8F08100F0BCF9801B052805D9202040
:102FF0006065032084F83500F2E720680068C007A8
:10300000F0D12268116820480140D4E90103184337
:10301000D4E903363343184363691843A36918435B
:10302000E3691843236A18430843616A042903D1FA
:10303000D4E90B1319430843106020684069666A9D
:1030400020F0070130460E43012704280CD1A06A66
:103050000643E06A40B12046FFF7CAF820B140209D
:10306000606584F83570BAE7206846612046FFF74E
:10307000ABF894F85C203F2191408160656584F84D
:1030800035700020ACE700003F8010F02DE9F041E2
:103090000446866D90F83400002501280DD00120EB
:1030A00084F8340094F835700020012F07D084F89C
:1030B000340002252846BDE8F0810220FBE7022704
:1030C00084F8357060652046FFF7BCF894F85C1012
:1030D0003F208840B0602068016841F0160101601F
:1030E000206C20B12068016841F00801016020686F
:1030F000016841F001010160DCE7000070B50446A1
:1031000000F02EF90546601C02D004480078044403
:1031100000F026F9401BA042FAD370BD84000020C5
:103120002DE9F84FDFF8F8A10022012403254FF024
:103130000F090AF1040BAAF1040E00BF0B6804FA90
:1031400002F63340B34270D10F7907F00307012F25
:1031500001D0022F16D187684FEA420805FA08FC11
:1031600027EA0C07D1F80CC00CFA08FC4CEA070C53
:10317000C0F808C04768B7430E79C6F300169640FA
:103180003E4346600E79F643B6070AD0C7684FEA59
:10319000420C05FA0CF6B7438E6806FA0CF63E436D
:1031A000C6600E7906F00306022E10D1D60800EB99
:1031B0008608D8F8206057074FEAD76C09FA0CF751
:1031C000BE430F6907FA0CF73743C8F8207006684A
:1031D0004FEA420C05FA0CF7BE430F7907F00307DC
:1031E00007FA0CF7374307604E6816F4403F1CD0CF
:1031F0004C4E376847F480473760366822F0030743
:1032000006F480460096484E07EB060CDCF808688A
:1032100097073F0F09FA07F826EA0806DFF80C813E
:10322000404503D14FF0000841E072E0DFF8008133
:10323000404502D14FF0010839E0DFF8F880404501
:1032400002D14FF0020832E0DFF8EC80404502D1B5
:103250004FF003082BE0DFF8E480404502D14FF047
:10326000040824E0DFF8D880404502D14FF005087B
:103270001DE0DFF8D080404502D14FF0060816E08F
:10328000DFF8C480404502D14FF007080FE0DFF8B7
:10329000BC80404502D14FF0080808E0DFF8B0805C
:1032A000404502D14FF0090801E04FF00A0808FA42
:1032B00007F848EA0608CCF80888DAF800605746AC
:1032C000D1F804C09E435FEACC2C00D51E433E607B
:1032D000DBF800605F46D1F804C09E435FEA8C2CA7
:1032E00000D51E433E60DEF800607746D1F804C08A
:1032F0009E435FEA8C3C00D51E433E60084F083F6A
:103300003E68D1F804C09E435FEACC3C00D51E4322
:103310003E60521C102AFFF411AFBDE8F88F000088
:10332000083C0140443802400030014000000240A7
:103330000004024000080240000C0240001002405D
:103340000014024000180240001C0240002002400D
:10335000002402400AB1816170470904FBE70000C4
:10336000014880687047000084000020024881689E
:103370000278114481607047840000200B4810B52A
:10338000016841F400710160016841F480610160ED
:10339000016841F480710160032000F06FF80F2094
:1033A00000F006F800F024F8002010BD003C0240B8
:1033B00070B50D4D04464FF47A712878B1FBF0F0EA
:1033C0000A490968B1FBF0F000F044FB48B9102C41
:1033D00007D200222146501E00F030F800206C6019
:1033E00070BD012070BD000084000020900000200E
:1033F0000A4808B5016841F480410160006800F4A2
:10340000804000900548001F016841F08051016034
:10341000006800F08050009008BD00004438024071
:10342000002809DB00F01F020121914040098000C3
:1034300000F1E020C0F8001170470000F0B40E4B1E
:103440001B680C46C3F30223C3F10705042D00D902
:103450000425191D072901D2002300E0DB1E0126E7
:1034600006FA05F1491E214099409E40761E1640FD
:103470003143F0BC02F014BB0CED00E0064900F053
:10348000070208684FF6FF03184040EA0220034A8B
:1034900010430860704700000CED00E00000FA05E2
:1034A0002DE9F8431748016841F080510160006838
:1034B000154F00F08050012600903E64FFF750FF4A
:1034C00005464FF47A78114C05E000BFFFF748FF3E
:1034D000401B40450DD86068C003F7D57E64FFF7F8
:1034E0003FFF0546464607E0FFF73AFF401BB04264
:1034F00002D90320BDE8F88360688003F4D500207A
:10350000F8E700004038024000000E420070004022
:103510002DE9F0470E46050065D0DFF81481D8F894
:103520000000F7B200F00F00B04207D288F8007038
:10353000D8F8000000F00F00B04254D128683D4C8C
:10354000810712D5400703D5206840F4E050206081
:103550002878000703D5206840F460402060206888
:10356000A96820F0F000084320602878C0072DD01B
:10357000304968680839012812D0022813D003287E
:1035800011D00968890700292DDA216821F003018B
:1035900001432160FFF7E4FE814641F2883A0EE0E4
:1035A00009688903EFE709688901ECE7FFF7D8FEAE
:1035B000A0EB0901514502D90320BDE8F08720683E
:1035C000696800F00C00B0EB810FEFD1D8F8001063
:1035D000404601F00F01B14207D90770006800F0C2
:1035E0000F00B04201D00120E7E72878400705D559
:1035F0002068E96820F4E05008432060287800073C
:1036000006D52068296920F4604040EAC1002060A6
:1036100000F038F82168084AC1F30311515CC84032
:103620000649086006480068FFF7C2FE0020C4E7AC
:10363000003C024008380240686700089000002003
:10364000880000200448054900680968044AC1F35D
:103650008221515CC8407047900000200838024029
:10366000786700080448054900680968044AC1F3FE
:103670004231515CC8407047900000200838024039
:1036800078670008154810B5006810F00C0214485F
:1036900013D01449042A0FD0082A0ED10F4C241F2E
:1036A0002268236802F03F025B0207D52068C0F35E
:1036B0008810A0FB010106E0084610BD2168C1F397
:1036C0008811A1FB00010023FCF78CFD2168C1F3E8
:1036D0000141491C4900B0FBF1F010BD083802401F
:1036E0000024F400001BB7002DE9F84F04006ED051
:1036F0002078DFF84C93C007A9F104054AD009F1FE
:1037000004000168C1F38101012908D00068C0F3F9
:10371000810002280AD1D9F80000400206D52868A5
:10372000800337D560680028E1D033E06068B0F5E9
:10373000803F10D0B0F5A02F286810D020F4803042
:103740002860286820F4802028606068A8B1FFF70E
:1037500007FE06460DE0286840F48030F4E740F4A8
:1037600080202860F7E700BFFFF7FAFD801B642880
:1037700073D828688003F7D50CE0FFF7F1FD064603
:1037800005E000BFFFF7ECFD801B6428F0D8286837
:103790008003F7D42078DFF8AC8280074FF0000A6E
:1037A0003ED5A748001D016811F00C0F08D0006835
:1037B000C0F3810002280BD1D9F80000400207D4E1
:1037C0002868800716D5E068012800D112E033E1AF
:1037D000E068B8B10120C8F80000FFF7C1FD064657
:1037E00005E000BFFFF7BCFD801B0228C0D8286899
:1037F0008007F7D52868216920F0F80040EAC10069
:1038000028600DE0C8F800A0FFF7AAFD064604E016
:10381000FFF7A6FD801B02281FD828688007F7D471
:103820002078000722D5864F87486169703771B1CB
:1038300001210160FFF794FD064604E0FFF790FDCB
:10384000801B022809D838688007F7D50EE0C0F839
:1038500000A0FFF785FD064605E082E0FFF780FD4A
:10386000801B02287DD838688007F7D4207840076D
:1038700068D5DFF8CCB100270BF13C0BDBF800007A
:10388000C0000BD4DBF8001041F08051CBF80010E1
:10389000DBF80000012700F0805000906B4E30688C
:1038A000C00510D4306840F480703060FFF758FDD8
:1038B000009005E0FFF754FD0099401A022850D807
:1038C0003068C005F6D55E4EA0686C3601280FD072
:1038D0000528306810D020F001003060306820F0FA
:1038E00004003060A068B8B1FFF73AFD00900FE027
:1038F000306840F00100F4E740F004003060F7E782
:10390000FFF72EFD0099411A41F28830814266D8B6
:1039100030688007F4D50EE0FFF722FD009007E045
:10392000FFF71EFD0099411A41F28830814256D8B6
:1039300030688007F4D42FB1DBF8001021F08051FB
:10394000CBF80010A069C8B33D49091D0968C1F34F
:10395000810102294AD00228504607D0C8F86000E9
:1039600000E03CE0FFF7FCFC04463BE04746C8F8BB
:103970006000FFF7F5FC064605E000BFFFF7F0FC2E
:10398000801B02282BD828688001F7D4D4E90701CE
:103990000843A16A2E4A490802EB0141626A41EAE2
:1039A0008211084394F82C1040EA0161C9F8001014
:1039B00001203866FFF7D4FC044606E03EE000BF75
:1039C000FFF7CEFC001B022809D828688001F7D534
:1039D00034E000BFFFF7C4FC001B022802D903201B
:1039E000BDE8F88F28688001F4D427E00128F7D0DB
:1039F000D9F80000E26900F4800191421CD1226AEA
:103A000000F03F01914217D147F6C071626A014050
:103A1000B1EB821F10D1A26A4FF0FF3300F44031A6
:103A200003EB5202B1EB024F06D194F82C1000F0D8
:103A30007060B0EB016F01D00120D1E70020CFE72B
:103A40000438024000004742800E474200700040A8
:103A50000000FFFF10B5401EB0F1807F01D30120B0
:103A600010BD4FF0E02460610F21601702F018F8DC
:103A70000020A06107202061002010BD7047704722
:103A800070B590F83C20012A32D0012480F83C40E7
:103A9000022280F83D2003685A689D6822F0700673
:103AA0000A6832435A60134B02689A4214D0B2F14A
:103AB000804F11D0104B9A420ED0104B9A420BD02F
:103AC0000F4B9A4208D00F4B9A4205D00E4B9A42A8
:103AD00002D00E4B9A4204D1496825F08003194365
:103AE000916080F83D40002180F83C10084670BD90
:103AF000022070BD000001400004004000080040AA
:103B0000000C00400004014000400140001800404B
:103B100010B5040003D094F83D0010B107E0012077
:103B200010BD002084F83C00204600F01FF8022061
:103B300084F83D00211D206801F06AFA012084F814
:103B4000460084F83E0084F83F0084F8400084F882
:103B5000410084F8420084F8430084F8440084F86B
:103B6000450084F83D00002010BD000008B5006845
:103B70000B49884212D10B48016841F020010160D5
:103B80000068002200F02000009011463720FFF767
:103B900055FCBDE808403720FFF742BC08BD0000D7
:103BA000001400404038024090F83D10012901D037
:103BB00001207047022180F83D100168CA6842F078
:103BC0000102CA6000681149884214D0B0F1804FE8
:103BD00011D00F4988420ED00E4988420BD00E49B1
:103BE000884208D00D49884205D00D49884202D04C
:103BF0000C49884204D1816801F00701062903D0ED
:103C0000016841F00101016000207047000001409F
:103C10000004004000080040000C00400004014087
:103C2000004001400018004070472DE9F041044673
:103C30000068C66805694FF00007A90713D5B107EA
:103C400011D5F91E01610120207720688069800765
:103C5000204602D0FFF7E8FF04E000F07EF820469F
:103C600000F07CF82777680716D5700714D521680F
:103C70006FF004000861022020772068806910F44A
:103C8000407F204602D0FFF7CFFF04E000F065F848
:103C9000204600F063F82777280715D5300713D59D
:103CA00021686FF008000861042020772068C0694F
:103CB0008007204602D0FFF7B7FF04E000F04DF880
:103CC000204600F04BF82777E80616D5F00614D505
:103CD00021686FF010000861082020772068C06913
:103CE00010F4407F204602D0FFF79EFF04E000F072
:103CF00034F8204600F032F82777E80708D0F007BC
:103D000006D021686FF001000861204600F028F815
:103D1000280608D5300606D521686FF080000861B6
:103D20002046FFF7ABFE680608D5700606D5216869
:103D30006FF040000861204600F02CF8A8060AD574
:103D4000B00608D521686FF0200008612046BDE864
:103D5000F041FFF794BEBDE8F08170477047000066
:103D60000B4910B5884211D101F070F8FEF790FBB5
:103D7000FEF7EEF9FDF774FF01F066FEFDF71CF9A2
:103D8000FDF7C8F8BDE8104001F0D8BC10BD000038
:103D900028010020704738B5044690F842002028DA
:103DA00001D0022038BD61B15AB10120206300204A
:103DB0006063204601F060FB0028F3D1216B0129EC
:103DC00001D0012038BD21680A6849680091216846
:103DD0000C3151E8002F42F0100241E80023002B83
:103DE000F5D138BD10B50C461349884204D12046A0
:103DF000BDE8104001F0B2BD1049884206D1FDF780
:103E000093F8E1B2BDE81040FDF7CEB80C49884206
:103E100006D1FDF7F9FFE1B2BDE81040FEF72CBB7B
:103E20000849884206D100F0A1FFE1B2BDE8104088
:103E300000F0A4BF10BD0000700100204802002067
:103E4000B80100200002002070470000F8B50168AA
:103E500004460868CA684B6910F00F0F4FF0000560
:103E60005AD003F0010602F49077374365D0C107BA
:103E700005D0D10503D5616C41F0010161644107B2
:103E800005D5D90703D0616C41F002016164810757
:103E900005D5D90703D0616C41F0040161640107C5
:103EA00007D502F02001314303D0616C41F00801D5
:103EB0006164616C00293BD0800604D5900602D570
:103EC000204601F0F1F920684069616CC0F3801070
:103ED00001F00801014320462BD001F0B0F9206821
:103EE0004069400621D52068143050E8001F21F0B9
:103EF000400140E80012002AF5D1E06BA8B16E49FC
:103F00000165E06BFEF776FF002811D0E06B016DD4
:103F100001B0BDE8F040084783060ED593060CD5E6
:103F20002046BDE8F84001F0BFB92046FFF78CFFFE
:103F3000F8BDFFF789FF6564F8BD266B2023012ECD
:103F40007DD1C6067BD5D60679D50868486800902D
:103F500048694FF00206400641D5E16B08684068A9
:103F60000004000CE8D0A28D8242E5D9E085C86942
:103F7000B0F5807F2DD020680C3050E8001F21F470
:103F8000807140E80012002AF5D12168143151E80F
:103F9000000F20F0010041E80002002AF5D120685E
:103FA000143050E8001F21F0400140E80012002AC0
:103FB000F5D184F84230256320680C3050E8001FAA
:103FC00021F0100140E80012002AF5D1E06BFEF765
:103FD000C8FE6663A08DE18D401A81B22AE0A08DF3
:103FE000E18D401A81B2E08D0028A5D00029A3D030
:103FF00022680C3252E8000F20F4907042E800076B
:10400000002FF5D12068143050E8002F22F0010273
:1040100040E80027002FF5D184F84230256320685E
:104020000C3050E8002F22F0100240E80023002B53
:10403000F5D166632046FFF7D5FEF8BDFFE705061C
:104040002BD5150629D594F841002128F5D1A06873
:10405000B0F5805F01D12069B0B1206A411C2162B6
:10406000216800784860E08C401E0004000CE08469
:10407000E3D12068C16821F08001C1602068C16877
:1040800041F04001C160D8E7206A0088C0F3080011
:104090004860206A801C2062E5E74006CDD55006C6
:1040A000CBD5CA68204622F04002CA6084F841306D
:1040B00000F014FAC1E70000F550000870B50400E4
:1040C00004D094F84100002510B106E0012070BD35
:1040D00084F84050204600F023F8242084F8410062
:1040E0002068C16821F40051C160204601F03EF90A
:1040F0002068016921F4904101612068416921F043
:104100002A0141612068C16841F40051C1606564C1
:10411000202084F8410084F842006563002070BDCF
:104120002DE9F04F87B0054614216846FCF7A4F846
:10413000BE48DFF8F4821038D5F800C0BB4B03212D
:1041400002224027002406154FF0080EC44556D120
:10415000D3F800C04CF0004CC3F800C01B6803F05B
:1041600000430593036843F010030360006800F008
:10417000100005908DE81600CDE9031E6946AC4895
:10418000FEF7CEFFDFF8B092AA4948464FF020680C
:10419000C9F80010C0E90184C0E90346C9F8144019
:1041A000C9F81840C9F81C40C9F82040B246C9F8FF
:1041B0002440FEF701FF08B1FEF775F99E4EC5F8E1
:1041C0003C906036C9F83850C6E90274C6E904A4C8
:1041D000B4619848F461346290387462C6E90008AA
:1041E0003046FEF7E9FE08B1FEF75DF9AE63002246
:1041F00011465320B563FFF721F9532044E0DFF85F
:104200003C82DFF828924FF0070B09F10409C445FE
:104210003FD1D9F8007047F01007C9F80070D9F8FD
:10422000003003F010030593036843F002030360BA
:104230000068CDE9024100F002000590C020CDE900
:104240000002CDF810B069467D48FEF769FF7A4F4D
:104250007C48C03738604FF00060C7E90104C7E907
:1042600003467C61BC61FC613C6238467C62FEF7BF
:10427000A3FE08B1FEF717F9EF63002211462520CF
:10428000BD63FFF7DBF82520FFF7CAF807B0BDE8EC
:10429000F08FDFF8B481C44560D1D3F800C0A246E6
:1042A0004CF4802CC3F800C01B6803F480230593F2
:1042B000036843F0080303600068CDE9024100F0A1
:1042C000080005904FF44070CDE90002CDF810B021
:1042D00069465E48FEF724FF5649DFF87481783955
:1042E00040464FF00069C8F80010C0E90194C0E9E9
:1042F0000346C8F81440C8F81840C8F81C40C8F86D
:104300002040C8F82440FEF757FE08B1FEF7CBF86E
:104310004F4CC5F83C8047486034C8F8385048389E
:10432000A760C4E90009C4E903A6C4F814A0C4F84E
:1043300018A0C4F81CA0C4F820A02046C4F824A0EB
:10434000FEF73AFE08B1FEF7AEF8AC630022114664
:104350002720A563FFF772F8272095E73D4B9C4582
:1043600094D1D9F800C0A2464CF0200CC9F800C086
:10437000D9F8003003F020030593036843F04003AD
:1043800003600068CDE9024100F0400005904FF461
:104390008440CDE90002CDF810E069462E48FEF7D2
:1043A000BFFEDFF8AC90274909F1C009183948462B
:1043B0004FF02068C9F80010C0E90184C0E9034645
:1043C000C9F81440C9F81840C9F81C40C9F8204081
:1043D000C9F82440FEF7F0FD08B1FEF764F81F4C61
:1043E000C5F83C901748C9F838506030A760C4E958
:1043F0000008C4E903A6C4F814A0C4F818A0C4F8BF
:104400001CA0C4F820A02046C4F824A0FEF7D4FDC8
:1044100008B1FEF748F8AC63002211464720A563B7
:10442000FFF70CF847202FE7007C0040403802409F
:1044300000100240A06002409002002000100140E5
:10444000000402404064024000480040000C02406A
:10445000B00300200014014000180240D0040020E6
:104460007047704770B5044690F84100202801D08D
:10447000022070BD49B342B32162A284E2840020CD
:104480006064212384F84130A56B114BEB63A56B6D
:10449000104B2B64A56B104BEB64A36B1865256860
:1044A00013462A1DA06BFEF7F1FD21686FF0400056
:1044B00008602068143050E8001F41F0800140E897
:1044C0000012002AF5D1002070BD012070BD00004F
:1044D000F351000835520008055100087047704735
:1044E000FEE7000070B50446002C71D04C4D2068EA
:1044F000C5F806002079A8722078A52868D1052182
:10450000204601F057F96E1E012839D16178204606
:10451000093101F031F9012879D1B4F8050040F2F0
:104520000222B081A0F20221904241D013DC40F27D
:104530000112A0F2011190422BD006DC012819D003
:1045400002281ED0032862D11EE0012926D0B1F531
:10455000807F5CD127E004293FD006DC01292CD0E4
:10456000022931D0032952D133E0052939D0FF295E
:104570004DD140E0B4F80700A5F80D00607AE8736B
:1045800045E0E079287442E0B4F80700A5F811008E
:104590003DE0D4F80700C5F8310038E0D4F8070052
:1045A000C5F8350033E01E480D22E11D393008E022
:1045B0001B481022E11D463003E019481022E11D7E
:1045C0005630FBF740FE22E0E07985F866001EE0F9
:1045D00024E0E07985F8670019E0E07985F8680063
:1045E00015E0D4F8070045F8690FB4F80B00A8806F
:1045F000607BA8710BE0D4F8070045F8700FD4F881
:104600000B006860B4F80F002881607CA8723089C4
:104610000934015DA52901D1044465E770BD00009E
:10462000C70E0020F0EE400A90ED001AB7EE000A27
:10463000D0ED011A30EE410A20EE210A01EE200AE7
:1046400080ED010A80ED020A704780EC020A704793
:104650000F4810B50D4901600521416000214FF45C
:1046600080228160C0E90312D200426101760122FA
:1046700042768176C27601774177FEF7E8F9002825
:1046800003D0BDE81040FDF70EBF10BD0064004030
:10469000D80000200F4810B50D4901600521416088
:1046A00000214FF480228160C0E90312D2004261F0
:1046B0000176012242768176C27601774277FEF753
:1046C000C6F9002803D0BDE81040FDF7ECBE10BDD0
:1046D0000068004000010020254808B5016841F449
:1046E00080010160016801F480010091016841F4DA
:1046F000001101600068002200F4001000901146D3
:104700000B20FEF79BFE0B20FEF78AFE00221146CF
:104710000C20FEF793FE0C20FEF782FE00221146CD
:104720000E20FEF78BFE0E20FEF77AFE00221146C9
:104730001120FEF783FE1120FEF772FE00221146C3
:104740003920FEF77BFE3920FEF76AFE0022114673
:104750003A20FEF773FE3A20FEF762FE0022114671
:104760004520FEF76BFEBDE808404520FEF758BE29
:10477000303802402DE9F04186B014216846FBF73D
:104780007BFD33480024016841F01001016001689D
:1047900001F010010591016841F0400101600168DC
:1047A00001F040010591016841F0010101600168DB
:1047B00001F001010591016841F002010160016809
:1047C00001F002010591016841F0080101600168F2
:1047D00001F008010591016841F0040101600168E0
:1047E00001F004010591016841F080010160006859
:1047F000184F00F08000059001223C213846FEF75A
:10480000A9FDDFF854804FF4FF7600223146404680
:10481000FEF7A0FD4FF4C06001258DE83100694628
:104820000E48FEF77DFC3C200090CDE9015469461E
:1048300038460394FEF774FC0096CDE901546946AE
:1048400040460394FEF76CFC06B0BDE8F081000022
:1048500030380240001C02400018024000040240B0
:104860001CB500240F4800940D49019401601121EA
:10487000C0E9011442F20F71C16080218161FFF72C
:1048800047F908B1FDF70FFE009469460548019409
:10489000FFF7F6F8002801D0FDF705FE1CBD00006B
:1048A00000140040280100200C4810B50A4901609E
:1048B0000B494160002181600C22C160C0E90412F3
:1048C0008161C161FFF7FAFB002803D0BDE8104009
:1048D000FDF7E9BD10BD0000007C00407001002024
:1048E000009411000E4810B50C4901600D4941605B
:1048F0004FF48051816000214FF48062C0E90312BF
:104900000422C0E90521C161FFF7D8FB002803D0CC
:10491000BDE81040FDF7C7BD10BD0000001001400C
:10492000B8010020A08601000C4810B50A490160BA
:104930004FF4E1314160002181600C22C160C0E987
:1049400004128161C161FFF7B9FB002803D0BDE803
:104950001040FDF7A8BD10BD004800400002002037
:104960000C4810B50A4901604FF4E1314160002163
:1049700081600C22C160C0E904128161C161FFF74E
:104980009DFB002803D0BDE81040FDF78CBD10BD95
:104990000014014048020020FEE70000B0EE401A7B
:1049A0009FED0E0ADFED0E3A9FED0E3ADFED0E2A77
:1049B00000EEA30A9FED0D2A60EEA22ADFED0C1A8D
:1049C00020EE822A01EE030A02EE810A02EE200A9C
:1049D00061EE210A00EE810A70470000F8082A3FC4
:1049E000BC2AD33B4D4D15390D8B903C88F9283EA0
:1049F000CCE201382DE9F04F584A97B0906890F812
:104A00003A100029FDD1C9B2072901D9012300E0DC
:104A1000002300F8013B4FF4967A018001F5807184
:104A200041800021818091465046FEF767FB0022BD
:104A30000221D9F8080000F067FD5046FEF75EFB42
:104A4000464C40F2BA41103408262068CDE90301F3
:104A50000096059040F2C6220325CDE901520723B6
:104A600001223FA13F4800F0F3FD60684FF4397127
:104A70004FF4AA72CDE90401CDE902023948CDE92B
:104A800000650F300723012237A1129000F0E0FDEE
:104A900040F25645A068CDE903054FF00108CDF876
:104AA000008005902F4840F22A361E3002271390CE
:104AB000CDE90176072342462CA100F0C9FDE0684C
:104AC000CDE90305CDF8008005902648CDE90176B3
:104AD0002D300723012226A1834600F0B9FD20696D
:104AE000CDE90305CDF8008005901E48CDE901769B
:104AF0003C30072301221FA1044600F0A9FD0F222C
:104B000021460EA8FBF79FFB0F2259460AA8FBF788
:104B10009AFB0F2206A81399FBF795FB0F2202A818
:104B20001299FBF790FB0F480F2281680091818951
:104B3000ADF80410807B8DF806000A4912A8FBF737
:104B400082FBDDE912230521D9F8080000F014FDED
:104B500017B05046BDE8F04FFEF7D0BA98000020DD
:104B6000736C3000E40A0020736C3100736C320007
:104B7000736C3300736C34002DE9F34F444C97B0E1
:104B800040F2BA412068CDE903010826009605905D
:104B900040F2C6220325CDE90152072301223DA19F
:104BA0003D4800F055FD60684FF439714FF4AA722A
:104BB000CDE90401CDE902023748CDE900650F30A7
:104BC0000723012235A1834600F042FD40F25645FD
:104BD000A068CDE903054FF00108CDF800800590ED
:104BE00040F22A3602272C48CDE901761E300723F1
:104BF00042462BA1824600F02BFDE068CDE903057B
:104C0000CDF8008005902448CDE901762D300723AA
:104C1000012224A1814600F01BFD2069CDE9030596
:104C2000CDF8008005901C48CDE901763C30072383
:104C300001221DA1044600F00BFD0F2221460EA803
:104C4000FBF701FB0F2249460AA8FBF7FCFA0F22EB
:104C5000514606A8FBF7F7FA0F22594602A8FBF7C0
:104C6000F2FA0D480F22816800918189ADF8041095
:104C7000807B8DF80600084912A8FBF7E4FADDE90D
:104C800012230521179800F077FC19B0BDE8F08FCA
:104C9000A8000020736C3000E40A0020736C31001F
:104CA000736C3200736C3300736C3400FEE70000E9
:104CB0009FED0C0A002180ED000A80ED010A80EDD5
:104CC000040A80ED050A80ED030A80ED060A80EDF6
:104CD000070A80ED080A80ED090A80ED0A0A80F8CB
:104CE00038107047000000009FED0A3A00F11801EB
:104CF00080ED033A80ED043AC0ED051A80ED003AEC
:104D000080ED012A80ED093AC0ED0A2A81EC030A00
:104D100070470000000000007047B0EE401A81EEBE
:104D2000200A10EE100AB0F17E5F01DDB7EE000A36
:104D30007047000010B5FF2205490648FFF72BF821
:104D400005480068016821F00801016010BD0000FD
:104D5000C70D002000020020B00300200A460146D3
:104D60000148FFF77FBB00000002002000487047A9
:104D7000C70D002000487047C60E002010B5FFF791
:104D8000B1FBBDE81040FFF7D5BF00001F4810B5CC
:104D9000D0F868111E4801601E49B1F85520828084
:104DA00091F83B108171014607221B48FCF7A0F8DF
:104DB0001948FCF73FF8164C0168E41F9FED171ADD
:104DC00021608188A1808079A071B4F90200DFEDB3
:104DD000141A00EE100AB4F90000B8EEC00AC0EED2
:104DE000010A00EE100AB8EEC01A81EE210AFCF7A3
:104DF0001BF92079022806D0032806D10220BDE83D
:104E00001040FCF79FBB0320F9E710BD30050020E0
:104E10001B000020C60E00204900002000007AC4BC
:104E200000007A4402480021017041807047000070
:104E30001807002004484188002903D1052141803A
:104E4000FFF7A4BF704700001807002003494888F7
:104E5000002801D0401E488070470000180700203D
:104E600070470988B0F9063089B28B4205D11168C4
:104E700081605168C16000207047012070470000C8
:104E800000B587B040F21121BDF8020061F34F1068
:104E9000ADF8020017490098084000909DF8000006
:104EA000090C20F006008DF80000BDF8060008434C
:104EB000ADF8060001984FF6FF7161F3D400019040
:104EC0009DF8040040F006008DF8040010208DF8D5
:104ED00008000E208DF809000748CDF80A000120CF
:104EE000CDF80E00CDF812006846FBF777FF07B04B
:104EF00000BD00000700E0FF0001002000B587B002
:104F0000B0F904200092002202920392022204923D
:104F10000A0A8DF818208DF819100123006806AAD6
:104F20006946FDF737FB002801D0FDF7BCFA07B052
:104F300000BD000005480449016040F21121C18014
:104F4000491E8180FFF79CBF00010020700A0020ED
:104F5000FEF70CBA30B593B030216846FBF78CF9F8
:104F600014210CA8FBF788F920480025016841F0BE
:104F700080510160006800F0805011901C48016869
:104F800041F4404101600068022400F44040119067
:104F900001200090000401908001CDE90640062028
:104FA0000890B420CDE9090404200B906846FEF770
:104FB0009BFB08B172B6FEE7FEF772FA08B172B653
:104FC000FEE70CA90F2081E831004FF4A0500F90AC
:104FD0004FF48050109005210CA8FEF799FA002894
:104FE00001D072B6FEE713B030BD00004038024079
:104FF000007000400248016841F470010160704790
:1050000088ED00E00148FEF710BE000028010020F6
:10501000F0B50268294C2A4D2A4E2B4F2B4B4FF0EE
:10502000804CA04209D0604507D0A84205D0B042CC
:1050300003D0B84201D0984204D122F0700E4A68E1
:1050400042EA0E02A0421BD0604519D0A84217D0F8
:10505000B04215D0B84213D0984211D01C4DA8428E
:105060000ED01C4DA8420BD01B4DA84208D01B4DA2
:10507000A84205D01A4DA84202D01A4DA84203D129
:1050800022F44075CA682A434D6922F080022A43FF
:1050900002608A68C2620A688262A04201D09842B5
:1050A00001D109690163012141610169C90703D087
:1050B000016921F001010161F0BD00000000014023
:1050C0000004004000080040000C004000040140C3
:1050D00000400140004401400048014000180040E9
:1050E000001C0040002000400148FEF7AFBE000059
:1050F0007001002010B5806B0021C185C184FEF7CE
:10510000A3FE10BD70B5846B2068406994F841100F
:10511000C0F3C0100025212904D118B1E584204630
:1051200000F0B4F82068406994F84210C0F3801091
:10513000222904D118B1E585204600F080F8606C82
:1051400040F0100060642046FEF77EFE70BD10B592
:105150000146806B096809684FF00002C9052ED42A
:10516000C28501680C3151E8003F23F4807341E8A7
:105170000034002CF5D10168143151E8003F23F0D0
:10518000010341E80034002CF5D10168143151E8E5
:10519000003F23F0400341E80034002CF5D12021EA
:1051A00080F84210016B012909D101680C3151E8E6
:1051B000003F23F0100341E80034002CF5D1426396
:1051C000016B012902D0FFF74BF910BD818DFEF76D
:1051D00009FE10BD10B5806B01214163016B0129EF
:1051E00002D0FFF73EF910BD818D4908FEF7FAFDA8
:1051F00010BD10B50146806B09680968C90516D451
:105200000021C1840168143151E8002F22F080028E
:1052100041E80023002BF5D101680C3151E8002F43
:1052200042F0400241E80023002BF5D110BDFFF70A
:1052300055F910BD10B5806BFFF751F910BD01682D
:105240000C3151E8002F22F4907241E80023002B2A
:10525000F5D10168143151E8002F22F0010241E834
:105260000023002BF5D1016B012909D101680C3114
:1052700051E8002F22F0100241E80023002BF5D165
:10528000202180F8421000210163704701680C3131
:1052900051E8002F22F0C00241E80023002BF5D195
:1052A000202180F84110704708B590F8421022295B
:1052B00001D0022008BD82684FF480539A4201D188
:1052C000016921B1816A9A421BD04AB10AE00268A1
:1052D000816A5268C2F308020A80816A891C08E068
:1052E000026972B10268526802F07F020A70816A34
:1052F000491C8162C18D491E0904090CC18503D076
:105300001BE002685268F1E70168CA6822F02002D7
:10531000CA600168CA6822F48072CA6001684A697A
:1053200022F001024A61202180F8421000214163ED
:10533000026B012A03D0FFF793F8002008BD016338
:1053400001680C3151E8002F22F0100241E80023DF
:10535000002BF5D101680A68D20602D50A684968AF
:105360000091818DFEF73EFDE7E7000070B5044631
:1053700000680169E26821F440511143016121692B
:10538000A068E26908436169114308432168CA685B
:1053900049F20C639A430243CA6020684169A269DA
:1053A00021F440711143416131492068884202D0A3
:1053B0003049884202D1FEF755F901E0FEF742F983
:1053C000E2690023192164253226B2F5004F626894
:1053D00028D0A0FB0101930F9200FAF703FF0146CA
:1053E000B0FBF5F06FF01802504301EB800006EBC4
:1053F0000010B0FBF5F000F0F002B1FBF5F002EBAD
:105400000012B1FBF5F06FF01803584301EB800078
:1054100006EB0010B0FBF5F000F00F00216810441F
:10542000886070BDA0FB010192185B41FAF7DAFEBB
:105430000146B0FBF5F00201B1FBF5F06FF0180387
:10544000584301EB800006EBC000B0FBF5F000F024
:10545000F80002EB4002B1FBF5F0584301EB80008D
:1054600006EBC000B0FBF5F000F00700D6E7000047
:10547000001001400014014038B581620446828565
:10548000002013466064222284F84220E56B1B4A08
:10549000EA63E56B1A4A2A64E56B1A4AEA64E26B2E
:1054A00010650A462168E06B091DFDF7EFFD2068D5
:1054B000016840680090206948B120680C3050E8CD
:1054C000001F41F4807140E80012002AF5D12068E5
:1054D000143050E8001F41F0010140E80012002A9A
:1054E000F5D12068143050E8001F41F0400140E839
:1054F0000012002AF5D1002038BD00004F510008ED
:10550000D5510008055100082DE9F041184C0F460F
:10551000A521064604F8011B164D08202080287896
:105520009046A070FF2204211148FDF711F8E070A9
:1055300040F20130A0804FF48070E080B6F80300A4
:105540006081B6F801002081277384F80D804FF642
:10555000FF720F210648FCF7E5FFE08111210448A6
:10556000FFF7FCFB2878401C2870BDE8F0810000A4
:105570007A0B0020D00000200FB40421F0B58BB0CE
:105580000546119812ACC0EB001202F10F00C6B232
:10559000A5208DF81C00921D2B48ADF81D20FF2280
:1055A00000788DF81F0007A8FCF7D2FF8DF82000C7
:1055B00040F20130ADF821001198012806D00228F0
:1055C00007D0052819D0072807D119E040F20110AB
:1055D00001E04FF48170ADF82300B5F80300ADF899
:1055E0002700B5F80100ADF825000D2207A91748DE
:1055F000FAF729FE0025154F16E040F20310EAE7FE
:105600004FF48270E7E720460DF10C0C0FC88CE8D0
:105610000F00C5EB0510384410340F2203A90D30DC
:10562000FAF711FE6D1CEDB211988542EBDB3146A5
:105630000648FBF789FB31460448FFF78FFB0BB0A8
:10564000F0BC5DF814FB0000D00000208B0B0020A4
:105650002DE9F04F09ACDDE90C6594E880060024E3
:10566000DDF838B007E000BFC4F10208641C00F8A0
:1056700008C0032C04DA11F804C0BCF1000FF3D108
:1056800010F8031F62F3020121F038010170018854
:1056900048F23F0263F389110180417867F3850185
:1056A0004170B0F801101140A0F80110817801F0AC
:1056B0007F014180828869F309028280B0F8052069
:1056C0006AF38C02A0F80520C18866F34F11C180EF
:1056D00001896FF309010181B0F8091065F38C01AC
:1056E000A0F8091042896BF34F124281BDE8F08F98
:1056F00010B5FFF73FFB04490A46C1E9012001212B
:1057000080F87C1010BD00009800002010B50A4CF5
:10571000608800280BD1207850B1012807D1A4F16E
:105720000C00D0E90110FFF727FAC820608010BDF7
:105730000120207010BD0000A4000020034948880B
:10574000002801D0401E488070470000A4000020BF
:105750000148FEF77BBB0000B80100200148FEF7BE
:1057600075BB0000000200200148FEF76FBB00007F
:1057700048020020FEE7000030B50C46050014D0BA
:10578000022C12D90A48A11E02882846FCF7CAFE3C
:105790002919C2B211F8023C9A4206D111F8011C33
:1057A000B1EB102F01D1012030BD002030BD000031
:1057B0009400002030B50C4605000ED0022C0CD908
:1057C000601E81B2FF222846FCF7C2FE291911F89B
:1057D000011C814201D1012030BD002030BD0000FC
:1057E000064901EBC000D0F81F1021B1D0F823000A
:1057F00000EE100A70479FED020A704774080020FF
:1058000000000000234810B500210177817722A114
:10581000C0F81F1023A1C0F8271025A1C0F82F1031
:1058200026A1C0F8371028A1C0F83F102AA1C0F85F
:1058300047102CA1C0F84F102DA1C0F857102FA170
:10584000C0F85F1030A1C0F8671032A1C0F86F1027
:1058500033A1C0F8771035A1C0F87F1036A1C0F889
:10586000871038A1C0F88F1039491C22096881615E
:1058700001463848FEF7F6FD06491E2297313548A5
:10588000FEF789FA34480068016821F008010160D8
:1058900010BD00007408002063757272656E745F3D
:1058A0006B703A0063757272656E745F6B693A0073
:1058B00063757272656E745F6B643A0063757272C1
:1058C000656E745F73773A0063757272656E745FAC
:1058D0007461723A0000000073706565645F6B70FC
:1058E0003A00000073706565645F6B693A00000000
:1058F00073706565645F6B643A0000007370656582
:10590000645F73773A00000073706565645F74616B
:10591000723A0000616E676C655F6B703A00000060
:10592000616E676C655F6B693A000000616E676C61
:10593000655F6B643A000000616E676C655F73774A
:105940003A000000616E676C655F7461723A000036
:105950005C670008700100209002002004490122C9
:105960008A7700220B1883F89820A1F8B5007047B9
:10597000740800202DE9F0412A4C607F002815D1E1
:105980000A206077217F04F197000027804679B1D3
:1059900001290BD101461E222348FEF7FCF92348BA
:1059A0000068016821F0080101602777BDE8F081F7
:1059B000A07F0128FAD100254FEA050604EBC600B6
:1059C00000F12303D0F81F1000224046FCF76DFDC4
:1059D00000B10546761CF6B20F2EEFD3F5B10820C4
:1059E000FFF7FEFEB5EEC00AF1EE10FA01D101227A
:1059F00000E000220E4D08212846FDF7ABFC0D20EB
:105A0000FFF7EEFEB5EEC00AF1EE10FA01D1012269
:105A100000E0002204212846FDF79CFCA777012026
:105A20002077C3E774080020700100209002002056
:105A300000180240034A10EE101A02EB80000160C9
:105A400070470000740800200349487F002801D0F7
:105A5000401E487770470000740800201C2202494D
:105A60000248FEF7FFBC000074080020700100200F
:105A700003B401984100009850EAC12018BF0420E7
:105A80004A0D18BF40F0010040F2FF72B2EB515FC7
:105A900008BF40F00200012808BF052002B070478F
:105AA0000907090E002804DB00F1E02080F800144B
:105AB000704700F00F0000F1E02080F8141D7047DF
:105AC00030B583B0044600F0F3FC9FED090B0546AA
:105AD0008DED000B002221466846FAF706FE2846A7
