:020000040800F2
:10000000B0160020C1010008916C00080D560008D0
:10001000656B0008990E00084D7E00080000000086
:1000200000000000000000000000000079700008DF
:1000300049210008000000001D6D000865780008D7
:10004000DB010008DB010008DB010008DB01000820
:10005000DB010008DB010008DB010008DB01000810
:10006000DB010008DB010008DB0100087119000852
:100070007D1900088919000895190008A1190008C0
:10008000DB010008AD190008DB010008DB010008F6
:100090009D0E0008DB010008DB010008DB01000801
:1000A000DB010008DB010008DB010008DB010008C0
:1000B000DB010008DB010008DB010008DB010008B0
:1000C000DB0100081D56000811560008DB0100087E
:1000D000DB010008297E0008DB010008357E0008EE
:1000E000DB010008DB010008DB010008DB01000880
:1000F000DB010008DB010008DB010008B91900087A
:10010000DB010008DB010008DB010008DB0100085F
:10011000DB010008DB010008DB0100081979000899
:10012000DB010008C5190008D1190008DB0100082F
:10013000DB010008DB010008DB010008DB0100082F
:10014000DB010008A90E0008DB010008DB01000844
:10015000DB010008DD190008DB010008417E000812
:10016000DB010008DB010008DB010008DB010008FF
:10017000DB010008DB010008DB01000800000000D3
:10018000DB010008DB010008FD790008097A00089E
:10019000DB010008DB010008DB010008DB010008CF
:1001A0000000000000000000DB010008DFF80CD0B8
:1001B00000F0A8FB00480047538C0008B016002050
:1001C0000648804706480047FEE7FEE7FEE7FEE7F1
:1001D000FEE7FEE7FEE7FEE7FEE7FEE70979000837
:1001E000AD0100082DE9F05F0546002092469B46D0
:1001F00088460646814640241BE02846414647463D
:10020000224600F04AFA53465A46C01A914110D38A
:1002100011461846224600F031FA2D1A67EB010804
:100220004F4622460120002100F028FA17EB000972
:100230004E41201EA4F10104DFDC484631462A4627
:100240004346BDE8F09F40EA01039B0703D009E065
:1002500008C9121F08C0042AFAD203E011F8013BB2
:1002600000F8013B521EF9D27047D2B201E000F80B
:10027000012B491EFBD270470022F6E710B513464A
:100280000A4604461946FFF7F0FF204610BD30B578
:1002900005462A460B4612F8010B13F8014B08B12C
:1002A000A042F8D01CB1002802D06D1CF1E728460E
:1002B00030BD421C10F8011B0029FBD1801A704789
:1002C0002DE9FE4F804681EA0300C00F0C460090E6
:1002D00021F0004123F00045B8EB0200A94105D20E
:1002E0004046214690461C460B46024623F00040FD
:1002F000104347D0270DC7F30A00C3F30A510290F9
:10030000401A019040286BDAC3F3130040F4801BBD
:100310000098924620B10023D2EB030A63EB0B0B4B
:1003200001985946C0F14002504600F0A7F9064630
:100330000D4650465946019A00F0BFF910EB0800EF
:100340006141002487EA115284EAE7731A4340D0DE
:10035000009A62B3019A012A4FEA075215DC001B8A
:1003600061EB02014FF0004202EA0752CDE9004280
:10037000001C41F5801132462B4600F045FA03B0CF
:10038000BDE8F08F40462146F9E7001B61EB020112
:10039000001C41F5801300185B412018A2F50017DE
:1003A00047EB030140EAD570B6196D4111E06D08C5
:1003B0004FEA360645EAC0754FEA0752001B61EB6B
:1003C0000201001C41F5801149084FEA3000001974
:1003D000514132462B4603B0BDE8F04F00F005BA5C
:1003E0000098012240000023D0EB020263EBE0738F
:1003F000009821464FEAE074B8EB000061EB04017D
:10040000E9E783F000435BE781F0004158E72DE91D
:10041000FE4F81EA030404F0004421F000410094FF
:100420004FF0000B23F0004350EA01045ED052EA83
:1004300003045BD0C3F30A54C1F30A552C44A4F25D
:10044000F3340194A0FB0254C1F3130141F4801171
:10045000C3F3130343F4801301FB024400FB034E78
:10046000840A970A44EA815447EA8357A4FB076841
:1004700002958D0A05FB07854FEA932C04FB0C546B
:100480002705029D4FEA065847EA1637B5EB0805DF
:100490006EEB070C870E920E47EA811742EA831231
:1004A000A7FB0201B6EB0B0164EB00042B0D43EA42
:1004B0000C335E1844EB1C50DA465146E7FB020150
:1004C000C5F313044FEA0B3343EA14534FEA0432E3
:1004D000019C43EA0603A4F10C040294009CCDE9BC
:1004E00000B400F091F903B0BDE8F08F00200146A0
:1004F000F9E72DE9F04D81EA030404F0004B21F007
:10050000004514464FF0000A23F0004150EA05026E
:1005100020D054EA01021DD0C5F30A570246C5F3A4
:100520001303C1F31300C1F30A5640F4801543F4DA
:100530008013A7EB0608101BD64608F2FD3873EBB4
:10054000050002D308F1010801E092185B41B8F1FF
:10055000000F03DA00200146BDE8F08D00204FF4C3
:100560008011064684460EE0171B73EB050705D382
:10057000121B63EB050306434CEA010C49084FEAE2
:10058000300092185B4150EA0107EDD152EA0300B6
:1005900012D082EA040083EA0501084305D0101B4B
:1005A000AB4106D20122002306E000224FF00043B7
:1005B00002E06FF0010253101AEB06004CEB0851F9
:1005C00010EB0A0041EB0B01BDE8F04D00F00DB956
:1005D0000EB5C10F80EAE0700844CA07002140F25E
:1005E00033438DE80E000A460B4600F00DF903B0C8
:1005F00000BD00F0004230F000400AD0C10D01F50E
:100600006071C0F3160042EA0151C208400711436D
:10061000704700200146704701F0004330B421F0DC
:10062000004150EA010206D00A0DA2F56072C1F342
:100630001301002A02DC30BC00207047440F44EA5A
:10064000C104C100E01830BC00EBC25000F096B805
:1006500030B50B46014600202022012409E021FA92
:1006600002F59D4205D303FA02F5491B04FA02F58F
:100670002844151EA2F10102F1DC30BD202A04DB62
:10068000203A00FA02F1002070479140C2F12003A5
:1006900020FA03F3194390407047202A04DB203AE4
:1006A00021FA02F00021704721FA02F3D040C2F192
:1006B00020029140084319467047202A06DBCB17D9
:1006C000203A41FA02F043EAE07306E041FA02F30D
:1006D000D040C2F120029140084319467047000003
:1006E0000FB4002300B589B00CA900910B996FF0ED
:1006F0000042CB601E4B06931E4B07930423CDE9AB
:1007000001321D4A089202466B46002000F0A6F90D
:1007100009B05DF814FB70B586B006464FF0FF30A7
:100720000091CDE90101002015460C4604903246A7
:10073000694604A8FFF7D4FF02460498211825B1A2
:1007400008B1084600E020462860049800280DD033
:10075000002A02DD0098884208D0081B0094CDE9E9
:1007600001043246694604A8FFF7BAFF06B070BD1F
:10077000950C0008B30C0008290900080029A8BF3F
:100780007047401C490008BF20F00100704710B4BA
:10079000B0FA80FC00FA0CF050EA010404BF10BC6F
:1007A000704749B1CCF1200421FA04F411FA0CF19C
:1007B00018BF012121430843A3EB0C01CB1D4FEAD5
:1007C00000614FEA102042BF002010BC704700EBD0
:1007D000C35010440029A4BF10BC7047401C4900FE
:1007E00008BF20F0010010BC704710B5141E73F153
:1007F000000408DA401C41F1000192185B411A43E1
:1008000001D120F0010010BD2DE9F04D92469B462C
:1008100011B1B1FA81F202E0B0FA80F220329046D2
:10082000FFF72CFF04460F4640EA0A0041EA0B019D
:1008300053465A46084313D0114653EA010019D0D3
:10084000C8F140025046FFF728FF05460E465046C5
:1008500059464246FFF712FF084305D0012004E045
:1008600020463946BDE8F08D0020054346EAE07693
:100870002C4337430A986305E40AA0EB08000022E2
:10088000FD0A44EA47540A3002D500200146E9E750
:10089000010510196941DDE9084500196941BDE804
:1008A000F04DA2E7C1F30A52C1F3130140F2FF3346
:1008B00041F480119A4202DA00200146704740F26A
:1008C00033439A42A2F2334202DC5242FFF7E5BEC2
:1008D000FFF7D4BE30B5041E71F1000404DB4FF005
:1008E0000044404264EB0101141E73F1000405DB77
:1008F0001C464FF00043524263EB0403994208BF89
:10090000904230BD064C074D06E0E06840F0010320
:1009100094E8070098471034AC42F6D3FFF74AFC3E
:10092000D0930008F0930008C0B24FF4F05100F0EB
:10093000D1B900002DE9FF4F087883B09946FF2810
:1009400005D0491C2D2804D00024002008E00020F8
:100950000BE00124F9E700EB800003EB4000491CA9
:100960000B78FF2BF7D104B1404200230293147897
:1009700019461D462D2C01D02B2C04D1521C2D2C98
:1009800013D000240294AA461478FF2C0FD00A2515
:10099000A3FB057801FB05814FF0000C03FB0C1154
:1009A000521CE3194AEB0101EEE70124EAE7814416
:1009B00053EA010002D019F5C87F06DA0398002136
:1009C000C0E9001107B0BDE8F08F0025AE4E2F46FC
:1009D000DFF8B882184600F091F9CDE90001B9F1CD
:1009E000000002DAC9F1000400E004460023A74A2F
:1009F0001AEB030B42EB045A12E0E00707D02A4639
:100A0000334638464146FFF702FD074688462A46E8
:100A1000334610461946FFF7FAFC05460E466410A9
:100A2000002CEAD1DDE90001B9F1000F5A46534626
:100A300006DAFFF75EFD3A464346FFF75AFD05E04A
:100A4000FFF7E5FC3A464346FFF7E1FC029A0AB19C
:100A500081F00041039AC2E90001B3E72DE9FF4F9D
:100A60001F468DB0D7E901464FF0FF382E2045468E
:100A70004FF000090B90B9696D1C0E988847396AD0
:100A8000824688470028F6D1BAF1FF3F0AD024F405
:100A9000D064002E11DDBAF12B0F08D0BAF12D0F62
:100AA0000BD102E0404611B08DE744F48064B9698F
:100AB0006D1C0E9888478246761E6946600501D5F2
:100AC0002D2000E02B208DF8000001F1010B0DF12D
:100AD000200809E0B9696D1C0E98884782460F9876
:100AE00044F40074761E0560002E02DDBAF1300F6A
:100AF000F0D00B998A453ED144F0800406E00F996E
:100B0000681CA9F1010944F400740860B9696D1CFE
:100B1000761E0E98884782463028F0D02BE00B993D
:100B20008A4505D1200603D444F08004761E18E0DF
:100B3000504607F0D3FC08B30DF11301761E44F4C0
:100B400000748B4508D2AAF130000BF8010B200687
:100B500007D5A9F1010003E0200602D409F1010044
:100B60008146A00502D50F99681C0860B9696D1C03
:100B70000E9888478246002ED1DC53E0002E51DDCE
:100B8000BAF1650F02D0BAF1450F4BD1A00549D596
:100B9000B9696D1C24F44074761E0E98884782460D
:100BA000002E0CDD2B2804D0BAF12D0F07D144F410
:100BB0008074B9696D1C0E9888478246761EE005E0
:100BC00001D52D2100E02B2108F8011BCDF82C8048
:100BD00021E00DF12901761E44F4007488450CD201
:100BE000AAF1300010F0FF0088F8000002D10B9944
:100BF000884509D908F1010806E0E00501D5244837
:100C000001E042F20F708146B9696D1C0E98884769
:100C100082460F980560002E04DD504607F05EFC0A
:100C20000028D6D1F9690E988847FF208BF800007C
:100C300088F800000020069007904B466A4608A9F5
:100C400006A8FFF777FEA00502D46FF001002AE79F
:100C500014F0240F0AD0E00714D1DDE90612386839
:100C6000031D3B600068C0E900120BE0DDE90601EE
:100C7000FFF7D2FC0146E00704D13868021D3A6054
:100C80000068016028460EE7000014400000F03FB5
:100C9000F1D8FFFF426842B1016811F8013B23B16E
:100CA000521EC0E90012184670470121C160881E1B
:100CB000704742685AB1C368016843B983688B4280
:100CC00005D0491E521CC0E90012002070474FF0A9
:100CD000FF3070477F2801D9002208E0064A02EB66
:100CE0005002C007127800D1120902F00F02012051
:100CF0009040084070470000909300080EB540F205
:100D0000334202920022CDE900221346FFF77CFD18
:100D100003B000BD10B5164C0122FE21204602F0A2
:100D2000ACFE00224FF40051204602F0A6FE05F072
:100D30009BFC00F015FA00F0BDF800F061FF00F038
:100D4000E7FB06F081FD00F051F800F013FB00F026
:100D5000FBFD01F00BF900F029F800F02DF806F08A
:100D600011F901F0E5FDBDE8104006F085BC00007A
:100D70000018024010B507F06BF8002813D00A489D
:100D80000188491C018007F0C5F800F0C7F906F09A
:100D90001FF901F025FF06F0E9FC01F019F9BDE8A3
:100DA000104001F053B810BD04000020014803F0CA
:100DB00053BF00005802002010B50F220749084811
:100DC00004F0E6FB64220749054804F042F80648AF
:100DD0000068016821F00801016010BDD00000200A
:100DE000C00300204A1200204806002010B5084821
:100DF00002F01EFB0221064801F032FF054802F016
:100E000017FBBDE810401021024801F029BF000087
:100E1000F40000201C01002000B58BB0017A059180
:100E2000002106910121079130F8021F009130F84E
:100E3000021C01918188029141880391C16804914B
:100E4000C1790991016908918068694601F078FFCC
:100E50000BB000BD2DE9F04116460F4605460124B2
:100E6000284602F06EF80028FAD028688168490107
:100E700001D5012408E08168090101D5022403E0BD
:100E80008068C00000D504242346324639462846EF
:100E9000BDE8F04101F0F6BEFEE70000014802F0B7
:100EA00066B80000F4000020014802F060B80000BD
:100EB0001C01002000F012B810B513460A88B0F9E2
:100EC0000A4092B2944206D10A69C0681946FFF7F7
:100ED000BAF9002010BD012010BD000000B587B098
:100EE00040F20131BDF8020061F34F10ADF802008D
:100EF00017490098084000909DF80000090C20F068
:100F000006008DF80000BDF806000843ADF80600A5
:100F100001984FF6FF7161F3D40001909DF8040031
:100F200040F006008DF8040002208DF808000E2025
:100F30008DF809000748CDF80A000020CDF80E0012
:100F40000120CDF812006846FFF766FF07B000BD2C
:100F50000700E0FFF400002000B587B0B0F90830CA
:100F6000009300230293CDE903320A46406806ABA2
:100F70006946FFF76FFF07B000BD0968B1F5916FD3
:100F800024D009DCB1F5C47F0ED0B1F5227F11D099
:100F9000B1F5627F06D113E0B1F5D16F1AD0B1F58A
:100FA000F16F1AD0012070471168C0F806109188BF
:100FB000418117E01168C0F80E109188418211E05C
:100FC0001168C0F81610918841830BE0116840F851
:100FD0001E1F05E01168816204E0116840F82E1FB1
:100FE000516841600020704710EE101A826830EEA0
:100FF000C11A00EE902A00EE101ADFED1A1AC26034
:1010000030EEC00A71EE610A81604368B4EEE00A16
:10101000F1EE10FA04DD00EE103A30EE010A12E0B3
:1010200000EE102A00EE901A30EE600A71EEC10A4E
:10103000B4EEE00AF1EE10FA01D3426806E000EEE9
:10104000103A30EE410A10EE102A426000EE902A6B
:1010500000EE101A30EE800A10EE101A016000EE59
:10106000101A7047CDCC4C3E00487047100F00203E
:1010700038B504460020ADF80000A078E1780422DD
:1010800000EB012085B22146684607F0CBFD2A46D9
:10109000A11D684607F0C6FD1D48BDF800108088F8
:1010A000884234D121461A4C52225234A01DFFF7F7
:1010B000CAF8206C9FED171A00EE900A04F1680040
:1010C00080EE810ABEEE001AF6EE000AFFF78CFFF2
:1010D000606C9FED112A00EE900ABEEE001A04F13A
:1010E000780080EE820AF6EE000AFFF77DFFE06BE3
:1010F000BEEE001A00EE900A04F1580080EE820A5B
:10110000F6EE000AFFF770FF6420A4F8030038BD74
:10111000100F0020000034430000B44370B50F4CA2
:10112000B4F8010000280AD121780125642039B1E2
:10113000012907D0022902D100F012F8257070BDF4
:10114000257008E0B4F8031009B1657103E00021CF
:10115000617102212170A4F8010070BD620F0020AE
:1011600010B54FF4C87000F029F85222054906481E
:1011700003F06FFE05480068016821F00801016076
:1011800010BD0000100F0020C00300204806002002
:1011900010B5FFF76DFFBDE81040FFF7E1BF00009D
:1011A00010B50446FFF785F8214682B2BDE810402D
:1011B000014804F0EDB90000C003002000B589B07B
:1011C000024604A1684606F005FF6846FFF7E8FFFF
:1011D00009B000BD41542B4F44523D25750D0A0006
:1011E0000749B1F8010010B1401EA1F80100B1F8A3
:1011F0000300002802D0401EA1F803007047000041
:10120000620F002003494888002801D0401E488012
:1012100070470000080700200178002252290AD1F7
:1012200041780B2907D10021435C491C1A44D2B2F2
:101230000A29F9DB82727047F0B500287ED01229A6
:101240007CD10188C1F30A0446490C80A4F5B67428
:1012500000EE104A42788378F8EEC00AB0EE000A39
:10126000D20842EA431220EE801ADFED3F0AC2F3B1
:101270000A034B80C1EE201AB7EE001AA3F5B6732D
:101280008278C578920942EA8502057942EA852288
:10129000C2F30A028A80A2F5B672057946796D0812
:1012A00045EAC61571EEC11AC5F30A05CD8011EEE7
:1012B000904A01EE903AA5F5B675068AF8EEE11A65
:1012C0000E814779A6F5B67621EE802A4FEA971C63
:1012D00081F80AC04779C2EE201AC7F30117CF720E
:1012E000CC6071EEC11A11EE903A01EE902A0B61BA
:1012F000F8EEE11A21EE802AC2EE201A71EEC11A30
:1013000011EE902A01EE905A4A61F8EEE11A21EEB0
:10131000802AC2EE201A71EEC11A11EE902A01EE57
:10132000906A8A61F8EEE11A21EE800AC0EE201A76
:1013300031EEC10A10EE102ACA6100E011E081F816
:1013400020C081F82170C2884A8402898A84428937
:10135000CA84027B81F82820427B81F82920C08939
:101360004885F0BDE40B00200000A544004870470C
:10137000140C002010B524220549064803F069FD2D
:1013800005480068016821F00801016010BD0000F7
:10139000140C0020300300202805002010B5002286
:1013A00001230A21104600F047FE204C01230022B1
:1013B00054F80E1FC8610A21184600F03DFE21684E
:1013C00001230022C8630A21022000F035FE2168B3
:1013D00001230022C8650A21032000F02DFE2168A8
:1013E00001230022C8670A21042000F025FED4F85A
:1013F000131001230022C8610A21052000F01CFE01
:10140000D4F8131001230022C8630A21062000F03B
:1014100013FED4F8261001230022C8610A210720F8
:1014200000F00AFED4F82610C86310BD4D0000205D
:1014300010EE101A826830EEC11A00EE902A00EE0B
:10144000101ADFED1A1AC26030EEC00A71EE610A9E
:1014500081604368B4EEE00AF1EE10FA04DD00EEBC
:10146000103A30EE010A12E000EE102A00EE901A57
:1014700030EE600A71EEC10AB4EEE00AF1EE10FA45
:1014800001D3426806E000EE103A30EE410A10EE59
:10149000102A426000EE902A00EE101A30EE800A08
:1014A00010EE101A016000EE101A7047CDCCCC3E41
:1014B00070B505460888164681B205EB450000EB7D
:1014C000051212481044B0F90C30827C8B4205DAC8
:1014D000C91A491E8CB2611C914201D9012070BD0C
:1014E00050F80E2F1B2303EB44130121D154006845
:1014F0001C2101EB44110844006800F0ABFDE2B28E
:101500002946304600F0D4F8002070BD4D00002080
:1015100010B5FFF743FF00F007F8BDE810400148A1
:1015200005F0C8BB380D0020F0B58DB04FF4007742
:10153000BDF81A00314C67F34F10ADF81A00069849
:101540004FF4FE61204006909DF818000E2520F013
:1015500006008DF81800BDF81E00012661F34F103B
:10156000ADF81E0007984FF6FF7161F3D4000790A5
:101570009DF81C00224940F006008DF81C00002058
:101580008DF820008DF82150CDF82210CDF82600DE
:10159000CDF82A6006A8FFF73FFCBDF8020040F234
:1015A000FC7167F34F10ADF8020000988DF80850F9
:1015B000204000909DF800008DF8095020F00600B2
:1015C0008DF80000BDF8060061F34F10ADF806007D
:1015D0000198204001909DF8040040F006008DF82D
:1015E00004000848CDF80A00CDF80E60CDF812606E
:1015F0006846FFF711FC0DB0F0BD00000700E0FFEA
:10160000F40000201C01002070B500EB400606EB42
:10161000001617488AB0304400EB4101DDE90E5452
:10162000B1F9081002910021049105910821069159
:10163000110A8DF800108DF80120190A8DF802109A
:10164000290A8DF804108DF80550210A8DF806102E
:101650008DF803308DF80740406808AB6A4602A950
:10166000FFF7F8FB0249491E08700AB070BD000080
:101670004D0000209FED0D2A1CB520EE020ABDEEA4
:10168000C00A10EE102A20EE820A61EE820ABDEE38
:10169000C00AFDEEE00A10EE103A21EE020ABDEE9D
:1016A000C00A8DEC020AFFF7AFFF1CBD00008046A8
:1016B000F0B403889FED241A5BBA00EE103A448818
:1016C0008588F8EE400A867901EB410000EB0111B4
:1016D00080EE810A1B481A27084407EB421750F88E
:1016E0000E1F6DBA2DB2CE550368DFED180A03EB5D
:1016F000421364BA9FED161A10EE101A00EE105A3B
:1017000019600168142303EB4213B8EEC00A1944B0
:101710000C8020EE200A0368162404EB421410EE1D
:10172000101A2344F7EE000A1960006800EB42111A
:101730000968F0BC00EE101A042101EB42110844C4
:10174000FFF776BE4D00002000F8FF45000080380E
:1017500000000000074B002000EB400101EB0011EE
:1017600019444A880AB1521E4A80401CC0B203285C
:10177000F2D370474D00002030B504007DD015290C
:101780007BD107F04BFB002877D02078A92874D1B3
:101790006078532871D1E278A0782379110E40EA5D
:1017A000022040EA034041EA13416379A27941EA09
:1017B00013211143E27940EA036041EA0221227ACF
:1017C00041EA0241627A41EA02615B4A32F8033F30
:1017D00060F30A031380C30AB2F8015043EA41538D
:1017E00063F3CD05A2F80150800DD2F8013040EA34
:1017F000812060F39833C2F8013090884B0863F37E
:101800004B00908050790B0B63F305108B0B63F347
:101810008610CB0B63F3C710507190790B0C63F3F8
:1018200000009071D0884B0C63F34B00D080D079CE
:10183000090F61F30410D07160891081A089508173
:10184000E0899081217C907B8B0861F3010063F338
:101850008300090961F305109073B4F81100A2F830
:101860000F001088C0F30A00A0F5B67000EE100A51
:10187000B0EE001AB8EEC00A00E05BE060EE010ACC
:101880009FED2E0AC0EE801AF7EE000A71EEE01A04
:1018900011EE900AC2F81300B2F80100C0F3CA00BA
:1018A000A0F5B67001EE900AF8EEE11A21EE812A59
:1018B000C2EE001A71EEE01A11EE900AC2F817009B
:1018C000D2F80100C0F38A30A0F5B67001EE900A9C
:1018D000F8EEE11A21EE812AC2EE001A71EEE01A4A
:1018E00011EE900AC2F81B009088C0F34A00A0F5E0
:1018F000B67001EE900AF8EEE11A21EE812AC2EEEE
:10190000001A71EEE01A11EE900AC2F81F00D0889A
:10191000C0F34A00A0F5B67001EE900AF8EEE11AA5
:1019200021EE811AC1EE001A31EEE00A10EE100A23
:10193000C2F8230030BD0000781000200000A5444C
:1019400000487047A210002010B51522054906482E
:1019500003F07FFA05480068016821F00801016082
:1019600010BD0000A2100020A002002008040020EA
:10197000014801F0F1BD0000C8040020014801F059
:10198000EBBD000088050020014801F0E5BD000026
:1019900098010020014801F0DFBD0000080400208C
:1019A000014801F0D9BD0000E8050020014801F020
:1019B000D3BD000068040020014801F0CDBD000047
:1019C000F8010020014801F0C7BD000048060020D2
:1019D000014801F0C1BD000028050020014801F0C8
:1019E000BBBD0000A806002001681823CAB2103A47
:1019F000B2FBF3F2054B6FF30901032A9B5CC3654D
:101A000000D9091D816508467047000070930008E1
:101A100010B5014600208B698A6A4FF0C07453B13B
:101A2000B3F5005F15D072B1012A0CD0022A0AD09A
:101A3000032A09D104E01AB1012A06D0022A03D1EF
:101A4000C96AC90100D5012010BDC96AA142FAD0F6
:101A500010BD002AF7D0012AF2D0022AF3D0032ABF
:101A6000F3D010BD30B50468256825F480252560C5
:101A7000046863608368402B036803D09960006842
:101A8000C26030BD9A600068C16030BD1CB507A35C
:101A9000D3E90023CDE900238DF80710B0F9041035
:101AA00008236A4600F01BF91CBD0000FFFFFFFF82
:101AB000FFFFFF0000210161C160416001604FF044
:101AC000004181607047FB21FFF7E0BFDFED111A95
:101AD0001CB560EEA10A8DED000A0823FCEEE00AB9
:101AE00010EE901ADFED0C0AADF8041061EE200A3A
:101AF0009FED0A1AC0EE811AFCEEE10A10EE902A60
:101B0000ADF8062081886A4601F5407109B200F0FF
:101B1000E6F81CBD0000C84200401C460E2D2441C2
:101B200010EE101A026930EEC11A00EE902A00EE93
:101B3000101AF6EE001A426130EEC00A71EE610A28
:101B40000161C368B4EEE00AF1EE10FA04DD00EEC4
:101B5000103A30EE010A12E000EE102A00EE901A60
:101B600030EE600A71EEC10AB4EEE00AF1EE10FA4E
:101B700001D3C26806E000EE103A30EE410A10EEE2
:101B8000102AC26000EE902A00EE101A30EE800A91
:101B900010EE101A416000EE101A816800EE901AE3
:101BA00030EE200A10EE101A016000EE101A704795
:101BB00070B514461278002362F307036278B0F917
:101BC000065062F30F230A8892B2954213D1B0F9FE
:101BD0000420934205D10A6921463730FEF733FBD2
:101BE00002E0214600F08AF80448D0F83F0000F0F7
:101BF00031FA002070BD012070BD0000CD0E002024
:101C000010B50C4C0A4820601020E0801120A08004
:101C100000F012F804F11E00FFF74CFF0123002230
:101C20006421092000F008FAC4F83F0010BD00004C
:101C3000F4000020CD0E002000B587B01021BDF8C3
:101C4000020061F34F10ADF80200174900980840F8
:101C500000909DF80000090C20F006008DF80000AF
:101C6000BDF806000843ADF8060001984FF6FF7175
:101C700061F3D40001909DF804000E2140F00600AD
:101C80008DF8040001208DF808008DF8091007492F
:101C9000CDF80A100021CDF80E10CDF812006846DC
:101CA000FFF7BAF807B000BD0700E0FFF40000201E
:101CB00008B508A104230968009181888DF80010F7
:101CC000090A8DF801106A4640F2FF7100F007F82A
:101CD00008BD00000000CC00FE21FFF7D7BE00B514
:101CE00087B0009100210291CDE90313006806AB93
:101CF0006946FFF7AFF807B000BD000010B5024617
:101D00000878DFED270A0009107208789FED250A90
:101D100000F00F005072B1F8010040BA00B25081DB
:101D2000CB780C791B0143EA141393814B79097921
:101D300001F00F0143EA0121D181102107F05AF887
:101D4000DFED190A0C2130EE200AF3EE090A10EE3D
:101D5000100ABBEE090AC2F81200B2F90C0007F033
:101D600049F810EE100A0C21C2F81600B2F90E0064
:101D7000F2EE040ABAEE040A07F03CF810EE100A7C
:101D80009FED0A1AC2F81A00D2F81200BDE81040FE
:101D900000EE100ADFED060A02F11E00FFF7C0BEDA
:101DA000560E4940560E49C0560EC940000000006C
:101DB000DA0FC940012903D05FF0FD01FFF766BECD
:101DC000FC21FBE710B5FFF737FAFFF7D3FA02491A
:101DD0003220C88510BD0000E40B00200349C88DE7
:101DE000002801D0401EC88570470000E40B002089
:101DF00010B5012300220A21082000F01DF9014935
:101E0000486010BD581000200348817AC27A02EB66
:101E100001218181704700005810002010B5002179
:101E2000022000F0C1F802490020887310BD0000B4
:101E30005810002010B50121022000F0B5F8024929
:101E40000120887310BD0000581000202DE9F041DA
:101E5000214C608800280FD12046227804260127D3
:101E6000642140684FF49675062A05D2DFE802F037
:101E700003061B26292D2770BDE8F08142790AB997
:101E8000807938B1A0894FF6FF73984209D3012AAF
:101E900005D006E0FFF7C2FF022020701AE026708E
:101EA00018E06180E8E742790AB9807908B12770C3
:101EB000F7E7032020700A206080DDE700F00EF8CD
:101EC000EDE7FFF7B7FF0520E7E70221002000F06C
:101ED0005BF827706580CFE758100020144810B5D4
:101EE000124901601349416000214FF48042816032
:101EF000C0E9031241618161C161016201F080FFAB
:101F000008B100F022F90021094801F0C1FD08B133
:101F100000F01BF90021064801F0DBFD002803D08A
:101F2000BDE8104000F011B910BD0000005800409D
:101F300044010020801A060010B50221002000F0A4
:101F400023F8FFF761FF03484068BDE8104000F048
:101F500081B800005810002003494888002801D0AB
:101F6000401E4880704700005810002010B5FFF751
:101F70003FFFFFF75FFF0221002000F005F8BDE8FA
:101F80001040FFF741BF00001CB5054ACDE9002114
:101F900002460123A221034802F004F81CBD000000
:101FA00062100020440100201CB5074A1172064946
:101FB00001220831CDE9001213460246A22103484E
:101FC00002F0D6F81CBD000058100020440100208B
:101FD00070B51348012142789AB1012A14D10278D0
:101FE000002A11D100240F4D0170264604EB440055
:101FF00000EBC4002844017961B18179012904D042
:1020000008E041706421017070BD8671D0F807004E
:1020100000B18047641CA4B20A2CE7D370BD000055
:102020009E000020EA0F0020002803D041800371A9
:10203000C0F807207047000010B500EB400404EB27
:10204000C004034820440446FFF7EEFF204610BDBD
:10205000EA0F0020002803D041880180012141714E
:1020600070470000104B002000EB400101EBC00165
:1020700019440A796AB10A8822B1521E1204120C5C
:102080000A8006D14A79012A03D100224A7101222D
:102090008A71401C80B20A28E6D3044908780028D7
:1020A00001D0401E08707047EA0F00209E000020FB
:1020B00010B502780023512A3DD106293BD10022D8
:1020C000491E845C521C2344DBB28A42F9DB41790D
:1020D000994230D1417882789FED171A01EB0221A5
:1020E00089B2A1F50C51283900EE101AC278007996
:1020F000B8EEC00A02EB002080B2A0F50C50C0EE92
:10210000010A283800EE100A0C490E48F8EEC01AF1
:1021100081EE810A9FED0A1AC1ED000AC0EE811A14
:1021200081ED010AC0EE010A11EE901A40F8031F7A
:1021300010EE901A416010BD0000C8C2A40000203B
:1021400000409C45B7100020704772B6FEE72DE9AD
:10215000FF4100241F4626468DF80E4000F021F86E
:1021600005000AD06946285DA0F13002092A08D985
:102170002E2806D02D2804D008E0002004B0BDE8A9
:10218000F0810855641CE4B2052CECD30E550846CA
:1021900006F07AF851EC100BFEF73EFA3860281979
:1021A000ECE770B515460E0009D0FEF770F8040094
:1021B00007D03046FEF77DF82844204470BD104417
:1021C00070BD002070BD000010B558B1084C491E0C
:1021D0000BD310F8013B5340DBB234F8133083EAE1
:1021E0001222F4E74FF6FF7010BD104610BD00003C
:1021F0007091000810B5064C04E000BF10F8013BD8
:102200005340E25C491E89B2F8D2104610BD00006E
:102210007090000810B5244C48B1012818D1D4F8AA
:10222000F001D8B394F88011012915D036E0D4F824
:10223000FC0070B18047D4ED3D0A30EE200AD4EDA9
:102240003E0A30EE200A84ED3D0A00BF84ED2C0AE0
:1022500010BD94ED3D0AF9E7804794F8E4010128A8
:1022600003D0022807D058B110E0B5EEC00AF1EE55
:1022700010FA05D30AE0B5EEC00AF1EE10FA05DD5A
:10228000D4ED720A30EE800A84ED720A94ED720A7F
:10229000D4ED730A30EE200A84ED720A94ED720ACE
:1022A00084ED610A10BD0000680800202DE9F047A8
:1022B000D8492DED088BD1F82100C27E012A37D1F3
:1022C00090F83B008846012832D1D34CE08808B111
:1022D000401EE08020794FF000090125C0B1CF4EAB
:1022E000012829D0022823D194F8F000DFEDCC8A10
:1022F0009FEDCC8AB0EE00AADFEDCBAAB7EE00BA14
:1023000070B3401E10F0FF0084F8F00028D0F3E016
:10231000E08800280CD1257184F84C5084F898503E
:1023200084F8EC5084F83C5184F87C5184F8C05116
:10233000BDEC088BBDE8F087E0880028F8D1B06FCD
:1023400000EE100AB1EE400A84ED3D0AB06E00EED8
:10235000100A0220B1EE400A84ED720A2071E7E70C
:10236000032084F8F0000020FFF754FFB06FD4ED95
:102370002C0A00EE100AA84830EE800AB43084ED32
:102380002D0A06F085FC84ED360AA84F84ED170A65
:10239000D4ED2CBA97ED030A7BEEC00AC7ED040A10
:1023A0009FEDA31A80EE810A10EE100AFEF721F9C4
:1023B00041EC190BD8F82100B0F91400FEF708F928
:1023C0009FED9C1B53EC112BFEF71BF89FED9B1B05
:1023D00053EC112BFEF71BF89FED9A1B53EC112BBE
:1023E000FEF787F89FED991B53EC112BFEF709F8C8
:1023F00053EC192BFEF705F841EC190BB868FEF702
:10240000F8F853EC192BFEF702F8FEF705F978619E
:102410009048C7ED03BAD4ED280A006800EE100A10
:102420007D4820EE200AA43084ED270A04F002F94A
:1024300084ED2B0A94ED170A874A10EE100A87499B
:10244000904216DA10EE100A854A904211D2487C6A
:1024500010F00C0F0DD0DFED830AB5EEC00AF1EEDF
:1024600010FA02DD30EE200A01E030EE600A84ED61
:10247000170AF06A00EE100AC0EE280A9FED7A1AD9
:10248000B0EE480A794A10EE810A97ED051A60EE1F
:102490000A0A80EEAA0AD4ED170A70EE810A30EE1D
:1024A0004B0A30EEC00A10EE100A84ED180A904272
:1024B00004DC10EE100A6E4A904211D9487C10F0EC
:1024C0000C0F0DD09FED6B1ADFED6B0A9FED6B0AC1
:1024D00006F06CFCD4ED180A30EE200A84ED180AE0
:1024E0004D48603006F0D4FB84ED210AD4ED2B0A70
:1024F00030EE200A84ED040A94ED210AD4ED2B0A73
:10250000454830EE200A503084ED040A04F092F879
:1025100084ED160AD8F821004746D0F8160000EEE0
:10252000900A3D4830EE600A143084ED050A06F04A
:10253000AFFB84ED0E0A94F8C40128B1401E10F0E0
:10254000FF0084F8C40145D1042084F8C4010120AF
:10255000FFF760FE94F8E501E8B394ED610AD4ED6D
:10256000780A30EE600A00BF84ED620A444806F043
:102570008FFB84ED6B0A84ED500AD7F82100B0F987
:10258000340000EE900AB8EEE01ADFED3E1AB06AB1
:10259000C1EE210A9FED3C1A60EE810A01EE100A9D
:1025A0003748C1EE281A9FED391A443811EE818A56
:1025B00028EE0A1AC1EE2A1A31EECB1AF0EE041AEE
:1025C00041EE210A30EE600A84ED510A06F060FB0C
:1025D00084ED5A0A00E014E09FED2D1AD4ED5A0A5A
:1025E00094ED0E0AF0EE411A00210120FFF742F8A7
:1025F00057F8211F81F81B90396881F83B90E580DE
:1026000096E6B06ED4ED610A00EE100A30EE800A54
:10261000AAE700004D00002068080020620F00209B
:10262000000034430000A0C3000020440800002044
:102630000AD7A33B00000000000074C000000000A7
:102640000000004000000000000084400000000086
:102650000000F03F860000203333B33E78100020A6
:102660003333B3BE8FC2753C000070C20AD7233C1F
:102670000AD723BC6F12833ACDCCCC3C0000484231
:10268000F009002000A08C46CDCC4C3F00007042E9
:10269000000000000F4810B5D0F821000C4C406A33
:1026A000D4ED770A00EE100A30EEC00ADFED0A0A18
:1026B00084ED760A20EE200A00F07AFA9FED071AE0
:1026C000F0EE400A80EE810A84ED780A10BD000029
:1026D000680800204D000020DA0FC940DB0F494098
:1026E0002DE9F041874C0021A446B4F800E0042213
:1026F00003230226BCF802709CED7B1A0125DFED56
:10270000820A9CED743ADCED752A804833EE602A2B
:1027100072EEA01A806E9CED780ABEF1070F0DD202
:10272000DFE80EF0040E4B749FB5CE00002F05D1EC
:102730002079022800D1258064206080BDE8F081E6
:102740004FB994ED720ADFED720A0A2030EE200ACA
:1027500084ED720A60804FF480616E4801F088F960
:102760000128EBD16C4884F88051D0F82100416AEF
:1027700000EE101ADFED690A30EE200AF1EE0C0AC5
:1027800030EE600A84ED770A406A00EE100A644871
:10279000D0ED000A30EEC00A84ED760A90ED010A11
:1027A000DFED600A20EE200A00F002FADFED5E0A9B
:1027B00080EE201A84ED781A51E0B4EEC30AF1EEEF
:1027C00010FA0DDB00EE100A84ED723AB1EE400A09
:1027D00084ED7B0A238084F8E55184F8E451ADE769
:1027E000B4EEE20AF1EE10FA0DD800EE100AC4EDD4
:1027F000722AB1EE400A84ED7B0A228084F8E5510A
:1028000084F8E4619AE784F8E41197E702EE900A0D
:1028100071EE200AF1EE622AF4EEE02AF1EE10FAEF
:1028200009DD00EE100A84F8E5110520B1EE400A3A
:1028300084ED720A29E0B4EEC20AF1EE10FACED2AB
:10284000B4EEE10AF1EE10FAC9DD00EE100A84F8E8
:10285000E41184F8E511B1EE400A84ED720A268095
:102860006CE702EE900A71EE600AF1EE622AF4EE75
:10287000E02AF1EE10FADED200EE100A84F8E5113B
:102880000620B1EE400A84ED720A208056E7B4EECD
:10289000C20AF1EE10FA04D2B4EEE10AF1EE10FA37
:1028A0001EDC00EE100AB1EE400AB4EEC10AF1EEF1
:1028B00010FA94D284F8E45184F8E55123803DE77E
:1028C000DFED1A0A73EE601AB4EEE10AF1EE10FAC7
:1028D00009D272EEA00AB4EEE00AF1EE10FA02DDBF
:1028E00084F8E411BBE700EE100AB1EE400AB4EE42
:1028F000C10AF1EE10FA85DD84F8E46184F8E5514F
:1029000022801BE7680800206F12833A620F0020C4
:102910006F1283BA000402404D00002000000743FC
:1029200008000020DA0FC940DB0F49400AD7233CDA
:1029300070B55E4C00202DED068B208060802071EC
:10294000E0809FED5B8A5B4884ED048AD0F821002B
:10295000D0F8160000EE900A9FED570A04F15000DF
:1029600003F07BFE04F11400054604F0A3F9F7EE32
:10297000082A9FED522AF1EE041AB0EE481ADFED54
:10298000508AB0EE000A2846F0EE680A04F0AEF96C
:1029900004F1600084ED178A054604F08BF9DFED41
:1029A000492A9FED492AF0EE681AB7EE001ADFEDCA
:1029B000479AF0EE690A9FED460A284604F096F918
:1029C00004F1B40084ED2C8A054604F073F9F7EEA7
:1029D000002A9FED402A9FED409AB0EE481AF0EE93
:1029E000480AF0EE491A9FED3D0A284604F07EF9A8
:1029F00004F5827084ED408A054604F05BF9F7EE39
:102A0000082A9FED372AF2EE081AB0EE481AF0EEC7
:102A1000690AB0EE490A284604F068F904F5A27084
:102A200084ED508A054604F045F99FED2E9A9FEDFE
:102A30002EAAF0EE041AF0EE492AB0EE4A2AB0EEC1
:102A4000481AF0EE690AB1EE000A284604F04EF981
:102A500004F5C47084ED618A054604F02BF9F0EEAC
:102A6000492AB0EE4A2ADFED211AB0EE481AF0EEFC
:102A7000480AB2EE020A284604F038F99FED1C0A13
:102A8000F0EE480A84ED740A9FED1A0A04F1A400DE
:102A900084ED750A9FED180A84ED280AB0EE680AE5
:102AA000BDEC068BBDE8704003F0D7BD6808002080
:102AB000000000004D0000205C8FC23E9C53C936D0
:102AC000CDCC4C3EA4707D3FACC5A7360AD7233C85
:102AD000CDCCEC40ACC52737CDCCCC3D666666404E
:102AE00082A87B3848E17A3F17B7D1388FC2F53CCE
:102AF0009CE4C93DC119E1BD348037BA04489FED5B
:102B0000051AD0F81E0000EE900A80EE810A704788
:102B1000781000200000E14305489FED061AB0F947
:102B20000D0000EE100AF8EEC00A80EE810A704730
:102B30007810002000606A461A484189002925D192
:102B4000037A0122F3B11849012BD1F821101ED0CC
:102B5000022B1BD1CB695B79012B17D1C96B49794A
:102B6000012913D111498B6F00EE103AB1EE400AE2
:102B700080ED3D0A896E00EE101AB1EE400A80ED3C
:102B8000720A02E00179022900D102727047CA6913
:102B900052791AB1C96B49790029F7D10221017222
:102BA00070470000680800204D000020620F0020E0
:102BB0009FED041AC0EE010AB2EE080A20EE800A68
:102BC00004F05CBAD5316243044A20B1012801D136
:102BD000C2F8F0117047C2F8FC1070476808002076
:102BE00010B5084C94F88001012803D1FFF752FD7D
:102BF00084ED780AFFF7A0FFFFF772FDBDE81040F3
:102C0000FFF754BB680800200549488808B1401EFA
:102C100048804889002801D0401E48817047000044
:102C20006808002004489FED051AD0F8220000EE45
:102C3000900A80EE810A70477810002000800944D5
:102C400005489FED061AB0F90B0000EE100AF8EEE9
:102C5000C00A80EE810A7047781000200008C34641
:102C600090F82020012A07D0022A05D0416A41F4B9
:102C70008021416201207047006842690A43426135
:102C800000207047F0B590F820500468A468012D2A
:102C900005D0022D03D0416A41F480214DE014F0AB
:102CA000406F01D1E50045D5C4F301640125A5407D
:102CB0001D608D684FF4C0739DB1CE6835434E687A
:102CC00045EAC605066803EB0417F5514FF4C275D3
:102CD000076805EB04150E697E51097D012905D0B1
:102CE00009E00E88CD6845EA4655EBE701684E5984
:102CF00046F480764E511179D2F805504FF4C676DD
:102D000041EA0521056806EB0416A9511178D2F8AD
:102D100001204FF4C47541EA0221026805EB041555
:102D20005151006803EB0411425842F00102425035
:102D30000020F0BD416A41F4001141620120F0BD64
:102D400010B590F82020012A07D0022A05D0416A48
:102D500041F480214162012010BD3B48D0F800229F
:102D600042F00102C0F80022D0F8002222F47C5286
:102D7000C0F80022D0F800224B6A42EA0322C0F8D1
:102D800000220A7D02F01F0301229A40D0F81C3273
:102D90009343C0F81C32CB69B3B9D0F80C329343DB
:102DA000C0F80C328C894B6864F31F434C6900EB0C
:102DB000C404C4F840320C890B6864F31F434C69A7
:102DC00000EBC404C4F84432CB69012B16D1D0F80F
:102DD0000C321343C0F80C320C884B6864F31F4369
:102DE0004C6900EBC404C4F840320C89CB6864F32E
:102DF0001F434C6900EBC404C4F844328B69002BB8
:102E0000D0F804320ED01343C0F804320B69002B03
:102E1000D0F8143208D01343C0F81432096A0129DB
:102E200004D008E09343EFE79343F5E7D0F81C1292
:102E30001143C0F81C12D0F8001221F00101C0F8B3
:102E40000012002010BD000000640040704770B503
:102E500090F82040012C05D0022C03D0416A41F4A7
:102E6000802128E0046809B32469A40720D04FF426
:102E7000D874056804EB01142D5915F0040595600C
:102E800005682D591AD0ED08556005682C5904F0D5
:102E90000204D4604FF4DA74056804EB01142E596F
:102EA00006F00F06082E0CD308250DE0E468DCE7D9
:102EB000416A41F400114162012070BD6D0D156041
:102EC000E3E72D5905F00F05156105682D59C5F388
:102ED0000725956105682C59240C54614FF4DC7268
:102EE000046802EB0112A4581C700468A458240A58
:102EF0005C700468A458240C9C700468A258120EDC
:102F0000DA704FF4DE72046802EB0112A4581C71EF
:102F10000468A458240A5C710468A458240C9C71A9
:102F20000468A258120EDA71006829B1016941F0F3
:102F300020010161002070BDC16841F02001C16025
:102F4000F8E70246002092F82010012901D002295A
:102F50000CD111688A68520100D501208A681201DB
:102F600000D5401C8968C90000D5401C70472DE978
:102F7000F05F0546006800244669D0F80490876831
:102F8000D0F80CB0D0F810A0D0F81880F10748D0D5
:102F9000F90714D001218160B80703D5284600F055
:102FA00074FA0CE0780702D54FF4006407E03807A4
:102FB00002D54FF4805402E0284600F065FAF80587
:102FC00016D529684FF480708860B80503D5284667
:102FD00000F05DFA0CE0780502D544F4005407E0F7
:102FE000380502D544F4804402E0284600F04EFA49
:102FF000F80316D529684FF480308860B80303D5EC
:10300000284600F046FA0CE0780302D544F4004468
:1030100007E0380302D544F4803402E0284600F08B
:1030200037FA300707D55FEACB6004D5296810204E
:1030300044F40074C86070074FF0080707D55FEAD2
:103040000B7004D52868C760284600F099F9B007CE
:1030500006D52868C068800702D0284600F092F99B
:10306000700607D55FEACA6004D52968102044F4C9
:1030700080640861B00607D55FEA0A7004D5286845
:103080000761284600F0AAF9F00606D5286800690D
:10309000800702D0284600F0A3F9B00308D55FEA04
:1030A000C96005D5296810204860284600F0BEF99F
:1030B000F00307D55FEA097004D528684760284601
:1030C00000F0E8F9300446D55FEA497040D5F005D4
:1030D00004D55FEAC87001D044F00104B00504D5FE
:1030E0005FEA887001D544F00204700504D55FEAF8
:1030F000487001D544F00404300529D518F0700F4C
:1031000026D008F07000402815D006DC102809D021
:1031100020280AD0302816D10AE050280ED0602886
:1031200011D10EE044F008040DE044F010040AE070
:1031300044F0200407E044F0400404E044F080043C
:1031400001E044F480742868816921F07001816194
:10315000296804204860002C05D0686A2043686212
:103160002846FFF773FEBDE8F09F70B5040003D05A
:1031700094F8200010B104E0012070BD204600F05A
:1031800081F82068016841F00101016000F07AFCDB
:103190000546052604E000F075FC401B0A2811D8FE
:1031A00020684068C007F6D02068016821F002015D
:1031B000016000F067FC05460BE000F063FC401B7B
:1031C0000A2806D9606A40F40030606284F8206002
:1031D000D2E7206840688007EFD4207E012820686D
:1031E00001683DD021F080010160607E01282068E7
:1031F000016838D021F040010160A07E01282068DC
:10320000016833D021F020010160E07E01282068B0
:1032100001682ED041F010010160207F0128206854
:10322000016829D021F008010160607F0128206831
:10323000016824D021F004010160D4E902010843AF
:10324000D4E90412114308436168491E0843216808
:10325000C86100206062012084F82000002070BD59
:1032600041F08001C0E741F04001C5E741F0200195
:10327000CAE721F01001CFE741F00801D4E741F09F
:103280000401D9E7F0B587B0044614216846FCF77D
:10329000F3FF364B3648DFF8D0E01968D4F800C0A9
:1032A000334A03250226092710300024491CF4451F
:1032B00022D11960012907D1016841F00071016034
:1032C000006800F000700590106840F00800106081
:1032D0001068CDE9005600F00800CDE90470694699
:1032E0002448CDE9024500F0A9FA00221146142035
:1032F00001F0FCF8142033E0DFF87CE0F44531D134
:10330000D0F800C04CF0806CC0F800C0D0F800C00D
:1033100001290CF0806CCDF814C0196007D1016848
:1033200041F000710160006800F0007005901068C5
:1033300040F002001060106802AB00F0020005903F
:103340004FF44050CDE9000683E8B00069460B48D1
:1033500000F074FA00221146412001F0C7F8412024
:1033600001F0B6F807B0F0BD006400400000002096
:1033700030380240000C0240006800400004024067
:103380007047000000B5114987B088421BD1104B2F
:103390006A460021FFF75BFD08B1FEF7D6FE0C4A36
:1033A00069460020FEF784F8094A69460120FEF7C5
:1033B0007FF8074A69460748FEF7FAFB044A694660
:1033C0000548FDF779FD07B000BD0000F4000020BE
:1033D000C0000020CD0E00208D00002070470000AE
:1033E00000B50E4987B0884216D10D4B6A460121BF
:1033F000FFF72DFD08B1FEF7A8FE094A6946094806
:10340000FDF7BBFD064A69460220FEF751F8044A63
:103410006946054804F0CCF907B000BD1C01002046
:10342000C8000020970E00206810002070470000A0
:1034300070B5044690F82000012804D0606A40F47A
:103440000020606218E0022084F8200020680168F3
:1034500021F00101016000F015FB05460EE000BF00
:1034600000F010FB401B0A2808D9606A40F40030C5
:103470006062052084F82000012070BD206840684B
:10348000C007EDD1606270BD7047704770477047EC
:103490007047704770472DE9F0410446876D00F092
:1034A000F1FA064694F835000025022806D080205F
:1034B000606584F834500120BDE8F081206801681F
:1034C00021F0160101602068416921F0800141610D
:1034D000206C08B9A06C20B12068016821F00801B7
:1034E00001602068016821F0010101600CE000F03A
:1034F000C9FA801B052807D920206065032084F8BD
:10350000350084F83450D7E720680068C007EED152
:1035100094F85C103F208840B860012084F83500A2
:1035200084F834500020C7E790F83510022903D002
:103530008021416501207047052180F83510006821
:10354000016821F00101016000207047406D704763
:1035500090F83500704700002DE9F84304464FF01D
:103560000009CDF8009063484FF41651A56D00682E
:10357000B0FBF1F72E6894F85C10082000FA01F116
:1035800031420FD021680A6852070BD50A6822F031
:1035900004020A6094F85C108840A860606D40F0F6
:1035A0000100606594F85C104FF0010808FA01F022
:1035B000304208D021684969090604D5A860606DC9
:1035C00040F00200606594F85C10042088403042AE
:1035D00008D021680968890704D5A860606D40F0AB
:1035E0000400606594F85C1010208840304218D0C8
:1035F00021680968090714D5A86020680168490393
:1036000004D50068000308D5A16C07E00168C9056E
:1036100003D4016821F008010160216C09B1204642
:10362000884794F85C1020208840304231D02168CF
:103630000968C9062DD5A86094F8350005282068CA
:10364000016806D0490347D5006800031DD4616CAA
:103650001CE021F0160101602068416921F0800121
:103660004161206C08B9A06C20B12068016821F08C
:103670000801016094F85C103F208840A86084F83D
:10368000358084F83490216D1FE0E16B09B120464C
:103690008847606D00282BD0606DC00714D00520CE
:1036A00084F835002068016821F00101016000986C
:1036B000401C0090B84203D820680068C007F6D1CB
:1036C00084F8358084F83490E16C002910D001B082
:1036D0002046BDE8F04308470168C905D5D4016814
:1036E00021F01001016084F8358084F83490CCE733
:1036F000BDE8F883EC0000202DE9F041044600F01D
:10370000C1F906465CB1022084F83500002584F832
:1037100034502068016821F0010101600DE00120B2
:10372000BDE8F08100F0AEF9801B052805D9202006
:103730006065032084F83500F2E720680068C00760
:10374000F0D12268116820480140D4E901031843F0
:10375000D4E903363343184363691843A369184314
:10376000E3691843236A18430843616A042903D1B3
:10377000D4E90B1319430843106020684069666A56
:1037800020F0070130460E43012704280CD1A06A1F
:103790000643E06A40B12046FEF73AF920B14020E6
:1037A000606584F83570BAE7206846612046FEF708
:1037B0001BF994F85C203F2191408160656584F895
:1037C00035700020ACE700003F8010F02DE9F0419B
:1037D0000446866D90F83400002501280DD00120A4
:1037E00084F8340094F835700020012F07D084F855
:1037F000340002252846BDE8F0810220FBE70227BD
:1038000084F8357060652046FEF72CF994F85C105A
:103810003F208840B0602068016841F016010160D7
:10382000206C20B12068016841F008010160206827
:10383000016841F001010160DCE700002DE9F84F6B
:10384000DFF8F8A10022012403254FF00F090AF147
:10385000040BAAF1040E00BF0B6804FA02F6334011
:10386000B34270D10F7907F00307012F01D0022F67
:1038700016D187684FEA420805FA08FC27EA0C07C8
:10388000D1F80CC00CFA08FC4CEA070CC0F808C0D0
:103890004768B7430E79C6F3001696403E4346602C
:1038A0000E79F643B6070AD0C7684FEA420C05FA0C
:1038B0000CF6B7438E6806FA0CF63E43C6600E79E6
:1038C00006F00306022E10D1D60800EB8608D8F8C1
:1038D000206057074FEAD76C09FA0CF7BE430F690F
:1038E00007FA0CF73743C8F8207006684FEA420C15
:1038F00005FA0CF7BE430F7907F0030707FA0CF738
:10390000374307604E6816F4403F1CD04C4E376872
:1039100047F480473760366822F0030706F4804694
:103920000096484E07EB060CDCF8086897073F0F37
:1039300009FA07F826EA0806DFF80C81404503D1AA
:103940004FF0000841E072E0DFF80081404502D10D
:103950004FF0010839E0DFF8F880404502D14FF020
:10396000020832E0DFF8EC80404502D14FF0030856
:103970002BE0DFF8E480404502D14FF0040824E05A
:10398000DFF8D880404502D14FF005081DE0DFF890
:10399000D080404502D14FF0060816E0DFF8C48021
:1039A000404502D14FF007080FE0DFF8BC804045EA
:1039B00002D14FF0080808E0DFF8B080404502D19E
:1039C0004FF0090801E04FF00A0808FA07F848EA42
:1039D0000608CCF80888DAF800605746D1F804C029
:1039E0009E435FEACC2C00D51E433E60DBF80060AE
:1039F0005F46D1F804C09E435FEA8C2C00D51E437D
:103A00003E60DEF800607746D1F804C09E435FEA6E
:103A10008C3C00D51E433E60084F083F3E68D1F8FD
:103A200004C09E435FEACC3C00D51E433E60521C5E
:103A3000102AFFF411AFBDE8F88F0000083C0140E8
:103A400044380240003001400000024000040240BF
:103A500000080240000C0240001002400014024026
:103A600000180240001C02400020024000240240D6
:103A70000069084000D0012070470AB18161704799
:103A80000904FBE70148806870470000E00000205F
:103A900090F83D20202A01D002207047242280F88F
:103AA0003D200268136823F0010313600268536A23
:103AB00023F0100353620268536A0B435362016898
:103AC0000A6842F001020A60202180F83D100020BF
:103AD000704790F83D20202A01D002207047242210
:103AE00080F83D200268136823F001031360036827
:103AF0005A6A22F00F020A4391B2596201680A68B9
:103B000042F001020A60202180F83D100020704739
:103B1000704770472DE9F041016804464A694E68D4
:103B200090F83E000025D743FA0506D4F243D205AB
:103B300003D46FF4807201254A61B90508D4F143BA
:103B4000C90505D422686FF4007145F00205516182
:103B5000790525D4F143C90522D4638D94F83D102D
:103B6000226B202808D13BB9212910D029290ED059
:103B7000282901D1212A0AD022686FF4806151617D
:103B800045F00405102806D0402804D008E020465F
:103B900002F0BEFA04E02068016841F4007101609F
:103BA000380508D4F043C00505D421686FF40060DF
:103BB00045F008054861002D07D0206C284320649B
:103BC0002046BDE8F04101F03FBEBDE8F0812DE99F
:103BD000F047026800215368C66A90F83E4090F8AA
:103BE0003D50102C12D0402C10D0046C002C7DD0F5
:103BF0005469E443A6077AD4DE43B60577D4036C50
:103C000003B19169BDE8F04702F05EBA9769516966
:103C10004FF42A0CC9435FEAC1784FF02A4904D017
:103C200066452AD04E4528D010E0DE43B6050DD4B7
:103C3000C16A614501D1012103E0C16A494501D151
:103C40000821C162BDE8F04702F0D2B80E0716D4D1
:103C5000DE43B60513D4416CC9B21161416B09B1A1
:103C6000C96B29B9816B002907D0C96B002904D021
:103C70000068416841F400614160BDE8F0878E074B
:103C800006D4DE43B60503D4BDE8F04702F024B8FD
:103C9000FE43526876074FEA02521DD4002AECDB3D
:103CA0000A0608D4DA43520505D4490705D5BDE80C
:103CB000F04701F0B5BF4907DFD4D9438905DCD40B
:103CC000212D05D0402CD8D1BDE8F04702F0D6B860
:103CD000BDE8F04701F062BF002ACEDB4A060BD4F4
:103CE000DA43520508D4490708D501E00DE00EE09B
:103CF000BDE8F04701F0D8BE4907BED4D9438905D5
:103D0000BBD4BDE8F04701F062BE916970E7E106FF
:103D100006D4D943890503D4BDE8F04702F040BA80
:103D20002821212D27D0292D25D0650655D4DD4306
:103D30006D0552D4640752D590F83D30448D002C67
:103D40009BD01269446A2270426A521C4262428DC0
:103D5000521E4285428D002A8FD12A2B8DD10268B6
:103D6000536823F4806353602222026380F83D107D
:103D700000F052FB81E7250623D4DD436D0520D4F6
:103D8000640720D590F83D30448D002CF2D0446A71
:103D900024781461426A521C4262428D521E42854E
:103DA000428D002AE6D1292BE4D10268536823F41E
:103DB000806353602122026380F83D1000F02DFBE8
:103DC0005BE76107D6D4D9438905D3D4418D002957
:103DD000D0D0416A097811610AE06107CAD4D94399
:103DE0008905C7D4418D0029C4D01169426A117078
:103DF000416A491C4162418D491E41853DE770473A
:103E000070B5040025D094F83D00002520B984F851
:103E10003C50204600F076FA242084F83D002068CB
:103E2000016821F0010101602068016841F400414E
:103E300001602068016821F40041016000F05AFC33
:103E40004D4A6168914201D84C4900E04C49884292
:103E500001D2012070BD4B492368B0FBF1F15E68CF
:103E600026F03F060E435E606368934206D94FF426
:103E7000967359434FF47A73B1FBF3F12368491CED
:103E80001E6A26F03F06314319626168914210D8DC
:103E90004900401EB0FBF1F2521CC2F30B02042A8F
:103EA00001D2042022E0B0FBF1F0401CC0F30B0073
:103EB0001CE0A268F2B301EBC10303EB0116431E41
:103EC000B3FBF6F35B1C43F480431B0549D092B36C
:103ED00001EBC10202EB0111401EB0FBF1F0401CEE
:103EE000C0F30B0040F4804040F400402168CA69F0
:103EF0004CF6FF739A431043C861D4E9071001439D
:103F00002068026822F0C00211430160D4E9030175
:103F100001432068826848F2FF339A43114381606D
:103F2000D4E9050108432168CA6822F0FF02104362
:103F3000C86001E00EE016E02068016841F0010170
:103F400001602564202084F83D00256384F83E50FC
:103F5000002070BD01EB4106431EB3FBF6F35B1C72
:103F6000B3E70120C2E701EB4101401EB0FBF1F0D5
:103F7000401CC0F30B00B7E7A086010080841E0040
:103F800000093D0040420F00704770477047000035
:103F90000249884201D1FDF7CFBF7047440100209C
:103FA000704700002DE9FC5F994692468B46044617
:103FB000DDF83080FFF766FD00250646009594F891
:103FC0003D00202828D1664846F2A8112027006825
:103FD000B0FBF1F000EBC00101EB00100090009885
:103FE000401E009010D020688069C0438007F6D53D
:103FF00094F83C0001280FD0012084F83C00206890
:104000000168C9070BD00EE044F8305F6773A573F1
:10401000206940F0200020610220BDE8FC9F01687B
:1040200041F0010101602068016821F40061016034
:10403000222084F83D00402084F83E002564C4F826
:1040400024800D986085608D20854648E062C4F824
:1040500044B0C4F848A0C4F84C902565208D4FF0BA
:104060002308002863D0A06B00B33F49C163A16B54
:104070003E48C864A06B0564A06B4564A06B856472
:10408000A06B05652168238D1031626AA06BFFF774
:104090009DFBA0B184F83D7084F83E5054F8400F69
:1040A00040F0100044F80409257049E084F83D70A0
:1040B00084F83E5054F8400F40F08000F2E7CDE91C
:1040C00000864B4652465946204601F02BFF88B1E8
:1040D000A06BFFF729FAA06BC5632068016821F483
:1040E00080610160258565852068016821F00101F6
:1040F000016025E0208D0128206813D0416841F43B
:1041000080514160206841698169009184F83C5088
:10411000416841F4807141602068416841F4006168
:1041200041601BE0016821F480610160EAE7CDE9AC
:1041300000864B4652465946204601F0F3FE08B130
:1041400001206AE72068416981690091016841F4B2
:104150000071016084F83D7084F83C5000205CE7F9
:10416000EC0000200000FFFF25570008E55600087E
:104170002DE9FC5F0025984691468A460446DDF805
:1041800030B00095FFF77EFC074694F83D002028EC
:1041900028D1584846F2A81120260068B0FBF1F05B
:1041A00000EBC00101EB001000900098401E009051
:1041B00010D020688069C0438007F6D594F83C0091
:1041C00001280FD0012084F83C0020680168C9074D
:1041D0000BD00EE044F8305F6673A573206940F0A1
:1041E000200020610220BDE8FC9F016841F0010130
:1041F00001602068016821F400610160212084F8D9
:104200003D00402084F83E002564C4F824B00D9899
:104210006085608D20853848E062C4F844A0C4F809
:104220004890C4F84C802565208D002859D0606BDB
:1042300008B33249C163616B3148C864606B05647F
:10424000606B4564606B8564606B05652268238DD7
:104250001032616A606BFFF7B9FAA8B184F83D606B
:1042600084F83E5054F8400F40F0100044F8040920
:1042700025700120B7E784F83D6084F83E5054F87B
:10428000400F40F08000F1E72320CDE900074346CE
:104290004A465146204601F0C3FE88B1606BFFF7E5
:1042A00043F9606BC5632068016821F48061016097
:1042B000258565852068016821F001010160D8E746
:1042C000206841698169009184F83C50416841F45B
:1042D000807141602068416841F4006141600020C4
:1042E00081E784F83D6084F83E5054F8400F40F078
:1042F0004000BBE7EC0000200000FFFF255700084E
:10430000E55600082DE9F04786B0064614216846B8
:10431000FBF7B2FF3B49306888426FD13A4800242E
:10432000016841F0200101600068012500F02000D3
:104330004FF004090095CDE904904FF003081227CF
:10434000CDF80C80DFF8C4A0CDE901746946504671
:10435000FFF774FA0220CDE9000702AA694682E855
:1043600020035046FFF76AFA27481030016841F4ED
:10437000800101600068274D00F48000059024480A
:1043800028604FF06067C5E901744FF48068C5E9A3
:1043900003486C61AC61EC612C6228466C62FFF7EB
:1043A000ABF908B1FDF7D1FEB563AE63194D1848FE
:1043B00060357830E5E802074020A5E8110115488E
:1043C00045F814496030AC61EC612C626C62FFF717
:1043D00093F908B1FDF7B9FE75630022114621205B
:1043E000AE6300F083F8212000F072F8002211463D
:1043F000222000F07BF8222000F06AF806B0BDE829
:10440000F08700000058004030380240001402409D
:104410004060024098010020704770470248816860
:104420000278114481607047E00000200B4810B50D
:10443000016841F400710160016841F4806101602C
:10444000016841F480710160032000F06FF80F20D3
:1044500000F006F800F024F8002010BD003C0240F7
:1044600070B50D4D04464FF47A712878B1FBF0F029
:104470000A490968B1FBF0F000F044FB48B9102C80
:1044800007D200222146501E00F030F800206C6058
:1044900070BD012070BD0000E0000020EC00002095
:1044A0000A4808B5016841F480410160006800F4E1
:1044B000804000900548001F016841F08051016074
:1044C000006800F08050009008BD000044380240B1
:1044D000002809DB00F01F02012191404009800003
:1044E00000F1E020C0F8001170470000F0B40E4B5E
:1044F0001B680C46C3F30223C3F10705042D00D942
:104500000425191D072901D2002300E0DB1E012626
:1045100006FA05F1491E214099409E40761E16403C
:104520003143F0BC03F07DBD0CED00E0064900F026
:10453000070208684FF6FF03184040EA0220034ACA
:1045400010430860704700000CED00E00000FA0521
:104550002DE9F8431748016841F080510160006877
:10456000154F00F08050012600903E64FFF78AFA54
:1045700005464FF47A78114C05E000BFFFF782FA48
:10458000401B40450DD86068C003F7D57E64FFF737
:1045900079FA0546464607E0FFF774FA401BB04239
:1045A00002D90320BDE8F88360688003F4D50020B9
:1045B000F8E700004038024000000E420070004062
:1045C0002DE9F0470E46050065D0DFF81481D8F8D4
:1045D0000000F7B200F00F00B04207D288F8007078
:1045E000D8F8000000F00F00B04254D128683D4CCC
:1045F000810712D5400703D5206840F4E0502060C1
:104600002878000703D5206840F4604020602068C7
:10461000A96820F0F000084320602878C0072DD05A
:10462000304968680839012812D0022813D00328BD
:1046300011D00968890700292DDA216821F00301CA
:1046400001432160FFF71EFA814641F2883A0EE0ED
:1046500009688903EFE709688901ECE7FFF712FAB7
:10466000A0EB0901514502D90320BDE8F08720687D
:10467000696800F00C00B0EB810FEFD1D8F80010A2
:10468000404601F00F01B14207D90770006800F001
:104690000F00B04201D00120E7E72878400705D598
:1046A0002068E96820F4E05008432060287800077B
:1046B00006D52068296920F4604040EAC1002060E6
:1046C00000F038F82168084AC1F30311515CC84072
:1046D0000649086006480068FFF7C2FE0020C4E7EC
:1046E000003C02400838024078930008EC000020AB
:1046F000E40000200448054900680968044AC1F341
:104700008221515CC8407047EC000020083802400C
:10471000889300080448054900680968044AC1F301
:104720004231515CC8407047EC000020083802401C
:1047300088930008154810B5006810F00C02144862
:1047400013D01449042A0FD0082A0ED10F4C241F6D
:104750002268236802F03F025B0207D52068C0F39D
:104760008810A0FB010106E0084610BD2168C1F3D6
:104770008811A1FB00010023FBF734FD2168C1F380
:104780000141491C4900B0FBF1F010BD083802405E
:104790000024F400001BB7002DE9F84F04006ED090
:1047A0002078DFF84C93C007A9F104054AD009F13D
:1047B00004000168C1F38101012908D00068C0F339
:1047C000810002280AD1D9F80000400206D52868E5
:1047D000800337D560680028E1D033E06068B0F529
:1047E000803F10D0B0F5A02F286810D020F4803082
:1047F0002860286820F4802028606068A8B1FFF74E
:1048000041F906460DE0286840F48030F4E740F4B2
:1048100080202860F7E700BFFFF734F9801B642889
:1048200073D828688003F7D50CE0FFF72BF906460C
:1048300005E000BFFFF726F9801B6428F0D8286840
:104840008003F7D42078DFF8AC8280074FF0000AAD
:104850003ED5A748001D016811F00C0F08D0006874
:10486000C0F3810002280BD1D9F80000400207D420
:104870002868800716D5E068012800D112E033E1EE
:10488000E068B8B10120C8F80000FFF7FBF8064661
:1048900005E000BFFFF7F6F8801B0228C0D82868A3
:1048A0008007F7D52868216920F0F80040EAC100A8
:1048B00028600DE0C8F800A0FFF7E4F8064604E021
:1048C000FFF7E0F8801B02281FD828688007F7D47C
:1048D0002078000722D5864F87486169703771B10B
:1048E00001210160FFF7CEF8064604E0FFF7CAF8A1
:1048F000801B022809D838688007F7D50EE0C0F879
:1049000000A0FFF7BFF8064605E082E0FFF7BAF81F
:10491000801B02287DD838688007F7D420784007AC
:1049200068D5DFF8CCB100270BF13C0BDBF80000B9
:10493000C0000BD4DBF8001041F08051CBF8001020
:10494000DBF80000012700F0805000906B4E3068CB
:10495000C00510D4306840F480703060FFF792F8E2
:10496000009005E0FFF78EF80099401A022850D811
:104970003068C005F6D55E4EA0686C3601280FD0B1
:104980000528306810D020F001003060306820F039
:1049900004003060A068B8B1FFF774F800900FE031
:1049A000306840F00100F4E740F004003060F7E7C1
:1049B000FFF768F80099411A41F28830814266D8C1
:1049C00030688007F4D50EE0FFF75CF8009007E050
:1049D000FFF758F80099411A41F28830814256D8C1
:1049E00030688007F4D42FB1DBF8001021F080513B
:1049F000CBF80010A069C8B33D49091D0968C1F38F
:104A0000810102294AD00228504607D0C8F8600028
:104A100000E03CE0FFF736F804463BE04746C8F8C4
:104A20006000FFF72FF8064605E000BFFFF72AF801
:104A3000801B02282BD828688001F7D4D4E907010D
:104A40000843A16A2E4A490802EB0141626A41EA21
:104A50008211084394F82C1040EA0161C9F8001053
:104A600001203866FFF70EF8044606E03EE000BF7E
:104A7000FFF708F8001B022809D828688001F7D53D
:104A800034E000BFFEF7FEFF001B022802D903201E
:104A9000BDE8F88F28688001F4D427E00128F7D01A
:104AA000D9F80000E26900F4800191421CD1226A29
:104AB00000F03F01914217D147F6C071626A014090
:104AC000B1EB821F10D1A26A4FF0FF3300F44031E6
:104AD00003EB5202B1EB024F06D194F82C1000F018
:104AE0007060B0EB016F01D00120D1E70020CFE76B
:104AF0000438024000004742800E474200700040E8
:104B00000000FFFF10B5401EB0F1807F01D30120EF
:104B100010BD4FF0E02460610F21601703F081FAAF
:104B20000020A06107202061002010BD7047704761
:104B300070B590F83C20012A32D0012480F83C4026
:104B4000022280F83D2003685A689D6822F07006B2
:104B50000A6832435A60134B02689A4214D0B2F189
:104B6000804F11D0104B9A420ED0104B9A420BD06E
:104B70000F4B9A4208D00F4B9A4205D00E4B9A42E7
:104B800002D00E4B9A4204D1496825F080031943A4
:104B9000916080F83D40002180F83C10084670BDCF
:104BA000022070BD000001400004004000080040E9
:104BB000000C00400004014000400140001800408B
:104BC00010B5040003D094F83D0010B107E00120B7
:104BD00010BD002084F83C00204600F01FF80220A1
:104BE00084F83D00211D206802F09CFE012084F81D
:104BF000460084F83E0084F83F0084F8400084F8C2
:104C0000410084F8420084F8430084F8440084F8AA
:104C1000450084F83D00002010BD000008B5006884
:104C20000B49884212D10B48016841F02001016014
:104C30000068002200F02000009011463720FFF7A6
:104C400055FCBDE808403720FFF742BC08BD000016
:104C5000001400404038024090F83D10012901D076
:104C600001207047022180F83D100168CA6842F0B7
:104C70000102CA6000681149884214D0B0F1804F27
:104C800011D00F4988420ED00E4988420BD00E49F0
:104C9000884208D00D49884205D00D49884202D08B
:104CA0000C49884204D1816801F00701062903D02C
:104CB000016841F0010101600020704700000140DF
:104CC0000004004000080040000C004000040140C7
:104CD000004001400018004070472DE9F0410446B3
:104CE0000068C66805694FF00007A90713D5B1072A
:104CF00011D5F91E016101202077206880698007A5
:104D0000204602D0FFF7E8FF04E000F07EF82046DE
:104D100000F07CF82777680716D5700714D521684E
:104D20006FF004000861022020772068806910F489
:104D3000407F204602D0FFF7CFFF04E000F065F887
:104D4000204600F063F82777280715D5300713D5DC
:104D500021686FF008000861042020772068C0698E
:104D60008007204602D0FFF7B7FF04E000F04DF8BF
:104D7000204600F04BF82777E80616D5F00614D544
:104D800021686FF010000861082020772068C06952
:104D900010F4407F204602D0FFF79EFF04E000F0B1
:104DA00034F8204600F032F82777E80708D0F007FB
:104DB00006D021686FF001000861204600F028F855
:104DC000280608D5300606D521686FF080000861F6
:104DD0002046FFF7ABFE680608D5700606D52168A9
:104DE0006FF040000861204600F032F8A8060AD5AE
:104DF000B00608D521686FF0200008612046BDE8A4
:104E0000F041FFF794BEBDE8F081704770470000A5
:104E10000E4910B5884217D102F024F9FCF7DEFFE5
:104E2000FCF798FCFCF7EEF9FDF7EEFE02F0AEFCA5
:104E300001F036FCFCF7D4F9FDF714F9FDF78CF816
:104E4000BDE8104003F016B810BD00005802002065
:104E5000704738B5044690F84200202801D002205F
:104E600038BD61B15AB10120206300206063204643
:104E700002F092FF0028F3D1216B012901D001201B
:104E800038BD21680A684968009121680C3151E8F1
:104E9000002F42F0100241E80023002BF5D138BD6D
:104EA00010B50C461B49884206D101F0D9FBE1B28E
:104EB000BDE8104001F0ECBB174988420BD1FCF76C
:104EC000D3F8E1B2FCF764F901F0F2FB13490020DA
:104ED000A1F8010010BD1249884206D1FCF746FA3C
:104EE000E1B2BDE81040FCF76DBF0E49884206D123
:104EF00001F02AFFE1B2BDE8104001F029BF0A49E4
:104F00008842E7D1FCF71CFDE1B2BDE8104002F099
:104F1000A5BF0000E8020020C0030020B710002059
:104F20003003002078030020A0020020704700001A
:104F3000F8B5016804460868CA684B6910F00F0F9D
:104F40004FF0000559D003F0010602F49077374383
:104F500065D0C10705D0D10503D5616C41F00101D1
:104F60006164410705D5D90703D0616C41F00201A6
:104F70006164810705D5D90703D0616C41F0040154
:104F80006164010707D502F02001314303D0616C51
:104F900041F008016164616C00293AD0800604D5B3
:104FA000900602D5204602F00FFE20684069616C31
:104FB000C0F38010090700D460B3204602F0CFFD93
:104FC00020684069400621D52068143050E8001F51
:104FD00021F0400140E80012002AF5D1E06BA8B1B1
:104FE0006E490165E06BFEF79FFA002811D0E06B77
:104FF000016D01B0BDE8F040084783060FD5930668
:105000000DD52046BDE8F84002F0DEBD2046FFF792
:105010008DFFF8BD2046FFF789FF6564F8BD266B5C
:105020002023012E7DD1C6067BD5D60679D508680A
:105030004868009048694FF00206400641D5E16B90
:10504000086840680004000CE8D0A28D8242E5D9CF
:10505000E085C869B0F5807F2DD020680C3050E81D
:10506000001F21F4807140E80012002AF5D1206869
:10507000143050E8001F21F0010140E80012002A1E
:10508000F5D12068143050E8001F21F0400140E8BD
:105090000012002AF5D184F84230256320680C30D4
:1050A00050E8001F21F0100140E80012002AF5D15D
:1050B000E06BFEF7F0F96663A08DE18D401A81B2D6
:1050C0002AE0A08DE18D401A81B2E08D0028A5D0A4
:1050D0000029A3D022680C3252E8000F20F490700F
:1050E00042E80007002FF5D12068143050E8002F67
:1050F00022F0010240E80027002FF5D184F8423069
:10510000256320680C3050E8002F22F0100240E8A0
:105110000023002BF5D166632046FFF7C1FEF8BDE2
:10512000FFE705062BD5150629D594F8410021285F
:10513000F5D1A068B0F5805F01D12069B0B1206AD7
:10514000411C2162216800784860E08C401E000408
:10515000000CE084E3D12068C16821F08001C160C7
:105160002068C16841F04001C160D8E7206A00882A
:10517000C0F308004860206A801C2062E5E7400612
:10518000CDD55006CBD5CA68204622F04002CA6071
:1051900084F8413000F038FAC1E70000157A0008C1
:1051A00070B5040004D094F84100002510B106E069
:1051B000012070BD84F84050204600F023F82420E0
:1051C00084F841002068C16821F40051C160204684
:1051D00002F05CFD2068016921F4904101612068C2
:1051E000416921F02A0141612068C16841F4005100
:1051F000C1606564202084F8410084F84200656342
:10520000002070BD2DE9F04F87B005461421684697
:10521000FBF732F8CF48DFF838831038D5F800C0F4
:10522000CC4F022203210823DFF82CB300240615FB
:105230004FF02069C44535D1D7F800C04CF0804C00
:10524000C7F800C03F6807F080470597076847F038
:1052500010070760006800F010000590CDE9031307
:10526000C8018DE8150069465846FEF7E7FABC4FBD
:10527000BA483860C7E90194C7E903467C61BC615C
:10528000FC613C6238467C62FEF736FA08B1FCF7F6
:105290005CFFEF63002211465220BD63FFF726F941
:1052A000522050E0DFF8BC824FF0400AC4454FD195
:1052B000D7F800C04CF0004CC7F800C03F6807F0BA
:1052C00000470597076847F010070760006800F07F
:1052D000100005908DE81600CDE903136946584685
:1052E000FEF7ACFA9E4F9D48603748303860C7E9FA
:1052F0000194C7E903467C61BC61FC613C623846AD
:105300007C62FEF7F9F908B1FCF71FFFEF63BD639C
:10531000934F9248C0374838C7E903467C61BC6167
:10532000FC613C627C6287E801063846FEF7E4F9DE
:1053300008B1FCF70AFFAF63002211465320BD639A
:10534000FFF7D4F85320FFF7C3F807B0BDE8F08F9C
:10535000DFF81482DFF8FCB14FF0070E0BF1040BFD
:10536000C4453AD1DBF8007047F01007CBF8007065
:10537000DBF8003003F010030593036843F00203E9
:1053800003600068CDE9024100F002000590C020F2
:10539000CDE90002CDF810E069467448FEF74EFAF8
:1053A000744F734838604FF00060C7E90104C7E9E3
:1053B00003467C61BC61FC613C6238467C62FEF75E
:1053C0009BF908B1FCF7C1FEEF63002211462520CE
:1053D000BD63FFF78BF82520B5E7DFF89C81C44556
:1053E00051D13B6843F480233B603B6803F4802346
:1053F0000593036843F0080303600068CDE90241A8
:1054000000F0080005904FF44070CDE90002CDF89F
:1054100010E069465948FEF711FA564F4F48603779
:10542000303838604FF00060C7E90104C7E903462F
:105430007C61BC61FC613C6238467C62FEF75CF9D1
:1054400008B1FCF782FEEF63BD634A4F4348C037A3
:1054500018303860C7E903467C61BC61FC613C627E
:1054600040057C62C7E9010A3846FEF745F908B1F4
:10547000FCF76BFEAF63002211462720BD63FFF7E8
:1054800035F827205FE73E4FBC457FF45EAFDBF881
:1054900000C04CF0200CCBF800C0DBF8007007F027
:1054A00020070597076847F040070760006800F08D
:1054B00040000590CDE903134FF484408DE81500BA
:1054C00069463048FEF7BAF92949DFF8BC80183937
:1054D0004046C8F80010C0E90194C0E90346C8F886
:1054E0001440C8F81840C8F81C40C8F820404F467F
:1054F000C8F82440FEF700F908B1FCF726FEC5F80D
:105500003C80C8F83850DFF88080194908F16008FD
:1055100040466031C0E90346C8F81440C8F8184056
:10552000C8F81C40C8F8204088E88204C8F8244025
:10553000FEF7E2F808B1FCF708FEC5F83880002253
:1055400011464720C8F83850FEF7D0FF4720FAE64A
:10555000007800404038024000100240586002408D
:1055600008040020007C00400010014000040240BC
:10557000406402402805002000480040000C024022
:105580000014014000180240480600207047704790
:1055900070B5044690F84100202801D0022070BD6B
:1055A00049B342B32162A284E284002060642123D3
:1055B00084F84130A56B114BEB63A56B104B2B644A
:1055C000A56B104BEB64A36B1865256813462A1D69
:1055D000A06BFEF7FBF821686FF0400008602068C0
:1055E000143050E8001F41F0800140E80012002A0A
:1055F000F5D1002070BD012070BD0000137B0008B4
:10560000557B0008257A000870477047FEE70000C8
:105610000148FEF77FBA0000440100200148FEF770
:10562000D6BA00004401002038B5806B002190F804
:105630003D202B4B46F2A8141B68B3FBF4F3C3EBDD
:10564000C30303EB830300933BB15B1E009303682A
:105650001B689B0505D5009BF6E7036C43F0200310
:105660000364436B03B1D963836B03B1D9630368EC
:105670001C6824F480641C604185436B03B1196588
:10568000836B03B1196503681C6824F001041C6076
:1056900090F83D402023602C0BD0282434EA0202ED
:1056A0000FD080F83D3080F83E1000BFFEF7A7FB1A
:1056B00038BD80F83D3080F83E100164FEF728FACE
:1056C00038BD0268136843F0010313600268136871
:1056D00043F480631360016380F83D40E6E7000017
:1056E000EC00002070B5846B0025616B01B1CD63C7
:1056F000A16B01B1CD63FDF729FF022811D020680D
:10570000016821F4806101606585202084F83D00F6
:1057100084F83E50206C40F0100020642046FEF7D4
:105720006EFB70BD2DE9F041846B94F83D2094F838
:105730003E50E16A2068436823F440734360636B22
:10574000002003B1D863A36B03B1D863212333EAEC
:1057500002074FF022060CD036EA020701D1202DB5
:1057600007D094F83E20002A21D0628D012A20D053
:1057700024E021684D6825F400654D60608528208F
:10578000292A02D02A2A07D00CE0236384F83D009E
:105790002046FEF742FE05E0266384F83D002046E1
:1057A000FEF73AFE2068416841F440714160BDE86F
:1057B000F0812268136823F48063136022685368C1
:1057C00023F44073536011F5803F06D0082904D0BC
:1057D000B1F12A4F01D0202904D12268136843F483
:1057E000007313602268536823F480535360226867
:1057F000536823F4006353606085226C1AB120461D
:10580000FEF7FDFAD3E7202284F83D2094F83E20ED
:1058100084F83E00402A09D0082902D0202900D06F
:10582000122020632046FEF7B0FBC0E7206320462D
:10583000FEF7AEFBBBE700684169C943090601D426
:10584000002101617047000070B5044690F83D00EA
:1058500094F83E10102901D0402906D1222804D105
:1058600021680A6822F400620A60282131EA0002F5
:105870004FF000054FF0200626D021684968090541
:1058800005D4602803D084F83D6084F83E50256339
:1058900020684168090537D5416821F400614160FD
:1058A000606B90F835203C49012A11D00165606B8E
:1058B000FDF73AFE38B32068016821F0010101606C
:1058C00084F83D60606B1CE0256384F83D10DFE7E1
:1058D000A06B0165A06BFDF727FEA0B120684169B0
:1058E000C943490605D40069616A0870606A401CB2
:1058F00060622068016821F00101016084F83D6068
:10590000A06B016D884710E094F83D10602910D01D
:105910004169C943490605D40069616A0870606A33
:10592000401C60622046FEF76AFA206CC1071CD159
:1059300015E084F83D6025644169C943490605D4F2
:105940000069616A0870606A401C606220680168D2
:1059500021F0010101602046FEF7DAF8E5E7810752
:1059600003D4410701D4000704D52068416821F41D
:10597000E061416094F83D00216C49070BD528286F
:1059800009D10648E062256384F83D6084F83E5002
:105990002046FEF7F9FA70BD295600080000FFFF07
:1059A00001684A69D24352050FD46FF480624A619C
:1059B000002140F8301F202242738173026942F0B7
:1059C000040202610173012070470020704710B586
:1059D000C26A438D0168042B06D0438D032B08D087
:1059E000438D022B1DD012E04A6822F480624A6087
:1059F0000CE04B6823F480634B60042A06D0022A33
:105A000004D001680A6822F480620A6001680969AA
:105A1000426A1170416A491C4162418D491E4185AB
:105A200010BD012A34D0102A32D0042A34D0022AE0
:105A300032D00B6843F400730B6001680969436A54
:105A40001970416A491C4162438D5B1E438503689E
:105A50001B690B70416A491C4162418D491E418599
:105A600001684B6823F440734B60202180F83D109F
:105A700090F83E300021402B80F83E1010D0082ACC
:105A800002D0202A00D012210163FEF77EFA10BD59
:105A90000B6823F48063CFE70B6843F48063CBE7A4
:105AA0000163FEF775FA10BD38B590F83D10222954
:105AB00010D1C36A418D03290DD901680969426A71
:105AC0001170416A491C4162418D491E4185418DD9
:105AD000032906D038BDC26A022A02D0012906D0A5
